:020000040800F2
:10000000C0060020890100082B0F0008270F0008F8
:10001000290F00088F0200086D1100080000000081
:100020000000000000000000000000002F0F00088A
:1000300091020008000000002D0F0008310F000899
:10004000A3010008A3010008A3010008A301000800
:10005000A3010008A3010008A3010008A3010008F0
:10006000A3010008A3010008A3010008A3010008E0
:10007000A3010008A3010008A3010008A3010008D0
:10008000A3010008A3010008A3010008A3010008C0
:10009000A3010008A3010008A3010008A3010008B0
:1000A000A3010008A3010008A3010008A3010008A0
:1000B000A3010008A3010008A3010008A301000890
:1000C000A3010008A3010008A3010008A301000880
:1000D000A301000861110008A3010008A3010008A2
:1000E000A3010008A3010008A301000800F002F822
:1000F00000F03AF80AA090E8000C82448344AAF188
:100100000107DA4501D100F02FF8AFF2090EBAE885
:100110000F0013F0010F18BFFB1A43F0010318473B
:100120001411000034110000103A24BF78C878C1BF
:10013000FAD8520724BF30C830C144BF04680C60ED
:10014000704700000023002400250026103A28BF35
:1001500078C1FBD8520728BF30C148BF0B60704739
:100160001FB51FBD10B510BD00F058F81146FFF7C0
:10017000F7FF01F00FF800F076F803B4FFF7F2FF95
:1001800003BC00F07DF8000009488047094800479B
:10019000FEE7FEE7FEE7FEE7FEE7FEE7FEE7FEE737
:1001A000FEE7FEE704480549054A064B7047000094
:1001B0008D0F0008ED000008C0000020C0060020E0
:1001C000C0020020C00200204FF0000200B513461C
:1001D00094469646203922BFA0E80C50A0E80C5067
:1001E000B1F12001BFF4F7AF090728BFA0E80C5018
:1001F00048BF0CC05DF804EB890028BF40F8042B11
:1002000008BF704748BF20F8022B11F0804F18BF7D
:1002100000F8012B7047704770477047754600F033
:100220002BF8AE4605006946534620F00700854688
:1002300018B020B5FFF7B6FFBDE820404FF000062C
:100240004FF000074FF000084FF0000BAC46ACE851
:10025000C009ACE8C009ACE8C009ACE8C00921F0AD
:1002600007018D46704710B50446AFF30080204665
:10027000BDE81040FFF781BF004870471000002024
:1002800001491820ABBEFEE7260002007047FEE7DA
:10029000704710B590F82110022912D10168D0E9F9
:1002A0000F230C6824F00E040C600C6824F0010489
:1002B0000C60012101FA03F3536080F82110002142
:1002C00002E0042181630121002280F820200846F9
:1002D00010BD0000B0B590F8211002291CD10368B0
:1002E0001F4C1968012221F00E0119601968A34200
:1002F00021F001011960194912D01A4CA34211D002
:10030000194CA34210D0194CA34210D0184CA34250
:1003100010D14FF4803415E00421816301211BE0EA
:1003200001240FE010240DE04FF480740AE04FF434
:10033000805407E001F168054FF08074AB4208BFBC
:100340004FF480140C60002180F8201080F82120E8
:10035000426B0AB1904700210846B0BD040002403C
:10036000080002401C0002403000024044000240ED
:10037000580002402DE9FC4F594A04234FF0000B6E
:100380004FF001084FF00F0E4FF00009002590428A
:1003900008BF032300930B6833FA05F208BFBDE8DA
:1003A000FC8F08FA05F2134200F096804F68032F85
:1003B00016D9112F24D0122F26D04C4B9F4213D088
:1003C0004B4B9F4210D04B4B9F420DD04A4B9F420C
:1003D0000AD04A4B9F4207D0494B9F4204D020E0AD
:1003E000DFE807F00216191D8B6833B1012B14BF2B
:1003F000426102614FF0080913E04FF0040910E078
:10040000CB6803F104090CE0CB6803F10C0908E0A8
:10041000D1F80C9005E0CB6803F1080901E04FF03A
:1004200000095B460646082D28BF203B28BF04363E
:1004300037680EFA03F427EA040409FA03F32343A6
:100440003360CB79DB0647D5644B264E1C461B68D0
:10045000A6F57E7643F00103236023680BF00C0CB5
:1004600003F001030193019CAC0856F824700EFAC6
:100470000CF327EA030A234B984208D0224B9842F8
:1004800007D0224B9842009B08BF022302E00023C2
:1004900000E0012303FA0CF343EA0A0346F8243090
:1004A0004F68104CFB02A36854BF934313430E4E96
:1004B000A360BB02336854BF934313433360BB0351
:1004C000636854BF934313436360FB03236854BFC3
:1004D00023EA02021A4322600BF1040B01355AE7AA
:1004E00000140140000401400C0401400000111000
:1004F0000000121000002110000022100000311036
:100500000000321000080140000C014000100140C2
:10051000C26802EA0103914341EA03410161704765
:10052000002A08BF090401617047000005480068FF
:10053000704700BF1A48034900780A6810440860F1
:10054000704700BFBC00002080B58F48016841F0B3
:1005500010010160032000F06FF80F2000F004F894
:1005600000F020F8002080BD70B50D4E04463078B4
:100570004FF47A71B1FBF0F090490968B1FBF0F0EB
:1005800000F0E2FA01250F2C08D838B94FF0FF30FF
:1005900021460022002500F033F87460284670BD23
:1005A0000000002082B00D480222016841F00101E4
:1005B0000160016801F0010101910199416841F078
:1005C00080514160406800F08050009000980448DD
:1005D000016862F31A61016002B0704718100240AE
:1005E00004000140002808D400F01F01012202FA93
:1005F00001F1024A400942F82010704700E100E092
:10060000B0B5134B4FF0FF351B68C3F30223DC1E5C
:1006100083F0070338BF0024042B28BF042305FA06
:1006200003F3994305FA04F3A1409A431143BDE84B
:10063000B04000F09DBD00BF05494FF6FF030A68BA
:100640001A4060F30A22034810430860704700BF55
:100650000CED00E00000FA052DE9F843002800F059
:100660009080884648490446086800F007004045E5
:100670000AD2086820F0070040EA0800086008680D
:1006800000F0070040457CD120685B4B894681071C
:1006900011D5410703D5196841F4E06119600107DC
:1006A00003D5196841F460511960A1681A6822F0F5
:1006B000F00211431960C0072BD06068012804D1F3
:1006C00053F8041C890309D45BE053F8041C022886
:1006D00002D1890102D454E0890752D519681D4618
:1006E00021F0030108431860FFF720FF064641F29E
:1006F0008837606829682B4601F00C01B1EB800F48
:1007000007D0FFF713FF801BB842F2D90320BDE8E2
:10071000F883D9F8000000F0070040450DD9D9F85A
:10072000000020F0070040EA0800C9F80000D9F8EE
:10073000000000F00700404523D12068410705D59F
:10074000E1681A6822F4E06211431960000706D5D7
:100750002069196821F4605141EAC00018601C4604
:1007600000F030F82168094AC1F30311515CC84018
:10077000F349086006480068FFF7F6FE0020BDE870
:10078000F8830120BDE8F883002002401C12000815
:1007900004000020EA48184900680968084AC1F3C3
:1007A0000221515CC8407047E54813490068096858
:1007B000034AC1F3C221515CC840704708000020C1
:1007C0002C12000810B50C490C480A6802F00C0302
:1007D000082B07D1C2F3834309A4E35CD20302D4FC
:1007E0000C48584310BD096809A2C1F34041515C4F
:1007F0005843B0FBF1F010BD0410024000127A0023
:1008000002030405060708090A0B0C0D0E0F101051
:100810000102000000093D002DE9FC41002800F024
:10082000CC8004460078C44EC0074AD0706800F0FF
:100830000C00042817D0706800F00C00082802D1C2
:100840007068C0030FD4606898B1B0F5803F06D0DF
:100850003168B0F5A02F21D141F48020306030689C
:1008600040F4803020E0306880032AD5606840BBC7
:10087000A3E0306820F480303060306820F48020BD
:100880003060FFF753FE05463068800319D5FFF747
:100890004DFE411B03206429F6D94AE121F4803042
:1008A0003060306820F480203060FFF73FFE05465E
:1008B0003068800305D4FFF739FE401B6428F7D960
:1008C0000AE1207880072CD5706810F00C0F07D053
:1008D000706800F00C00082809D17068C00306D4C5
:1008E0003068800716D52069012813D065E021699A
:1008F0009248002900F0B58001210160FFF716FE43
:1009000005463068800705D4FFF710FE401B02281B
:10091000F7D9E1E06069316821F0F80141EAC000EF
:100920003060207800072ED5A06978B18348012176
:10093000C0F88014FFF7FAFD0546706A800715D4E9
:10094000FFF7F4FD401B0228F7D9C5E07B480021E2
:10095000C0F88014FFF7EAFD0546706A800712D5DB
:10096000FFF7E4FD401B0228F7D9B5E074484FF4C7
:10097000FA510068B0FBF1F0019000BF0198411EF0
:1009800000280191F9D12078400719D4E769002F98
:1009900000F0CE80706800F00C00082843D1012FD1
:1009A0000BD0216A706800F480328A4205D1616AF6
:1009B00000F47010884200F0BB800120BDE8FC818B
:1009C000F069C0000BD4F0694FF0010840F080508E
:1009D000F061F06900F080500090009801E04FF065
:1009E0000008584F3868C0050FD4386840F480704C
:1009F0003860FFF79BFD05463868C00505D4FFF752
:100A000095FD401B6428F7D966E0E068C8B301286B
:100A100005D0316A05284BD141F004003062306ABC
:100A200040F001004AE04549002088460866FFF78B
:100A30007DFD0546022F0AD147463068800157D513
:100A4000FFF774FD411B03200229F6D971E03068DD
:100A500080016DD5FFF76AFD411B03200229F6D9FD
:100A600067E000210160FFF761FD054630688007FF
:100A70007FF557AFFFF75AFD411B03200229F5D937
:100A800057E0306A20F001003062306A20F0040044
:100A90003062FFF74BFD054641F28837306A800728
:100AA0001DD5FFF743FD411B0320B942F6D940E0B5
:100AB00021F001003062306A20F004003062FFF75C
:100AC00035FD054641F28837306A800707D4FFF7C5
:100AD0002DFD401BB842F7D90320BDE8FC81B8F1D9
:100AE000000F3FF453AFF06920F08050F0614DE704
:100AF000206AB0F5803F05D1A168726822F4003207
:100B000011437160616A0843716821F474110843EC
:100B1000706001203866FFF709FD044630688001E7
:100B200006D4FFF703FD011B03200229F6D900E0DC
:100B30000020BDE8FC8100BF0010024000004242DE
:100B40000800002000700040411E0020B0EB116F33
:100B50001CBF01207047044AF023516003490B7009
:100B6000072190601160704710E000E023ED00E085
:100B700070477047F8B5044600680168C268466966
:100B800001F02F0502F02003202D05D123B12046CE
:100B9000BDE8F84000F028BA5FEA017E08D006F010
:100BA000010686F0010712F4907F55D1002F53D033
:100BB0001140CA06226B3DD5012A3BD1002100918C
:100BC000016800914168009100994169490600F16E
:100BD0009280E18DA28DE38D002B00F00781511AE8
:100BE0000A0401D102E1206850E8030F226820F4D2
:100BF000907042E80303002BF5D1206850E8050F00
:100C0000226820F0010042E80503002BF5D12020E6
:100C100084F8420000202063206850E8030F226817
:100C200020F0100042E80303002BF5D1022089B226
:100C30006063A3E00A0600F1A680490640F1D68071
:100C4000C16821F04001C160202084F841002046A5
:100C5000BDE8F84000F066B9CD0718BF12F4807502
:100C600003D0656C45F00105656401F004054FF0A3
:100C7000010C8CEA95053D4303D1656C45F00205F6
:100C8000656401F002058CEA55053D4303D1656CAE
:100C900045F004056564334318BF0123BEF1000F1E
:100CA00004D51BB1636C43F008036364636C002BD1
:100CB00000F09C801140890603D5204600F094F98D
:100CC00020684069616C00F0400001F008014018A4
:100CD00069D0204600F061F920684169490674D561
:100CE00050E8050F216820F0400041E80502002A85
:100CF0005FD02068F4E7E26B11684B689DB2002D6D
:100D000074D0A18D8D4271D2E3859269202A30D0B2
:100D100050E8030F216820F4807041E803020AB113
:100D20002068F5E7206850E8050F216820F00100F1
:100D300041E80502002AF5D1206850E8050F216836
:100D400020F0400041E80502002AF5D1202084F877
:100D5000420000202063206850E8030F216820F043
:100D6000100041E80302002AF5D1E06BFFF791FA89
:100D7000A18D02206063E08D081A81B22046BDE893
:100D8000F840FFF7F5BE94F8411021292ED1A16853
:100D9000B1F5805F01D12169E1B1216A4A1C22626B
:100DA000097841601DE02046FFF7E3FE0020606403
:100DB000F8BDE06B48B112494163FFF78BFAA8B167
:100DC000E06B416BBDE8F84008472046BDE8F840BD
:100DD000FFF7CFBE216A31F8022B6FF35F22216249
:100DE0004260E18C0139E184090400D0F8BDC1689A
:100DF00021F08001C160C16841F04001C160F8BDCF
:100E00008F0F000858B310B5044690F8410028B978
:100E1000002084F84000204600F024F8242084F8C4
:100E200041002068C16821F40051C160204600F0F3
:100E30003DF92068016921F490410161416921F087
:100E40002A014161C16841F40051C16000202021A4
:100E5000606484F8411084F84210606310BD012082
:100E60007047000070B586B00026CDE90466CDE974
:100E70000266E84C006804F5405188422FD1E448EE
:100E800002AD016841F480410160016801F48041D4
:100E900001910199016841F004010160006829464F
:100EA00000F00400019003200590022003904FF40D
:100EB0000070029001982046FFF75CFA4FF48060C2
:100EC000CDE90366029020462946FFF753FA252014
:100ED00001210022FFF794FB2520FFF783FB06B0DA
:100EE00070BD00BF10B590F84230202B07D101240F
:100EF00031B12AB10024046300F018F900E00224A3
:100F0000204610BD80B5C4490246081D824218BF64
:100F100080BD0122FFF7E6FFBE480121BDE8804009
:100F2000FFF7F6BA7047FEE7FEE7FEE77047704747
:100F3000FFF700BBB0B590B006AC201D2421FFF731
:100F400043F901A81421FFF73FF9002510200D9562
:100F50000B9001200A90022006902046FFF75CFCCF
:100F600018B1EFF3108072B6FEE70F2002950190E2
:100F700001A80021CDE903550595FFF76DFB18B1D8
:100F8000EFF3108072B6FEE710B0B0BD7047406A54
:100F90000021C185C184FFF7ECBD016851E8031F42
:100FA000026821F4907142E80313002BF5D1016827
:100FB00051E8051F026821F0010142E80513002BEA
:100FC000F5D1016B012909D1016851E8031F0268BD
:100FD00021F0100142E80313002BF5D1202180F805
:100FE000421000210163704781B090F8421022291D
:100FF00020D18368B3F5805F08D10169002949D009
:1010000000F128010A6803685B680AE0014651F8AC
:10101000282F13B90369002BF5D003685B6803F030
:101020007F0313700A6801320A60C18D0139C185DE
:10103000090401D001B070470168CA6822F020029B
:10104000CA60CA6822F48072CA604A6922F001024A
:101050004A61202280F8422000224263036B012B68
:1010600021D1026351E8031F026821F0100142E818
:1010700003130168002BF5D10A68D20606D50022B9
:1010800000920A680092496800910099818D01B030
:10109000FFF76EBD0168826A49686FF35F2122F82D
:1010A000021B8262C1E701B0FFF72CBFB0B5044656
:1010B000006804F108030ECB0569194325F4405577
:1010C0002A430261C268636941F20C65AA4319436D
:1010D0001143C1604169A26921F44071114341612A
:1010E0001149884202D0FFF755FB01E0FFF75CFB96
:1010F00019214843D4E900126FF063049200B0FB59
:10110000F2F06422B0FBF2F303FB0400322404EBA0
:101110000010B0FBF2F000F0F00202EB031200F05E
:101120000F0010448860B0BD003801400023C28524
:10113000436482858162222180F84210016800693F
:1011400018B1C86840F48070C860486940F0010078
:101150004861C86840F02000C86000207047000067
:101160000148FFF707BD00BF74000020FEE7000044
:1011700010B5074C00F00F032344044AB0F1FF3FC1
:10118000C8BF83180801187010BD00BF00E400E05C
:1011900014ED00E084B0FFF7D7F9FFF7CBFE1C4851
:1011A0001C4C0168002241F004010160006801212B
:1011B00000F0040000900098204601260025FFF76B
:1011C000AFF90220CDE9025069462046CDE900661C
:1011D000FFF7D0F804F540510F4C4FF4E1322046B0
:1011E00040F8041F0C21C0E90125C0E90355C0E9FE
:1011F0000515C561FFF706FE18B1EFF3108072B652
:10120000FEE7201D21460122FFF76CFEFEE700BF2E
:10121000181002400008014070000020000000008B
:101220000000000001020304060708090000000096
:101230000102030458120008000000201000000002
:10124000280100086812000810000020B006000005
:101250004401000800000000010000001000000030
:0812600000127A0000000000FA
:04000005080000ED02
:00000001FF
