:020000040800F2
:10000000C006002089010008FD0B0008F90B00085C
:10001000FB0B00088F020008A50D0008000000007F
:10002000000000000000000000000000010C0008BB
:100030009102000800000000FF0B0008030C0008FC
:10004000A3010008A3010008A3010008A301000800
:10005000A3010008A3010008A3010008A3010008F0
:10006000A3010008A3010008A3010008A3010008E0
:10007000A3010008A3010008A3010008A3010008D0
:10008000A3010008A3010008A3010008A3010008C0
:10009000A3010008A3010008A3010008A3010008B0
:1000A000A3010008A3010008A3010008A3010008A0
:1000B000A3010008A3010008A3010008A301000890
:1000C000A3010008A3010008A3010008A301000880
:1000D000A3010008A3010008A3010008A301000870
:1000E000A3010008A3010008A301000800F002F822
:1000F00000F03AF80AA090E8000C82448344AAF188
:100100000107DA4501D100F02FF8AFF2090EBAE885
:100110000F0013F0010F18BFFB1A43F0010318473B
:10012000540D0000740D0000103A24BF78C878C147
:10013000FAD8520724BF30C830C144BF04680C60ED
:10014000704700000023002400250026103A28BF35
:1001500078C1FBD8520728BF30C148BF0B60704739
:100160001FB51FBD10B510BD00F058F81146FFF7C0
:10017000F7FF00F02BFE00F076F803B4FFF7F2FF74
:1001800003BC00F07DF8000009488047094800479B
:10019000FEE7FEE7FEE7FEE7FEE7FEE7FEE7FEE737
:1001A000FEE7FEE704480549054A064B7047000094
:1001B0006D0C0008ED000008C0000020C006002003
:1001C000C0020020C00200204FF0000200B513461C
:1001D00094469646203922BFA0E80C50A0E80C5067
:1001E000B1F12001BFF4F7AF090728BFA0E80C5018
:1001F00048BF0CC05DF804EB890028BF40F8042B11
:1002000008BF704748BF20F8022B11F0804F18BF7D
:1002100000F8012B7047704770477047754600F033
:100220002BF8AE4605006946534620F00700854688
:1002300018B020B5FFF7B6FFBDE820404FF000062C
:100240004FF000074FF000084FF0000BAC46ACE851
:10025000C009ACE8C009ACE8C009ACE8C00921F0AD
:1002600007018D46704710B50446AFF30080204665
:10027000BDE81040FFF781BF004870471000002024
:1002800001491820ABBEFEE7260002007047FEE7DA
:1002900070470000B0B5044600F0DAF8054689481A
:1002A000611C007818BF044400F0D2F8401BA04243
:1002B000FAD3B0BD2DE9FC4F594A04234FF0000B8F
:1002C0004FF001084FF00F0E4FF00009002590424B
:1002D00008BF032300930B6833FA05F208BFBDE89B
:1002E000FC8F08FA05F2134200F096804F68032F46
:1002F00016D9112F24D0122F26D04C4B9F4213D049
:100300004B4B9F4210D04B4B9F420DD04A4B9F42CC
:100310000AD04A4B9F4207D0494B9F4204D020E06D
:10032000DFE807F00216191D8B6833B1012B14BFEB
:10033000426102614FF0080913E04FF0040910E038
:10034000CB6803F104090CE0CB6803F10C0908E069
:10035000D1F80C9005E0CB6803F1080901E04FF0FB
:1003600000095B460646082D28BF203B28BF0436FF
:1003700037680EFA03F427EA040409FA03F3234367
:100380003360CB79DB0647D55D4B264E1C461B6898
:10039000A6F57E7643F00103236023680BF00C0C76
:1003A00003F001030193019CAC0856F824700EFA87
:1003B0000CF327EA030A234B984208D0224B9842B9
:1003C00007D0224B9842009B08BF022302E0002383
:1003D00000E0012303FA0CF343EA0A0346F8243051
:1003E0004F68104CFB02A36854BF934313430E4E57
:1003F000A360BB02336854BF934313433360BB0312
:10040000636854BF934313436360FB03236854BF83
:1004100023EA02021A4322600BF1040B01355AE76A
:1004200000140140000401400C04014000001110C0
:1004300000001210000021100000221000003110F6
:100440000000321000080140000C01400010014083
:1004500005480068704700BF1A48034900780A68D9
:1004600010440860704700BFB800002080B588487D
:10047000016841F010010160032000F061F80F20D5
:1004800000F004F800F020F8002080BD70B50D4E9B
:10049000044630784FF47A71B1FBF0F0894909686D
:1004A000B1FBF0F000F0D4FA01250F2C08D838B9D0
:1004B0004FF0FF3021460022002500F025F874603F
:1004C000284670BD0000002082B00D48022201685D
:1004D00041F001010160016801F001010191019900
:1004E000416841F080514160406800F080500090C8
:1004F00000980448016862F31A61016002B0704715
:100500001810024004000140B0B5134B4FF0FF3506
:100510001B68C3F30223DC1E83F0070338BF0024EB
:10052000042B28BF042305FA03F3994305FA04F3C7
:10053000A1409A431143BDE8B04000F035BC00BF74
:1005400005494FF6FF030A681A4060F30A22034880
:1005500010430860704700BF0CED00E00000FA0592
:100560002DE9F843002800F0908088464849044669
:10057000086800F0070040450AD2086820F007002C
:1005800040EA08000860086800F0070040457CD198
:1005900020685B4B8946810711D5410703D519684F
:1005A00041F4E0611960010703D5196841F4605115
:1005B0001960A1681A6822F0F00211431960C0079F
:1005C0002BD06068012804D153F8041C890309D496
:1005D0005BE053F8041C022802D1890102D454E0E4
:1005E000890752D519681D4621F003010843186098
:1005F000FFF72EFF064641F28837606829682B46D0
:1006000001F00C01B1EB800F07D0FFF721FF801B39
:10061000B842F2D90320BDE8F883D9F8000000F011
:10062000070040450DD9D9F8000020F0070040EA46
:100630000800C9F80000D9F8000000F007004045A4
:1006400023D12068410705D5E1681A6822F4E062E9
:1006500011431960000706D52069196821F460511B
:1006600041EAC00018601C4600F030F82168094AD1
:10067000C1F30311515CC840F349086006480068A3
:10068000FFF704FF0020BDE8F8830120BDE8F883F0
:10069000002002405C0E000804000020EA481849CF
:1006A00000680968084AC1F30221515CC8407047DC
:1006B000E548134900680968034AC1F3C221515C47
:1006C000C8407047080000206C0E000810B50C49A7
:1006D0000C480A6802F00C03082B07D1C2F38343CD
:1006E00009A4E35CD20302D40C48584310BD096846
:1006F00009A2C1F34041515C5843B0FBF1F010BD79
:100700000410024000127A000203040506070809DB
:100710000A0B0C0D0E0F10100102000000093D0025
:100720002DE9FC41002800F0CC8004460078C44E3E
:10073000C0074AD0706800F00C00042817D0706819
:1007400000F00C00082802D17068C0030FD4606864
:1007500098B1B0F5803F06D03168B0F5A02F21D117
:1007600041F480203060306840F4803020E0306810
:1007700080032AD5606840BBA3E0306820F4803055
:100780003060306820F480203060FFF761FE05465D
:100790003068800319D5FFF75BFE411B03206429F5
:1007A000F6D94AE121F480303060306820F48020AE
:1007B0003060FFF74DFE05463068800305D4FFF733
:1007C00047FE401B6428F7D90AE1207880072CD522
:1007D000706810F00C0F07D0706800F00C0008284B
:1007E00009D17068C00306D43068800716D5206927
:1007F000012813D065E021699248002900F0B580F6
:1008000001210160FFF724FE05463068800705D40A
:10081000FFF71EFE401B0228F7D9E1E0606931684E
:1008200021F0F80141EAC0003060207800072ED5A1
:10083000A06978B183480121C0F88014FFF708FE51
:100840000546706A800715D4FFF702FE401B022898
:10085000F7D9C5E07B480021C0F88014FFF7F8FD08
:100860000546706A800712D5FFF7F2FD401B02288B
:10087000F7D9B5E074484FF4FA510068B0FBF1F0D5
:10088000019000BF0198411E00280191F9D1207804
:10089000400719D4E769002F00F0CE80706800F09F
:1008A0000C00082843D1012F0BD0216A706800F496
:1008B00080328A4205D1616A00F47010884200F0EB
:1008C000BB800120BDE8FC81F069C0000BD4F06959
:1008D0004FF0010840F08050F061F06900F0805066
:1008E0000090009801E04FF00008584F3868C005AC
:1008F0000FD4386840F480703860FFF7A9FD0546D2
:100900003868C00505D4FFF7A3FD401B6428F7D95C
:1009100066E0E068C8B3012805D0316A05284BD1EC
:1009200041F004003062306A40F001004AE045497D
:10093000002088460866FFF78BFD0546022F0AD186
:1009400047463068800157D5FFF782FD411B0320E1
:100950000229F6D971E0306880016DD5FFF778FD86
:10096000411B03200229F6D967E000210160FFF74F
:100970006FFD0546306880077FF557AFFFF768FDCC
:10098000411B03200229F5D957E0306A20F001000D
:100990003062306A20F004003062FFF759FD0546EE
:1009A00041F28837306A80071DD5FFF751FD411BA2
:1009B0000320B942F6D940E021F001003062306AEC
:1009C00020F004003062FFF743FD054641F288370E
:1009D000306A800707D4FFF73BFD401BB842F7D9C8
:1009E0000320BDE8FC81B8F1000F3FF453AFF0697C
:1009F00020F08050F0614DE7206AB0F5803F05D1CE
:100A0000A168726822F4003211437160616A084380
:100A1000716821F474110843706001203866FFF793
:100A200017FD04463068800106D4FFF711FD011B55
:100A300003200229F6D900E00020BDE8FC8100BFB8
:100A400000100240000042420800002000700040F8
:100A5000411E0020B0EB116F1CBF01207047044AFB
:100A6000F023516003490B700721906011607047BB
:100A700010E000E023ED00E058B310B5044690F814
:100A8000410028B9002084F84000204600F024F8F6
:100A9000242084F841002068C16821F40051C1601D
:100AA000204600F00BF92068016921F490410161B2
:100AB000416921F02A014161C16841F40051C160DE
:100AC00000202021606484F8411084F842106063A3
:100AD00010BD01207047000070B586B00026CDE93A
:100AE0000466CDE90266184C006804F5405188425E
:100AF00027D1D44802AD016841F48041016001680A
:100B000001F4804101910199016841F00401016003
:100B10000068294600F0040001900320059002209F
:100B200003904FF40070029001982046FFF7C2FB3B
:100B30004FF48060CDE90366029020462946FFF716
:100B4000B9FB06B070BD00BF000801402DE9F843B5
:100B5000044690F8410020281CBF0220BDE8F8831D
:100B60008846012000293FD01746EAB34FF000091C
:100B700021201D46C4F8449084F84100FFF768FC2A
:100B8000E784A7840646A068B0F5805F05D1276991
:100B9000002F0CBFC146474600E04746E08CB8B185
:100BA0002046802132462B4600F0C6F8F0B927B126
:100BB00017F8010B2168486006E039F8021B20682D
:100BC0006FF35F2141600027E08C0138E084E5E7A6
:100BD0002046402132462B4600F0AEF8202184F812
:100BE0004110002818BF0320BDE8F883202084F8B6
:100BF00041000320BDE8F883FEE7FEE7FEE770470B
:100C00007047FFF729BCB0B590B0002401A81421AB
:100C1000CDE90B44CDE90944FFF7D6FA4FF4E010D3
:100C20000F904FF48030022501210E900D950A910E
:100C30000894CDE9061006A8FFF772FD18B1EFF38E
:100C4000108072B6FEE74FF480600594CDE9034052
:100C50000F20CDE9010501A80221FFF781FC18B1A1
:100C6000EFF3108072B6FEE710B0B0BD70470168B8
:100C700051E8031F026821F4907142E80313002B2E
:100C8000F5D1016851E8051F026821F0010142E831
:100C90000513002BF5D1016B012909D1016851E839
:100CA000031F026821F0100142E80313002BF5D165
:100CB000202180F84210002101637047B0B504463E
:100CC000006804F108030ECB0569194325F440556B
:100CD0002A430261C268636941F20C65AA43194361
:100CE0001143C1604169A26921F44071114341611E
:100CF0005649884202D0FFF7D1FC01E0FFF7D8FC4B
:100D000019214843D4E900126FF063049200B0FB4C
:100D1000F2F06422B0FBF2F303FB0400322404EB94
:100D20000010B0FBF2F000F0F00202EB031200F052
:100D30000F0010448860B0BD2DE9FC4104460068F6
:100D40001D4690460F465E1C01683940B94226D0C8
:100D5000002EF9D0FFF77CFB01460320EDB1A1EB9B
:100D60000801A94219D82068C1684907ECD5402F6D
:100D700018BF802FE8D001680907E5D50025019547
:100D8000016801914068019001982046FFF76FFFCC
:100D9000082084F8405060640120BDE8FC810020F8
:100DA000BDE8FC81FEE7000010B5074C00F00F0322
:100DB0002344044AB0F1FF3FC8BF831808011870EC
:100DC00010BD00BF00E400E014ED00E082B0FFF7CA
:100DD0004DFBFFF718FF1B491C4D0868002240F02F
:100DE0002000086008680C2300F0200001900198A2
:100DF00008684FF4E13440F0040008601248C0E98C
:100E00000054C0E90222C0E90423C0E906220968AF
:100E100001F0040100910099FFF72EFE18B1EFF3E5
:100E2000108072B6FEE7084C09A5204629460B2221
:100E30004FF4FA73FFF78AFE4FF47A70FFF72AFA3D
:100E4000F3E700BF18100240700000200038014096
:100E500048656C6C6F204E616D200A000000000038
:100E6000000000000102030406070809000000005A
:100E700001020304980E000800000020100000008A
:100E800028010008A80E000810000020B00600008D
:100E900044010008000000000100000010000000F4
:080EA00000127A0000000000BE
:04000005080000ED02
:00000001FF
