:020000040800F2
:100000007007002091010008C9180008BF160008F9
:10001000C7180008DB040008431A000800000000AD
:10002000000000000000000000000000CD180008E3
:100030009905000800000000CB1800080519000809
:10004000AB010008AB010008AB010008AB010008E0
:10005000AB010008AB010008AB010008AB010008D0
:10006000AB010008AB010008AB010008AB010008C0
:10007000AB010008AB010008AB010008AB010008B0
:10008000AB010008AB010008AB010008AB010008A0
:10009000AB010008AB010008AB010008AB01000890
:1000A000AB010008AB010008AB010008AB01000880
:1000B000AB010008AB010008AB010008AB01000870
:1000C000AB010008AB010008AB010008AB01000860
:1000D000AB010008AB010008AB010008AB01000850
:1000E000AB010008AB010008AB01000800F002F80A
:1000F00000F03FF80AA090E8000C82448344AAF183
:100100000107DA4501D100F034F8AFF2090EBAE880
:100110000F0013F0010F18BFFB1A43F0010318473B
:10012000B81C0000D81C0000103A24BF78C878C161
:10013000FAD8520724BF30C830C144BF04680C60ED
:10014000704700000023002400250026103A28BF35
:1001500078C1FBD8520728BF30C148BF0B60704739
:10016000642900F07D80002070471FB51FBD10B5C9
:1001700010BD00F052F91146FFF7F7FF01F024FD22
:1001800000F070F903B4FFF7F2FF03BC00F078F958
:100190000948804709480047FEE7FEE7FEE7FEE71B
:1001A000FEE7FEE7FEE7FEE7FEE7FEE70448054957
:1001B000054A064B704700007D190008ED00000855
:1001C00070010020700700207003002070030020E1
:1001D0000FB41CB5074B06AA7B44694600900598EE
:1001E00000F003F90020694600F012F91CBC5DF82C
:1001F00014FB0000350200002DE9F0410E460446D4
:10020000002020622046E168884730B3252805D0C9
:10021000D4E901219047206A401CF2E7E1682046BA
:1002200000278847050018D0A5F14100192802D8F9
:1002300020354FF400673246294620462760FFF7F5
:100240008FFF40B1012804D0F61D26F007060836BE
:10025000D8E7361DD6E72846DAE7206ABDE8F08100
:100260002DE9F0410646002410687529314616A58F
:1002700010D0AFF30080002802DA404213A507E057
:1002800031688A0701D512A502E0490704D511A5F6
:10029000012401E0AFF3008000210A2206F12407C7
:1002A00009E0B0FBF2FCB0FBF2F302FB1C003030C3
:1002B00078541846491C0028F3D123462A46304674
:1002C000BDE8F04100F032B8000000002D00000051
:1002D0002B000000200000004FF0000200B5134684
:1002E00094469646203922BFA0E80C50A0E80C5056
:1002F000B1F12001BFF4F7AF090728BFA0E80C5007
:1003000048BF0CC05DF804EB890028BF40F8042BFF
:1003100008BF704748BF20F8022B11F0804F18BF6C
:1003200000F8012B70477047704770472DE9F04780
:100330000D4699469246044600F124080168880655
:1003400004D5E06921F01001216000E00120A842FD
:1003500001DD471B00E00027A1697A1902EB0900C3
:10036000081AA0612078C00602D42046AFF30080AE
:10037000002608E0D4E901211AF806009047206A17
:10038000401C761C20624E45F4DB2078C0060AD55E
:100390002046AFF3008006E0D4E9012130209047E9
:1003A000206A401C2062381EA7F10107F4DC07E038
:1003B000D4E9012118F805009047206A401C20620A
:1003C000281EA5F10105F3DC2046AFF3008020785C
:1003D000000602D50220BDE8F0870120FBE70000FF
:1003E00001694A1C02610878704700B58FB0CDE9F9
:1003F00001310021059105497944CDE903101146E9
:100400006846FFF7F9FE0FB000BD0000E5FFFFFFF3
:100410000A6802F8010B0A607047754600F02CF874
:10042000AE4605006946534620F00700854618B0E1
:1004300020B5FFF7BBFEBDE820404FF000064FF0AF
:1004400000074FF000084FF0000BAC46ACE8C009C5
:10045000ACE8C009ACE8C009ACE8C00921F007016C
:100460008D46704710B50446AFF300802046BDE8C6
:100470001040FFF787BE00000048704710000020C2
:1004800001491820ABBEFEE7260002007047B0B558
:10049000044600688168C9071DD0816821F0010108
:1004A000816000F0ABFA054620688068C00712D072
:1004B00000F0A4FA401B0328F6D320688068C00728
:1004C000F2D0A06A40F01000A062E06A40F00100A3
:1004D000E0620120B0BD0020B0BDFEE7B0B500F085
:1004E00035F8064CA047064D2870A0476870A04715
:1004F000A870A047E870A0472871B0BD05050008A6
:1005000070000020F8B5C64C00250026072E1AD82A
:100510002046012100F068FA0028F9D0322001F0CD
:10052000A3FA2046012100F05FFA0138B0FA80F00A
:1005300047092046012100F057FA0128F9D047EA7F
:1005400045050136E2E7E8B2F8BD00BF10B501F09D
:10055000CBF9B34C01212046012200F04AFA204693
:100560000121002200F045FA142000F05BF901F0AF
:10057000AFF92046012100F037FA0128F9D02046D2
:10058000012100F031FA0028F9D02046012100F0C5
:100590002BFA0128F9D010BD7047EFF3108072B626
:1005A000FEE70000F8B50022009290F82420012A0E
:1005B00001D1022161E0012280F824204C68062C40
:1005C0000DD80A6804EB8403053B1F2502FA03F4E7
:1005D00005FA03F603681D4655F8347F1BE00368EF
:1005E0000C2C0CD80A6804EB8404A4F123051F2604
:1005F00002FA05F4AE401D4655F8307F0BE00A685C
:1006000004EB8404A4F141051F2602FA05F4AE4070
:100610001D4655F82C7F27EA06063443092A2C602C
:100620001BD9896802EB42041E3C0725A14005FA4C
:1006300004F4DD6825EA04042143D96022F00101B5
:10064000102916D11A49A1F10804A34217D0816AD2
:1006500041F02001816201210CE0896802EB420235
:100660000724914004FA02F21C6924EA02021143B1
:1006700019610021002280F824200846F8BD0B688B
:100680001B02F6D40B68102A43F400030B60F0D170
:100690000849094A0968B1FBF2F101EB81014900FF
:1006A000009100990029E4D000990139F8E700BFD2
:1006B000082401400800002040420F00C0B370B57C
:1006C0000546044655F8280F30B9002084F8240068
:1006D000E062204600F07AF82046FFF7D8FEA26AD2
:1006E000A16A38BB12F0100024D141F2021021EAB5
:1006F00000000230A062D4E90101E269237B1043CB
:100700004A1EB2FA82F256090A46B1F5807F18BF36
:100710003202267D40EA4300012E16D173B1A36A4E
:1007200043F02003A362E36A43F00103E3620CE0B9
:100730000120704741F0100101203CE0A3691F4EE9
:1007400006EB43331A4342F400622368B1F5807F1D
:100750005E6826F4694642EA06025A609A68184EB4
:1007600002EA060242EA00029A6001D0012904D19D
:100770002169144A02EB015100E00021DA6A22F4F7
:1007800070021143D96299680F4A1140814206D123
:100790000020E062A16A012262F301010BE0A06A7D
:1007A00040F0100020F00200A06254F82C0F40F03E
:1007B000010101202546296070BD00BF00E0FFFF58
:1007C000FDF7E1FF0000F0FFFE0E1FFFFEB5014642
:1007D0000020CDE90400CDE902008048096800F559
:1007E000E052914219D176490A6842F400720A60D7
:1007F0000A6802F400720192019A0A6842F0040247
:100800000A60096801F004010191032103910121AB
:100810000291019902A900F017F806B080BD00BF4F
:1008200000080140B0B5044600F0E8F80546054868
:10083000611C007818BF044400F0E0F8401BA0429F
:10084000FAD3B0BD000000202DE9FC4F594A042323
:100850004FF0000B4FF001084FF00F0E4FF0000962
:100860000025904208BF032300930B6833FA05F27A
:1008700008BFBDE8FC8F08FA05F2134200F096802D
:100880004F68032F16D9112F24D0122F26D04D4B8D
:100890009F4213D04C4B9F4210D04C4B9F420DD0E7
:1008A0004B4B9F420AD04B4B9F4207D04A4B9F4233
:1008B00004D020E0DFE807F00216191D8B6833B181
:1008C000012B14BF426102614FF0080913E04FF0A1
:1008D000040910E0CB6803F104090CE0CB6803F1D4
:1008E0000C0908E0D1F80C9005E0CB6803F1080989
:1008F00001E04FF000095B460646082D28BF203B6B
:1009000028BF043637680EFA03F427EA040409FA0C
:1009100003F323433360CB79DB0647D5284B264EC0
:100920001C461B68A6F57E7643F00103236023680E
:100930000BF00C0C03F001030193019CAC0856F87A
:1009400024700EFA0CF327EA030A244B984208D0CD
:10095000234B984207D0234B9842009B08BF0223A9
:1009600002E0002300E0012303FA0CF343EA0A0348
:1009700046F824304F68104CFB02A36854BF9343E1
:1009800013430E4EA360BB02336854BF934313431B
:100990003360BB03636854BF934313436360FB033B
:1009A000236854BF23EA02021A4322600BF1040BAE
:1009B00001355AE700140140000401400C040140D5
:1009C0001810024000001110000012100000211049
:1009D0000000221000003110000032100008014019
:1009E000000C0140001001408068084018BF012041
:1009F0007047002A08BF090401617047E248006897
:100A0000704700BFF8B560B3044690F83D0028B9C0
:100A1000002084F83C00204600F080F9242084F86F
:100A20003D002068016821F001010160016841F486
:100A300000410160016821F40041016000F036FBD3
:100A400049494A4B002288424FF0000138BF01213A
:100A5000984238BF01226368454DAB4238BF0A4611
:100A60000AB10120F8BD4349434EB0FBF1F22168C1
:100A7000B3424D6825F03F0545EA02054D600D6A19
:100A800025F03F0511D801322A430A625A00013885
:100A9000B0FBF2F04CF6FF7301306FF31F30042807
:100AA00098BF0420CA699A4337E04FF496767243A0
:100AB0004FF47A76B2FBF6F2013801322A430A6229
:100AC000CA694CF6FF75AA43A56845B119265E436D
:100AD000B0FBF6F60427013667F31F3606E003EB9A
:100AE0004306B0FBF6F601366FF31F36360509D024
:100AF00055B119256B43B0FBF3F00423013063F3C8
:100B00001F3008E0012008E003EB4303B0FBF3F0E3
:100B100001306FF31F3040F400401043C861E069BA
:100B20000A6804F10C0622F0C0021043226A104346
:100B30000860886848F2FF3290436CCE1843104337
:100B40008860C86820F0FF0028433043C860086808
:100B500040F00100086000202021206484F83D104E
:100B6000206384F83E00F8BD80841E0000093D002B
:100B7000A186010040420F00A08601002DE9FC473C
:100B80001F46164689460446FFF738FF824694F80A
:100B90003D0020280ED1604D204605F57021012230
:100BA0001923CDF800A000F0CDFD18B994F83C0051
:100BB000012802D10220BDE8FC87012084F83C0016
:100BC00020680168C90703D1016841F00101016093
:100BD0000168A5F1021221F400610160212184F86D
:100BE0003D10102184F83E10002121646785618D3D
:100BF000E26266622185E16ADDF8288011F5803FB6
:100C000018BF01291BD1016841F4807101602046A1
:100C10004FF0011100224346CDF800A000F092FDF4
:100C200038B120680068C00544BF4FF400702064EC
:100C300024E02069B0F5804F07D1FE2013E0082999
:100C4000E1D0216B1229DED0E1E7062000EAD910BD
:100C50002168F0300861A91D20464246534600F045
:100C6000B8FD58B9FF20216800EA09000861204654
:100C700029464246534600F0ACFD10B10120BDE8C4
:100C8000FC870020019020684169019180690190F2
:100C90000198208D88B320464146524600F0E9FD78
:100CA00010BB606A2168024612F8013B0B61638D3C
:100CB000013B63856262228D561E26854B69360490
:100CC00018BF13F0040308D0437802300B61606250
:100CD000901E2085608D0138608520464146524631
:100CE00000F006FD0028D4D0206C0428C6D120686E
:100CF000016841F400710160C0E72068016841F4B7
:100D000000710160202084F83D00002084F83C0040
:100D100084F83E00BDE8FC870200010010B586B0F3
:100D20000021CDE90411CDE9021101681148814289
:100D30001DD13B4C00F53840216841F0080121608D
:100D4000216801F00801019103210591122103910D
:100D5000C0210291019902A9FFF776FD606840F475
:100D600000106060606800F400100190019806B007
:100D700010BD00BF005400401A48034900780A68BB
:100D800010440860704700BF6C01002080B5C44863
:100D9000016841F010010160032000F061F80F20AC
:100DA00000F004F800F020F8002080BD70B50D4E72
:100DB000044630784FF47A71B1FBF0F0C04909680D
:100DC000B1FBF0F000F042FB01250F2C08D838B938
:100DD0004FF0FF3021460022002500F025F8746016
:100DE000284670BD0000002082B00D480222016834
:100DF00041F001010160016801F0010101910199D7
:100E0000416841F080514160406800F0805000909E
:100E100000980448016862F31A61016002B07047EB
:100E20001810024004000140B0B5134B4FF0FF35DD
:100E30001B68C3F30223DC1E83F0070338BF0024C2
:100E4000042B28BF042305FA03F3994305FA04F39E
:100E5000A1409A431143BDE8B04000F0F3BD00BF8C
:100E600005494FF6FF030A681A4060F30A22034857
:100E700010430860704700BF0CED00E00000FA0569
:100E80002DE9FC41044600789C4EC00758D0B0695B
:100E9000C0000BD4B0694FF0010840F08050B06141
:100EA000B06900F080500190019801E04FF0000817
:100EB0002D4F3868C00511D4386840F48070386010
:100EC000FFF79CFD05463868C00507D4FFF796FD7F
:100ED000401B6428F7D90320BDE8FC81F06910F4B9
:100EE00040701FD0616801F4407188421AD01F49D8
:100EF000F06901220A6000220A6020F44071C007F4
:100F0000F1610FD0FFF77AFD054641F28837F069AD
:100F1000800707D4FFF772FD411B0320B942F6D9C1
:100F2000BDE8FC816068F169B8F1000F21F44071FF
:100F300040EA0100F06103D0B06920F08050B06158
:100F40002068810705D5A168326822F44042114328
:100F50003160C00605D5E068316821F4800108439E
:100F600030600020BDE8FC81007000404004424237
:100F70002DE9F843002800F090808846484904464F
:100F8000086800F0070040450AD2086820F0070012
:100F900040EA08000860086800F0070040457CD17E
:100FA0002068564B8946810711D5410703D519683A
:100FB00041F4E0611960010703D5196841F46051FB
:100FC0001960A1681A6822F0F00211431960C00785
:100FD0002BD06068012804D153F8041C890309D47C
:100FE0005BE053F8041C022802D1890102D454E0CA
:100FF000890752D519681D4621F00301084318607E
:10100000FFF7FCFC064641F28837606829682B46EA
:1010100001F00C01B1EB800F07D0FFF7EFFC801B54
:10102000B842F2D90320BDE8F883D9F8000000F0F7
:10103000070040450DD9D9F8000020F0070040EA2C
:101040000800C9F80000D9F8000000F0070040458A
:1010500023D12068410705D5E1681A6822F4E062CF
:1010600011431960000706D52069196821F4605101
:1010700041EAC00018601C4600F026F82168094AC1
:10108000C1F30311515CC840EE490860064800688E
:10109000FFF78CFE0020BDE8F8830120BDE8F8834F
:1010A00000200240C01D000804000020E54813494C
:1010B00000680968034AC1F30221515CC8407047C7
:1010C00008000020D01D000810B50C490C480A6823
:1010D00002F00C03082B07D1C2F3834309A4E35C9D
:1010E000D20302D40C48584310BD096809A2C1F3C9
:1010F0004041515C5843B0FBF1F010BD0410024078
:1011000000127A0002030405060708090A0B0C0DF9
:101110000E0F10100102000000093D002DE9FC41F6
:10112000002800F0CC8004460078C44EC0074AD0A6
:10113000706800F00C00042817D0706800F00C00F4
:10114000082802D17068C0030FD4606898B1B0F568
:10115000803F06D03168B0F5A02F21D141F4802026
:101160003060306840F4803020E0306880032AD559
:10117000606840BBA3E0306820F4803030603068A5
:1011800020F480203060FFF739FC0546306880038A
:1011900019D5FFF733FC411B03206429F6D94AE136
:1011A00021F480303060306820F480203060FFF718
:1011B00025FC05463068800305D4FFF71FFC401B63
:1011C0006428F7D90AE1207880072CD5706810F0E0
:1011D0000C0F07D0706800F00C00082809D1706867
:1011E000C00306D43068800716D52069012813D0C3
:1011F00065E021699248002900F0B5800121016075
:10120000FFF7FCFB05463068800705D4FFF7F6FBC7
:10121000401B0228F7D9E1E06069316821F0F8014C
:1012200041EAC0003060207800072ED5A06978B16F
:1012300083480121C0F88014FFF7E0FB0546706A7F
:10124000800715D4FFF7DAFB401B0228F7D9C5E069
:101250007B480021C0F88014FFF7D0FB0546706A78
:10126000800712D5FFF7CAFB401B0228F7D9B5E06B
:1012700074484FF4FA510068B0FBF1F0019000BFE0
:101280000198411E00280191F9D12078400719D416
:10129000E769002F00F0CE80706800F00C0008288D
:1012A00043D1012F0BD0216A706800F480328A424A
:1012B00005D1616A00F47010884200F0BB80012003
:1012C000BDE8FC81F069C0000BD4F0694FF0010863
:1012D00040F08050F061F06900F08050009000987C
:1012E00001E04FF00008584F3868C0050FD4386847
:1012F00040F480703860FFF781FB05463868C00510
:1013000005D4FFF77BFB401B6428F7D966E0E06853
:10131000C8B3012805D0316A05284BD141F004003B
:101320003062306A40F001004AE0454900208846BA
:101330000866FFF763FB0546022F0AD1474630686F
:10134000800157D5FFF75AFB411B03200229F6D92C
:1013500071E0306880016DD5FFF750FB411B032021
:101360000229F6D967E000210160FFF747FB054637
:10137000306880077FF557AFFFF740FB411B032024
:101380000229F5D957E0306A20F001003062306A56
:1013900020F004003062FFF731FB054641F2883748
:1013A000306A80071DD5FFF729FB411B0320B94296
:1013B000F6D940E021F001003062306A20F00400EC
:1013C0003062FFF71BFB054641F28837306A800721
:1013D00007D4FFF713FB401BB842F7D90320BDE841
:1013E000FC81B8F1000F3FF453AFF06920F080505A
:1013F000F0614DE7206AB0F5803F05D1A1687268C1
:1014000022F4003211437160616A0843716821F46B
:1014100074110843706001203866FFF7EFFA044644
:101420003068800106D4FFF7E9FA011B0320022986
:10143000F6D900E00020BDE8FC8100BF00100240AA
:10144000000042420800002000700040411E0020C1
:10145000B0EB116F1CBF01207047044AF0235160AC
:1014600003490B70072190601160704710E000E0A5
:1014700023ED00E010B590F83C300222012B24D07F
:1014800080F83D20012280F83C2002680B685468F7
:10149000B2F1804F24F0700444EA0304936854606E
:1014A00008D03C4CA24205D03B4CA24202D03B4C5F
:1014B000A24204D1496823F08003194391600022BD
:1014C000012180F83C2080F83D10104610BD00BF7F
:1014D00040B310B5044690F83D0028B9002084F8C8
:1014E0003C00204600F020F8022084F83D002068EF
:1014F000211D00F045FA012084F8460084F83E00E2
:1015000084F83F0084F8400084F8410084F84200E9
:1015100084F8430084F8440084F8450084F83D00D2
:10152000002010BD0120704781B000681A49884230
:1015300009D10648016841F400610160006800F4C7
:1015400000600090009801B0704700BF1810024082
:1015500090F83D1001291CBF01207047022180F83E
:101560003D100068B0F1804F08D00A49884205D08C
:101570000949884202D00949884204D1816801F0B2
:101580000701062903D0016841F001010160002034
:10159000704700BF00040040002C014000080040DC
:1015A000016841F211130A6A1A4208D10A6A40F22C
:1015B00044431A4203D10A6822F001020A60012161
:1015C00080F83D100020704710B590F83C2004468C
:1015D0000220012A70D084F83D00012084F83C00EC
:1015E00020684FF6777382689A4382600A6812B364
:1015F000102A20D0202A1ED0302A1CD0402A21D0E8
:10160000502A2BD0602A35D0B2F5005F3ED0B2F51B
:10161000805F4AD0702A50D1D1E90123C9681A43AA
:1016200042EA0121826822F47F421143816081688D
:1016300041F0770138E0816821F07001114341F0F9
:10164000070131E04B68CA68194600F0D7F92068F5
:10165000816841F0470121F0300125E04B68CA68FC
:10166000194600F0CBF92068816841F0570121F05C
:10167000200119E04B68CA68194600F0D0F92068CB
:10168000816841F0670121F010010DE0D1E90123EB
:10169000C9681A4342EA0121826822F47F42114359
:1016A0008160816841F4804181600020002184F8DC
:1016B0003C10012184F83D1010BD0120F6E7FEE743
:1016C0000268516949054FF000010FD56FF480633E
:1016D00053612022016380F83D2080F83E1080F89D
:1016E0003C10016C41F0040101640121084670477F
:1016F000F8B515460E4604464F1C20684069400761
:101700001ED42046FFF7DCFFC0B9002FF5D0FFF74D
:1017100075F916B1401BB042EFD920684069400707
:10172000EBD400202021206384F83D1084F83E0093
:1017300084F83C00206C40F0200020640120F8BDBB
:101740000020F8BD2DE9F047DDF8209098461646B8
:1017500004468FB201F47F0503F1010A1820B5F5A4
:10176000803F08BF1420216808583840C01BB0FAD9
:1017700080F04009B04229D1BAF1000FEED0FFF756
:101780003DF9B8F1000F03D0A0EB09004045E5D9C1
:101790001820B5F5803F08BF14202168085838404C
:1017A000C01BB0FA80F04009B042D7D10020202100
:1017B000206384F83D1084F83E0084F83C00206CDF
:1017C00040F0200020640120BDE8F0870020BDE843
:1017D000F0872DE9F8439846914604468FB201F40C
:1017E0007F05561C2068B5F5803F0CBF41698169B3
:1017F0003940B94223D04169490523D4002EF1D0A4
:10180000FFF7FCF8B9F1000F03D0A0EB0800484542
:10181000E8D92068B5F5803F0CBF40698069384041
:10182000B842DFD000202021206384F83D1084F8E6
:101830003E0084F83C00206C40F0200015E00020C1
:10184000BDE8F883016841F4007101606FF48061C4
:10185000416100202021206384F83D1084F83E007F
:1018600084F83C00206C40F0040020640120BDE8B6
:10187000F883F8B515460E4604464F1C20684069AB
:1018800000061ED42046FFF71BFFC0B9002FF5D07D
:10189000FFF7B4F816B1401BB042EFD92068406999
:1018A0000006EBD400202021206384F83D1084F84A
:1018B0003E0084F83C00206C40F0200020640120B1
:1018C000F8BD0020F8BDFEE7FEE770477047000056
:1018D000F8B5012000210290CDE9000108480391EC
:1018E0006946FEF7B1FF8FBDF8B5022003900120D5
:1018F0000290CDE9000002486946FEF7A5FF8FBDC2
:1019000000080140FFF738BAB0B594B0002405A82C
:101910001421CDE90F44CDE90D44FEF7DDFC4FF471
:10192000E01013904FF480300225012112901195A0
:101930000E910C94CDE90A100AA8CDE90344CDE933
:101940000144FFF7EBFBB8B94FF480600994CDE98F
:1019500007400F20CDE9050505A80221FFF708FB88
:1019600050B94FF4004003900220019001A8FFF706
:1019700087FA08B914B0B0BDFEF70FFE704700003B
:1019800070B503681A4AB0F1804F07D0194CA042D5
:1019900004D0904202D0184CA04203D14C6823F0EE
:1019A00070032343B0F1804F07D0124CA04204D003
:1019B000904202D0104CA04203D1CC6823F4407373
:1019C00023434E690C688D6823F0800333439042B3
:1019D0000360C562846201D109691163012141611B
:1019E0000169C90703D0016921F00101016170BDDE
:1019F000002C0140000400400008004010B5036ABC
:101A0000046A24F001040462846924F0F00444EAC6
:101A10000212826123F00A021143016210BD10B567
:101A2000036A046A24F010040462846924F4704494
:101A300044EA0232826123F0A00242EA011101620B
:101A400010BDFEE710B5074C00F00F032344044A15
:101A5000B0F1FF3FC8BF83180801187010BD00BF68
:101A600000E400E014ED00E0B0B5C94D044628469E
:101A7000FFF76EFD286800214162416AA142FCD354
:101A8000C348BDE8B040FFF78BBD00BFB0B58021B3
:101A9000044600F060F850252DB12046202100F0CA
:101AA00076F8013DF8E7B0BD032A88BF7047DFE84C
:101AB00002F0020A06086FF07F02514004E06C3920
:101AC00002E02C3900E04039C9B200F044B800000F
:101AD00070B5194D04463220A847184E20463021D3
:101AE000B0470520A84720463021B0470120A8472D
:101AF00020463021B0470A20A84720462021B04781
:101B00000A20A84720462821B0470120A8472046A0
:101B10000821B0470120A84720460121B0470220F4
:101B2000A84720460621B0470120A84720460C219F
:101B30003246BDE87040104725080008571B0008D2
:101B4000B0B50C460546217821B1284600F01FF8B3
:101B50000134F8E7B0BDE0B50A0102F108030C3228
:101B600001F0F0018DF807308DF8062001F1080230
:101B70000C318DF805208DF804100368017964207C
:101B8000009001AA18460423FEF7F8FF8CBDE0B5CB
:101B90000A0102F109030D3201F0F0018DF807305E
:101BA0008DF8062001F109020D318DF805208DF820
:101BB0000410036801796420009001AA18460423E8
:101BC000FEF7DCFF8CBD000086B0FFF7DFF8FFF703
:101BD0009BFE00276B4805970168002241F0200119
:101BE000016001684FF0040801F0200100910099A4
:101BF000016841F004010160016801F004010091F5
:101C00000099016841F0080101600068042100F0BA
:101C10000800009000985C4800F534448146204656
:101C2000FEF7E7FE02AD022620462946CDE90377FE
:101C30000296FEF709FECDE90476012620462946E4
:101C4000CDE90286FEF700FEDFF8408109F550413C
:101C5000404640F8301F4FF460214C46C161077583
:101C600007730661C0E901770497CDE90277FEF7B3
:101C700025FD002840F0848008F1300002A9049777
:101C8000CDE90276FEF78EFC002879D1404800218C
:101C90004FF6FF724723264604F55844C0E9004337
:101CA000C0E90212C0E904118161CDE90411CDE956
:101CB0000211CDE90011FFF70BFC002860D14FF4B1
:101CC00080500290324802A9FFF77EFC002857D1CD
:101CD0002F4800256946CDE90055FFF7CBFB0028CA
:101CE0004ED12C4C2C494FF48040C4E90061C4E92A
:101CF0000255C4E904052046C4E906552562FEF7ED
:101D000081FEE8BB454645F8084F4E20287128461D
:101D1000FFF7DEFE2846FFF7B9FE28460021002225
:101D2000FFF7C2FE08F110041CA508F1080620A761
:101D3000FEF7D4FB98F8022020462946FEF748FA21
:101D4000304600210122FFF7AFFE30462146FFF763
:101D5000F7FE1420FEF766FD98F80020204639466D
:101D6000FEF736FA304600210022FFF79DFE30468E
:101D70002146FFF7E5FE4FF47A70FEF753FDD7E7F3
:101D8000FEF70BFC181002400054004070000020C9
:101D900024010020D0000020A08601004E68696563
:101DA0007420646F3A202564204320200000000046
:101DB000446F20616D3A20256420252520200000F5
:101DC00000000000000000000102030406070809EB
:101DD0000000000001020304F81D000800000020BC
:101DE0001000000028010008081E00081000002054
:101DF000600700004401000801000000100000001E
:081E000000127A00000000004E
:04000005080000ED02
:00000001FF
