:020000040800F2
:10000000C006002089010008DB0D0008D70D00089C
:10001000D90D00088F020008170F0008000000002B
:10002000000000000000000000000000DF0D0008DC
:100030009102000800000000DD0D0008E10D00083D
:10004000A3010008A3010008A3010008A301000800
:10005000A3010008A3010008A3010008A3010008F0
:10006000A3010008A3010008A3010008A3010008E0
:10007000A3010008A3010008A3010008A3010008D0
:10008000A3010008A3010008A3010008A3010008C0
:10009000A3010008A3010008A3010008A3010008B0
:1000A000A30100084D0E0008A3010008A3010008E9
:1000B000A3010008A3010008A3010008A301000890
:1000C000A3010008A3010008A3010008A301000880
:1000D000A3010008A3010008A3010008A301000870
:1000E000A3010008A3010008A301000800F002F822
:1000F00000F03AF80AA090E8000C82448344AAF188
:100100000107DA4501D100F02FF8AFF2090EBAE885
:100110000F0013F0010F18BFFB1A43F0010318473B
:10012000E80E0000080F0000103A24BF78C878C11C
:10013000FAD8520724BF30C830C144BF04680C60ED
:10014000704700000023002400250026103A28BF35
:1001500078C1FBD8520728BF30C148BF0B60704739
:100160001FB51FBD10B510BD00F058F81146FFF7C0
:10017000F7FF00F0E3FE00F076F803B4FFF7F2FFBC
:1001800003BC00F07DF8000009488047094800479B
:10019000FEE7FEE7FEE7FEE7FEE7FEE7FEE7FEE737
:1001A000FEE7FEE704480549054A064B7047000094
:1001B000490E0008ED000008C0000020C006002025
:1001C000C0020020C00200204FF0000200B513461C
:1001D00094469646203922BFA0E80C50A0E80C5067
:1001E000B1F12001BFF4F7AF090728BFA0E80C5018
:1001F00048BF0CC05DF804EB890028BF40F8042B11
:1002000008BF704748BF20F8022B11F0804F18BF7D
:1002100000F8012B7047704770477047754600F033
:100220002BF8AE4605006946534620F00700854688
:1002300018B020B5FFF7B6FFBDE820404FF000062C
:100240004FF000074FF000084FF0000BAC46ACE851
:10025000C009ACE8C009ACE8C009ACE8C00921F0AD
:1002600007018D46704710B50446AFF30080204665
:10027000BDE81040FFF781BF004870471000002024
:1002800001491820ABBEFEE7260002007047FEE7DA
:10029000704700002DE9FC4F594A04234FF0000B32
:1002A0004FF001084FF00F0E4FF00009002590426B
:1002B00008BF032300930B6833FA05F208BFBDE8BB
:1002C000FC8F08FA05F2134200F096804F68032F66
:1002D00016D9112F24D0122F26D04C4B9F4213D069
:1002E0004B4B9F4210D04B4B9F420DD04A4B9F42ED
:1002F0000AD04A4B9F4207D0494B9F4204D020E08E
:10030000DFE807F00216191D8B6833B1012B14BF0B
:10031000426102614FF0080913E04FF0040910E058
:10032000CB6803F104090CE0CB6803F10C0908E089
:10033000D1F80C9005E0CB6803F1080901E04FF01B
:1003400000095B460646082D28BF203B28BF04361F
:1003500037680EFA03F427EA040409FA03F3234387
:100360003360CB79DB0647D5644B264E1C461B68B1
:10037000A6F57E7643F00103236023680BF00C0C96
:1003800003F001030193019CAC0856F824700EFAA7
:100390000CF327EA030A234B984208D0224B9842D9
:1003A00007D0224B9842009B08BF022302E00023A3
:1003B00000E0012303FA0CF343EA0A0346F8243071
:1003C0004F68104CFB02A36854BF934313430E4E77
:1003D000A360BB02336854BF934313433360BB0332
:1003E000636854BF934313436360FB03236854BFA4
:1003F00023EA02021A4322600BF1040B01355AE78B
:1004000000140140000401400C04014000001110E0
:100410000000121000002110000022100000311016
:100420000000321000080140000C014000100140A3
:10043000C26802EA0103914341EA03410161704746
:10044000002A08BF090401617047000005480068E0
:10045000704700BF1A48034900780A6810440860D2
:10046000704700BFB800002080B58F48016841F098
:1004700010010160032000F06FF80F2000F004F875
:1004800000F020F8002080BD70B50D4E0446307895
:100490004FF47A71B1FBF0F085490968B1FBF0F0D7
:1004A00000F0CCFA01250F2C08D838B94FF0FF30F6
:1004B00021460022002500F033F87460284670BD04
:1004C0000000002082B00D480222016841F00101C5
:1004D0000160016801F0010101910199416841F059
:1004E00080514160406800F08050009000980448BE
:1004F000016862F31A61016002B07047181002408F
:1005000004000140002808D400F01F01012202FA73
:1005100001F1024A400942F82010704700E100E072
:10052000B0B5134B4FF0FF351B68C3F30223DC1E3D
:1005300083F0070338BF0024042B28BF042305FAE7
:1005400003F3994305FA04F3A1409A431143BDE82C
:10055000B04000F0E1BC00BF05494FF6FF030A6858
:100560001A4060F30A22034810430860704700BF36
:100570000CED00E00000FA052DE9F843002800F03A
:100580009080884648490446086800F007004045C6
:100590000AD2086820F0070040EA080008600868EE
:1005A00000F0070040457CD12068504B8946810708
:1005B00011D5410703D5196841F4E06119600107BD
:1005C00003D5196841F460511960A1681A6822F0D6
:1005D000F00211431960C0072BD06068012804D1D4
:1005E00053F8041C890309D45BE053F8041C022867
:1005F00002D1890102D454E0890752D519681D46F9
:1006000021F0030108431860FFF720FF064641F27E
:100610008837606829682B4601F00C01B1EB800F28
:1006200007D0FFF713FF801BB842F2D90320BDE8C3
:10063000F883D9F8000000F0070040450DD9D9F83B
:10064000000020F0070040EA0800C9F80000D9F8CF
:10065000000000F00700404523D12068410705D580
:10066000E1681A6822F4E06211431960000706D5B8
:100670002069196821F4605141EAC00018601C46E5
:1006800000F01AF82168094AC1F30311515CC8400F
:10069000E849086007480068FFF7F6FE0020BDE85B
:1006A000F8830120BDE8F88300200240F80F00081D
:1006B000080000200400002010B50C490C480A680E
:1006C00002F00C03082B07D1C2F3834309A4E35CB7
:1006D000D20302D40C48584310BD096809A2C1F3E3
:1006E0004041515C5843B0FBF1F010BD0410024092
:1006F00000127A0002030405060708090A0B0C0D14
:100700000E0F10100102000000093D002DE9FC4110
:10071000002800F0CC8004460078C44EC0074AD0C0
:10072000706800F00C00042817D0706800F00C000E
:10073000082802D17068C0030FD4606898B1B0F582
:10074000803F06D03168B0F5A02F21D141F4802040
:100750003060306840F4803020E0306880032AD573
:10076000606840BBA3E0306820F4803030603068BF
:1007700020F480203060FFF769FE05463068800372
:1007800019D5FFF763FE411B03206429F6D94AE11E
:1007900021F480303060306820F480203060FFF732
:1007A00055FE05463068800305D4FFF74FFE401B19
:1007B0006428F7D90AE1207880072CD5706810F0FA
:1007C0000C0F07D0706800F00C00082809D1706881
:1007D000C00306D43068800716D52069012813D0DD
:1007E00065E021699248002900F0B580012101608F
:1007F000FFF72CFE05463068800705D4FFF726FE7C
:10080000401B0228F7D9E1E06069316821F0F80166
:1008100041EAC0003060207800072ED5A06978B189
:1008200083480121C0F88014FFF710FE0546706A66
:10083000800715D4FFF70AFE401B0228F7D9C5E050
:100840007B480021C0F88014FFF700FE0546706A5F
:10085000800712D5FFF7FAFD401B0228F7D9B5E053
:1008600074484FF4FA510068B0FBF1F0019000BFFA
:100870000198411E00280191F9D12078400719D430
:10088000E769002F00F0CE80706800F00C000828A7
:1008900043D1012F0BD0216A706800F480328A4264
:1008A00005D1616A00F47010884200F0BB8001201D
:1008B000BDE8FC81F069C0000BD4F0694FF001087D
:1008C00040F08050F061F06900F080500090009896
:1008D00001E04FF00008584F3868C0050FD4386861
:1008E00040F480703860FFF7B1FD05463868C005F8
:1008F00005D4FFF7ABFD401B6428F7D966E0E0683C
:10090000C8B3012805D0316A05284BD141F0040055
:100910003062306A40F001004AE0454900208846D4
:100920000866FFF793FD0546022F0AD14746306857
:10093000800157D5FFF78AFD411B03200229F6D914
:1009400071E0306880016DD5FFF780FD411B032009
:100950000229F6D967E000210160FFF777FD05461F
:10096000306880077FF557AFFFF770FD411B03200C
:100970000229F5D957E0306A20F001003062306A70
:1009800020F004003062FFF761FD054641F2883730
:10099000306A80071DD5FFF759FD411B0320B9427E
:1009A000F6D940E021F001003062306A20F0040006
:1009B0003062FFF74BFD054641F28837306A800709
:1009C00007D4FFF743FD401BB842F7D90320BDE829
:1009D000FC81B8F1000F3FF453AFF06920F0805074
:1009E000F0614DE7206AB0F5803F05D1A1687268DB
:1009F00022F4003211437160616A0843716821F486
:100A000074110843706001203866FFF71FFD04462B
:100A10003068800106D4FFF719FD011B032002296D
:100A2000F6D900E00020BDE8FC8100BF00100240C4
:100A3000000042420800002000700040411E0020DB
:100A4000B0EB116F1CBF01207047044AF0235160C6
:100A500003490B70072190601160704710E000E0BF
:100A600023ED00E07047704710B590F83C3002224B
:100A7000012B24D080F83D20012280F83C20026820
:100A80000B685468B2F1804F24F0700444EA030408
:100A90009368546008D0424CA24205D0414CA24217
:100AA00002D0414CA24204D1496823F0800319438B
:100AB00091600022012180F83C2080F83D10104612
:100AC00010BD00BF40B310B5044690F83D0028B9F2
:100AD000002084F83C00204600F020F8022084F832
:100AE0003D002068211D00F0B5F9012084F8460082
:100AF00084F83E0084F83F0084F8400084F8410008
:100B000084F8420084F8430084F8440084F84500E7
:100B100084F83D00002010BD01207047E0B500685A
:100B2000E849884218BF8CBD09480022016841F499
:100B3000006101600068012100F4006001900198EB
:100B40001920FFF7EDFC1920BDE88C40FFF7DABC57
:100B50001810024090F83D1001291CBF0120704779
:100B6000022180F83D100068C168B0F1804F41F06B
:100B70000101C16008D0D449884205D0D1498842DA
:100B800002D0D249884204D1816801F007010629C8
:100B900003D0016841F0010101600020704700BFEF
:100BA00000040040002C01400008004010B590F8FF
:100BB0003C2004460220012A70D084F83D00012028
:100BC00084F83C0020684FF6777382689A4382600D
:100BD0000A6812B3102A20D0202A1ED0302A1CD036
:100BE000402A21D0502A2BD0602A35D0B2F5005FA0
:100BF0003ED0B2F5805F4AD0702A50D1D1E90123AE
:100C0000C9681A4342EA0121826822F47F421143F3
:100C10008160816841F0770138E0816821F07001DE
:100C2000114341F0070131E04B68CA68194600F0F2
:100C30004FF92068816841F0470121F0300125E03B
:100C40004B68CA68194600F043F92068816841F092
:100C5000570121F0200119E04B68CA68194600F0DD
:100C600048F92068816841F0670121F010010DE02A
:100C7000D1E90123C9681A4342EA0121826822F4BA
:100C80007F4211438160816841F48041816000208E
:100C9000002184F83C10012184F83D1010BD012092
:100CA000F6E77047B0B504460068C168026902EA19
:100CB0000105A90713D56FF0020101610121217718
:100CC0008069800703D02046FFF7EBFF05E0204650
:100CD00000F073F8204600F071F8002020776807D4
:100CE00015D520686FF00401016102212177806928
:100CF00010F4407F03D02046FFF7D3FF05E02046E5
:100D000000F05BF8204600F059F800202077280713
:100D100014D520686FF00801016104212177C069B2
:100D2000800703D02046FFF7BCFF05E0204600F017
:100D300044F8204600F042F800202077E80615D558
:100D400020686FF01001016108212177C06910F45B
:100D5000407F03D02046FFF7A4FF05E0204600F0C7
:100D60002CF8204600F02AF800202077E80706D06B
:100D700020686FF001010161204600F021F828068B
:100D800006D520686FF0800101612046FFF76AFEFA
:100D9000680606D520686FF040010161204600F02A
:100DA00019F8A80658BFB0BD20686FF02001016196
:100DB0002046BDE8B040FFF756BE704770470000C0
:100DC0008C4900680968884218BF7047884802212A
:100DD000FFF72EBB7047FEE7FEE7FEE77047704760
:100DE000FFF738BB70B590B006AC201D1821FFF797
:100DF000EBF901A81421FFF7E7F94FF460100F9009
:100E00000026022510200E960D950B9001200A90C9
:100E100020460695FFF77AFC18B1EFF3108072B602
:100E2000FEE74FF480600596CDE903600F20CDE921
:100E3000010501A80221FFF79FFB18B1EFF3108015
:100E400072B6FEE710B070BD704700006948FFF74A
:100E500029BF00BF70B503681A4AB0F1804F07D0B0
:100E6000194CA04204D0904202D0184CA04203D1A9
:100E70004C6823F070032343B0F1804F07D0124C2D
:100E8000A04204D0904202D0104CA04203D1CC68C2
:100E900023F4407323434E690C688D6823F080036C
:100EA000334390420360C562846201D109691163D2
:100EB000012141610169C90703D0016921F00101E4
:100EC000016170BD002C014000040040000800409A
:100ED00010B5036A046A24F001040462846924F0F2
:100EE000F00444EA0212826123F00A021143016213
:100EF00010BD10B5036A046A24F01004046284690A
:100F000024F4704444EA0232826123F0A00242EAEF
:100F10000111016210BDFEE710B5074C00F00F0390
:100F20002344044AB0F1FF3FC8BF8318080118707A
:100F300010BD00BF00E400E014ED00E086B0FFF754
:100F400093FAFFF74FFF2948294C0168002241F02E
:100F5000040101600068022100F004000290029880
:100F6000204602260025FFF76BFA0120CDE9045642
:100F7000CDE9026002A92046FFF78CF91D4840F236
:100F8000F3114FF6FF1204F51053C0E90032C0E927
:100F90000251C0E904558561CDE90455CDE90255FA
:100FA000CDE90055FFF78EFD18B1EFF3108072B652
:100FB000FEE74FF4805002900E4802A9FFF7F6FDBD
:100FC00018B1EFF3108072B6FEE70020CDE9000003
:100FD00008486946FFF748FD18B1EFF3108072B674
:100FE000FEE70448FFF7B6FDFEE700BF1810024019
:100FF0000008014070000020000000000000000018
:101000000102030406070809281000080000002058
:10101000100000002801000838100008100000200F
:10102000B0060000440100080100000010000000AC
:0810300000127A00000000002C
:04000005080000ED02
:00000001FF
