:020000040800F2
:10000000C006002089010008050E0008010E000846
:10001000030E00088F0200088F1000080000000087
:10002000000000000000000000000000090E0008B1
:100030009102000800000000070E0008150E0008DD
:10004000A3010008A3010008A3010008A301000800
:10005000A3010008A3010008A3010008A3010008F0
:10006000A3010008A3010008A3010008A3010008E0
:10007000A3010008A3010008A3010008A3010008D0
:10008000A3010008A3010008A3010008A3010008C0
:10009000A3010008A3010008A3010008A3010008B0
:1000A000A3010008A3010008A3010008A3010008A0
:1000B000A3010008A3010008A3010008A301000890
:1000C000A3010008A3010008A3010008A301000880
:1000D000A3010008A3010008A3010008A301000870
:1000E000A3010008A3010008A301000800F002F822
:1000F00000F03AF80AA090E8000C82448344AAF188
:100100000107DA4501D100F02FF8AFF2090EBAE885
:100110000F0013F0010F18BFFB1A43F0010318473B
:1001200080100000A0100000103A24BF78C878C1E9
:10013000FAD8520724BF30C830C144BF04680C60ED
:10014000704700000023002400250026103A28BF35
:1001500078C1FBD8520728BF30C148BF0B60704739
:100160001FB51FBD10B510BD00F058F81146FFF7C0
:10017000F7FF00F09FFF00F076F803B4FFF7F2FFFF
:1001800003BC00F07DF8000009488047094800479B
:10019000FEE7FEE7FEE7FEE7FEE7FEE7FEE7FEE737
:1001A000FEE7FEE704480549054A064B7047000094
:1001B000710E0008ED000008C0000020C0060020FD
:1001C000C0020020C00200204FF0000200B513461C
:1001D00094469646203922BFA0E80C50A0E80C5067
:1001E000B1F12001BFF4F7AF090728BFA0E80C5018
:1001F00048BF0CC05DF804EB890028BF40F8042B11
:1002000008BF704748BF20F8022B11F0804F18BF7D
:1002100000F8012B7047704770477047754600F033
:100220002BF8AE4605006946534620F00700854688
:1002300018B020B5FFF7B6FFBDE820404FF000062C
:100240004FF000074FF000084FF0000BAC46ACE851
:10025000C009ACE8C009ACE8C009ACE8C00921F0AD
:1002600007018D46704710B50446AFF30080204665
:10027000BDE81040FFF781BF004870471000002024
:1002800001491820ABBEFEE7260002007047FEE7DA
:100290007047EFF3108072B6FEE70000B0B5044679
:1002A00000F0DAF805468948611C007818BF04445C
:1002B00000F0D2F8401BA042FAD3B0BD2DE9FC4FAC
:1002C000594A04234FF0000B4FF001084FF00F0E76
:1002D0004FF000090025904208BF032300930B68EC
:1002E00033FA05F208BFBDE8FC8F08FA05F21342A5
:1002F00000F096804F68032F16D9112F24D0122FAB
:1003000026D04C4B9F4213D04B4B9F4210D04B4BAF
:100310009F420DD04A4B9F420AD04A4B9F4207D082
:10032000494B9F4204D020E0DFE807F00216191D78
:100330008B6833B1012B14BF426102614FF0080991
:1003400013E04FF0040910E0CB6803F104090CE05E
:10035000CB6803F10C0908E0D1F80C9005E0CB68FC
:1003600003F1080901E04FF000095B460646082D3D
:1003700028BF203B28BF043637680EFA03F427EA6B
:10038000040409FA03F323433360CB79DB0647D532
:100390005D4B264E1C461B68A6F57E7643F0010396
:1003A000236023680BF00C0C03F001030193019C04
:1003B000AC0856F824700EFA0CF327EA030A234B14
:1003C000984208D0224B984207D0224B9842009B7B
:1003D00008BF022302E0002300E0012303FA0CF32C
:1003E00043EA0A0346F824304F68104CFB02A36826
:1003F00054BF934313430E4EA360BB02336854BFF4
:10040000934313433360BB03636854BF9343134365
:100410006360FB03236854BF23EA02021A4322608D
:100420000BF1040B01355AE70014014000040140B0
:100430000C040140000011100000121000002110F7
:1004400000002210000031100000321000080140AE
:10045000000C01400010014005480068704700BFD3
:100460001A48034900780A6810440860704700BFC2
:10047000B800002080B58848016841F01001016093
:10048000032000F061F80F2000F004F800F020F8DD
:10049000002080BD70B50D4E044630784FF47A715F
:1004A000B1FBF0F07E490968B1FBF0F000F0BEFA54
:1004B00001250F2C08D838B94FF0FF302146002213
:1004C000002500F025F87460284670BD000000206B
:1004D00082B00D480222016841F00101016001680B
:1004E00001F0010101910199416841F080514160A1
:1004F000406800F08050009000980448016862F362
:100500001A61016002B070471810024004000140F7
:10051000B0B5134B4FF0FF351B68C3F30223DC1E4D
:1005200083F0070338BF0024042B28BF042305FAF7
:1005300003F3994305FA04F3A1409A431143BDE83C
:10054000B04000F0A5BD00BF05494FF6FF030A68A3
:100550001A4060F30A22034810430860704700BF46
:100560000CED00E00000FA052DE9F843002800F04A
:100570009080884648490446086800F007004045D6
:100580000AD2086820F0070040EA080008600868FE
:1005900000F0070040457CD12068504B8946810718
:1005A00011D5410703D5196841F4E06119600107CD
:1005B00003D5196841F460511960A1681A6822F0E6
:1005C000F00211431960C0072BD06068012804D1E4
:1005D00053F8041C890309D45BE053F8041C022877
:1005E00002D1890102D454E0890752D519681D4609
:1005F00021F0030108431860FFF72EFF064641F281
:100600008837606829682B4601F00C01B1EB800F38
:1006100007D0FFF721FF801BB842F2D90320BDE8C5
:10062000F883D9F8000000F0070040450DD9D9F84B
:10063000000020F0070040EA0800C9F80000D9F8DF
:10064000000000F00700404523D12068410705D590
:10065000E1681A6822F4E06211431960000706D5C8
:100660002069196821F4605141EAC00018601C46F5
:1006700000F01AF82168094AC1F30311515CC8401F
:10068000E849086007480068FFF704FF0020BDE85C
:10069000F8830120BDE8F883002002409011000893
:1006A000080000200400002010B50C490C480A681E
:1006B00002F00C03082B07D1C2F3834309A4E35CC7
:1006C000D20302D40C48584310BD096809A2C1F3F3
:1006D0004041515C5843B0FBF1F010BD04100240A2
:1006E00000127A0002030405060708090A0B0C0D24
:1006F0000E0F10100102000000093D002DE9FC4121
:10070000002800F0CC8004460078C44EC0074AD0D0
:10071000706800F00C00042817D0706800F00C001E
:10072000082802D17068C0030FD4606898B1B0F592
:10073000803F06D03168B0F5A02F21D141F4802050
:100740003060306840F4803020E0306880032AD583
:10075000606840BBA3E0306820F4803030603068CF
:1007600020F480203060FFF777FE05463068800374
:1007700019D5FFF771FE411B03206429F6D94AE120
:1007800021F480303060306820F480203060FFF742
:1007900063FE05463068800305D4FFF75DFE401B0D
:1007A0006428F7D90AE1207880072CD5706810F00A
:1007B0000C0F07D0706800F00C00082809D1706891
:1007C000C00306D43068800716D52069012813D0ED
:1007D00065E021699248002900F0B580012101609F
:1007E000FFF73AFE05463068800705D4FFF734FE70
:1007F000401B0228F7D9E1E06069316821F0F80177
:1008000041EAC0003060207800072ED5A06978B199
:1008100083480121C0F88014FFF71EFE0546706A68
:10082000800715D4FFF718FE401B0228F7D9C5E052
:100830007B480021C0F88014FFF70EFE0546706A61
:10084000800712D5FFF708FE401B0228F7D9B5E054
:1008500074484FF4FA510068B0FBF1F0019000BF0A
:100860000198411E00280191F9D12078400719D440
:10087000E769002F00F0CE80706800F00C000828B7
:1008800043D1012F0BD0216A706800F480328A4274
:1008900005D1616A00F47010884200F0BB8001202D
:1008A000BDE8FC81F069C0000BD4F0694FF001088D
:1008B00040F08050F061F06900F0805000900098A6
:1008C00001E04FF00008584F3868C0050FD4386871
:1008D00040F480703860FFF7BFFD05463868C005FA
:1008E00005D4FFF7B9FD401B6428F7D966E0E0683E
:1008F000C8B3012805D0316A05284BD141F0040066
:100900003062306A40F001004AE0454900208846E4
:100910000866FFF7A1FD0546022F0AD14746306859
:10092000800157D5FFF798FD411B03200229F6D916
:1009300071E0306880016DD5FFF78EFD411B03200B
:100940000229F6D967E000210160FFF785FD054621
:10095000306880077FF557AFFFF77EFD411B03200E
:100960000229F5D957E0306A20F001003062306A80
:1009700020F004003062FFF76FFD054641F2883732
:10098000306A80071DD5FFF767FD411B0320B94280
:10099000F6D940E021F001003062306A20F0040016
:1009A0003062FFF759FD054641F28837306A80070B
:1009B00007D4FFF751FD401BB842F7D90320BDE82B
:1009C000FC81B8F1000F3FF453AFF06920F0805084
:1009D000F0614DE7206AB0F5803F05D1A1687268EB
:1009E00022F4003211437160616A0843716821F496
:1009F00074110843706001203866FFF72DFD04462E
:100A00003068800106D4FFF727FD011B032002296F
:100A1000F6D900E00020BDE8FC8100BF00100240D4
:100A2000000042420800002000700040411E0020EB
:100A3000B0EB116F1CBF01207047044AF0235160D6
:100A400003490B70072190601160704710E000E0CF
:100A500023ED00E010B590F83C300222012B24D0A9
:100A600080F83D20012280F83C2002680B68546821
:100A7000B2F1804F24F0700444EA03049368546098
:100A800008D0DD4CA24205D0DA4CA24202D0DB4CA9
:100A9000A24204D1496823F08003194391600022E7
:100AA000012180F83C2080F83D10104610BD00BFA9
:100AB00040B310B5044690F83D0028B9002084F8F2
:100AC0003C00204600F020F8022084F83D00206819
:100AD000211D00F0CFF9012084F8460084F83E0083
:100AE00084F83F0084F8400084F8410084F8420014
:100AF00084F8430084F8440084F8450084F83D00FD
:100B0000002010BD0120704781B00068B0F1804F17
:100B100009D10648016841F001010160006800F058
:100B200001000090009801B0704700BF1C10024007
:100B300010B590F83C2004460220012A70D084F8B9
:100B40003D00012084F83C0020684FF677738268EE
:100B50009A4382600A6812B3102A20D0202A1ED03D
:100B6000302A1CD0402A21D0502A2BD0602A35D0E0
:100B7000B2F5005F3ED0B2F5805F4AD0702A50D106
:100B8000D1E90123C9681A4342EA0121826822F4AB
:100B90007F4211438160816841F0770138E08168CC
:100BA00021F07001114341F0070131E04B68CA6840
:100BB000194600F049FA2068816841F0470121F0A8
:100BC000300125E04B68CA68194600F03DFA2068FC
:100BD000816841F0570121F0200119E04B68CA6893
:100BE000194600F042FA2068816841F0670121F05F
:100BF00010010DE0D1E90123C9681A4342EA01213D
:100C0000826822F47F4211438160816841F480410F
:100C100081600020002184F83C10012184F83D10FF
:100C200010BD0120F6E70000FEB50021CDE904115A
:100C3000CDE902110068B0F1804F12D10A48016875
:100C400041F004010160006802A900F00400019075
:100C50000220059003900120029001980348FFF7BD
:100C60002DFB06B080BD00BF1810024000080140F7
:100C7000B0B5044690F83C00012804BF0220B0BD86
:100C80000D464FEAB2010120032984F83C0037D811
:100C9000DFE801F0020A12222068294600F036F946
:100CA000206850F8181F0EE02068294600F054F91B
:100CB000206850F8181F16E02068294600F078F9DF
:100CC000206850F81C1F41F008010160016821F004
:100CD0000401016029690FE02068294600F092F9BB
:100CE000206850F81C1F41F400610160016821F484
:100CF00080610160296909020268114301600020D6
:100D0000002184F83C10B0BD40B310B5044690F803
:100D10003D0028B9002084F83C00204600F020F86F
:100D2000022084F83D002068211D00F0A3F8012076
:100D300084F8460084F83E0084F83F0084F84000C0
:100D400084F8410084F8420084F8430084F84400A9
:100D500084F8450084F83D00002010BD0120704754
:100D60007047000010B5044641B1082909D0042994
:100D700014BF04F1410004F13F0004E004F13E001F
:100D800001E004F14000007801281CBF012010BDE3
:100D9000022041B1082909D0042914BF84F8410078
:100DA00084F83F0004E084F83E0001E084F840004D
:100DB0002068012200F09AF82068A249884203D1F5
:100DC0004A6C42F400424A64B0F1804F07D0454A71
:100DD000904204D0884202D04349884204D18168BD
:100DE00001F00701062903D0016841F0010101600B
:100DF000002010BD002C014000040040000800400D
:100E0000FEE7FEE7FEE7704770470000DE4800217E
:100E1000FFF7A8BFFFF724BB70B590B006AC201D4C
:100E20001821FFF7D1F901A81421FFF7CDF94FF4EC
:100E300060100F900026022510200E960D950B9045
:100E400001200A9020460695FFF758FC70B94FF430
:100E500080600596CDE903600F20CDE9010501A86A
:100E60000221FFF781FB08B910B070BDFFF711FA3E
:100E70007047000070B50368724AB0F1804F07D028
:100E8000184CA04204D0904202D0174CA04203D18B
:100E90004C6823F070032343B0F1804F07D0114C0E
:100EA000A04204D0904202D00F4CA04203D1CC68A3
:100EB00023F4407323434E690C688D6823F080034C
:100EC000334390420360C562846201D109691163B2
:100ED000012141610169C90703D0016921F00101C4
:100EE000016170BD000400400008004010B501F031
:100EF0001F010123046A8B4024EA0303036202FA00
:100F000001F1026A1143016210BD0000F0B5026AEE
:100F1000036A22F0020223F0010303628C680B686B
:100F200022434468856925F073052B43454DA8424B
:100F30000BD1CD68D1E9056724F44074344322F025
:100F40000C0225F004053C432A4344608361496850
:100F500041630262F0BD00BFF0B5026A036A22F08D
:100F6000200223F0100303628C680B6842EA04122B
:100F70004468856925F4E64545EA0323314DA842D6
:100F80000FD1D1E90567CD6824F4406444EA8604B2
:100F90006FF0400606EA051522F0C00244EA870415
:100FA0002A4344608361496881630262F0BD00BFE7
:100FB000F0B5026A036A22F4007223F480730362BC
:100FC0008C680B6842EA04224468C56925F0730501
:100FD0002B431C4DA8420FD1CD68D1E9056724F4FD
:100FE000405444EA06142D0240F2FF46B54322F471
:100FF000406244EA07142A434460C3614968C163FC
:101000000262F0BDB0B5026A036A22F4005223F412
:10101000805303628B680C6842EA03324368C569F7
:1010200025F4E64545EA0424064DA84204D14D695D
:1010300023F4804343EA85134360C4614968016433
:101040000262B0BD002C014010B5036A046A24F0AE
:1010500001040462846924F0F00444EA021282610B
:1010600023F00A021143016210BD10B5036A046A3D
:1010700024F010040462846924F4704444EA0232C7
:10108000826123F0A00242EA0111016210BDFEE775
:1010900010B5074C00F00F032344044AB0F1FF3FA2
:1010A000C8BF83180801187010BD00BF00E400E03D
:1010B00014ED00E08EB0FFF7DDF9FFF7ADFE31482B
:1010C0000024016841F00401016000681C2100F067
:1010D00004000190019801A8CDE90C44CDE90A442F
:1010E000CDE90844FFF770F8274844F61F613F2216
:1010F0004FF080438461C0E90032C0E902410461DD
:10110000FFF7D6FCE0BB4FF480500A901E480AA9B6
:10111000FFF70EFDA0BB1C48FFF7F6FD80BB1A4889
:10112000002408A9CDE90844FFF794FC40BB0594CE
:10113000CDE90244144C6020019001A92046002210
:10114000FFF796FDE0B92046FFF76EFDFFF75EFE64
:101150000E4E4FF47A7840F2DC574FF4FA6520686F
:10116000C0F834804FF47A70B047206847634FF47A
:101170007A70B047206845634FF47A70B047EEE765
:10118000FFF787F818100240700000209D02000849
:101190000000000000000000010203040607080927
:1011A000C011000800000020100000002801000805
:1011B000D011000810000020B00600004401000813
:1011C000010000001000000000127A000000000082
:04000005080000ED02
:00000001FF
