:020000040800F2
:10000000C8060020890100081D0C0008190C000812
:100010001B0C00088F0200088F0C00080000000075
:10002000000000000000000000000000210C00089B
:1000300091020008000000001F0C0008230C0008BB
:10004000A3010008A3010008A3010008A301000800
:10005000A3010008A3010008A3010008A3010008F0
:10006000A3010008A3010008A3010008A3010008E0
:10007000A3010008A3010008A3010008A3010008D0
:10008000A3010008A3010008A3010008A3010008C0
:10009000A3010008A3010008A3010008A3010008B0
:1000A000A3010008A3010008A3010008A3010008A0
:1000B000A3010008A3010008A3010008A301000890
:1000C000A3010008A3010008A3010008A301000880
:1000D000A3010008A3010008A3010008A301000870
:1000E000A3010008A3010008A301000800F002F822
:1000F00000F03AF80AA090E8000C82448344AAF188
:100100000107DA4501D100F02FF8AFF2090EBAE885
:100110000F0013F0010F18BFFB1A43F0010318473B
:100120002C0C00004C0C0000103A24BF78C878C199
:10013000FAD8520724BF30C830C144BF04680C60ED
:10014000704700000023002400250026103A28BF35
:1001500078C1FBD8520728BF30C148BF0B60704739
:100160001FB51FBD10B510BD00F058F81146FFF7C0
:10017000F7FF00F09FFD00F076F803B4FFF7F2FF01
:1001800003BC00F07DF8000009488047094800479B
:10019000FEE7FEE7FEE7FEE7FEE7FEE7FEE7FEE737
:1001A000FEE7FEE704480549054A064B7047000094
:1001B0008D0C0008ED000008C8000020C8060020D3
:1001C000C8020020C80200204FF0000200B513460C
:1001D00094469646203922BFA0E80C50A0E80C5067
:1001E000B1F12001BFF4F7AF090728BFA0E80C5018
:1001F00048BF0CC05DF804EB890028BF40F8042B11
:1002000008BF704748BF20F8022B11F0804F18BF7D
:1002100000F8012B7047704770477047754600F033
:100220002BF8AE4605006946534620F00700854688
:1002300018B020B5FFF7B6FFBDE820404FF000062C
:100240004FF000074FF000084FF0000BAC46ACE851
:10025000C009ACE8C009ACE8C009ACE8C00921F0AD
:1002600007018D46704710B50446AFF30080204665
:10027000BDE81040FFF781BF004870471000002024
:1002800001491820ABBEFEE7260002007047FEE7DA
:10029000704700002DE9FC4F594A04234FF0000B32
:1002A0004FF001084FF00F0E4FF00009002590426B
:1002B00008BF032300930B6833FA05F208BFBDE8BB
:1002C000FC8F08FA05F2134200F096804F68032F66
:1002D00016D9112F24D0122F26D04C4B9F4213D069
:1002E0004B4B9F4210D04B4B9F420DD04A4B9F42ED
:1002F0000AD04A4B9F4207D0494B9F4204D020E08E
:10030000DFE807F00216191D8B6833B1012B14BF0B
:10031000426102614FF0080913E04FF0040910E058
:10032000CB6803F104090CE0CB6803F10C0908E089
:10033000D1F80C9005E0CB6803F1080901E04FF01B
:1003400000095B460646082D28BF203B28BF04361F
:1003500037680EFA03F427EA040409FA03F3234387
:100360003360CB79DB0647D5D24B264E1C461B6843
:10037000A6F57E7643F00103236023680BF00C0C96
:1003800003F001030193019CAC0856F824700EFAA7
:100390000CF327EA030A234B984208D0224B9842D9
:1003A00007D0224B9842009B08BF022302E00023A3
:1003B00000E0012303FA0CF343EA0A0346F8243071
:1003C0004F68104CFB02A36854BF934313430E4E77
:1003D000A360BB02336854BF934313433360BB0332
:1003E000636854BF934313436360FB03236854BFA4
:1003F00023EA02021A4322600BF1040B01355AE78B
:1004000000140140000401400C04014000001110E0
:100410000000121000002110000022100000311016
:100420000000321000080140000C014000100140A3
:100430007A480068704700BFF8B560B3044690F88A
:100440003D0028B9002084F83C00204600F0B0F8B8
:10045000242084F83D002068016821F0010101603A
:10046000016841F400410160016821F4004101602C
:1004700000F0EEF949494A4B002288424FF0000152
:1004800038BF0121984238BF01226368454DAB4215
:1004900038BF0A460AB10120F8BD4349434EB0FBBC
:1004A000F1F22168B3424D6825F03F0545EA0205A7
:1004B0004D600D6A25F03F0511D801322A430A62CA
:1004C0005A000138B0FBF2F04CF6FF7301306FF3C5
:1004D0001F30042898BF0420CA699A4337E04FF4BC
:1004E000967672434FF47A76B2FBF6F20138013217
:1004F0002A430A62CA694CF6FF75AA43A56845B14A
:1005000019265E43B0FBF6F60427013667F31F3663
:1005100006E003EB4306B0FBF6F601366FF31F3639
:10052000360509D055B119256B43B0FBF3F0042310
:10053000013063F31F3008E0012008E003EB4303C0
:10054000B0FBF3F001306FF31F3040F40040104374
:10055000C861E0690A6804F10C0622F0C002104389
:10056000226A10430860886848F2FF3290436CCEDC
:10057000184310438860C86820F0FF0028433043C8
:10058000C860086840F00100086000202021206455
:1005900084F83D10206384F83E00F8BD80841E007E
:1005A00000093D00A186010040420F00A086010025
:1005B00010B586B00021CDE90411CDE90211016822
:1005C000114881421DD13B4C00F53840216841F073
:1005D00008012160216801F00801019103210591C2
:1005E00012210391C0210291019902A9FFF752FE45
:1005F000606840F400106060606800F400100190D2
:10060000019806B010BD00BF005400401A480349CD
:1006100000780A6810440860704700BFC4000020DA
:1006200080B58848016841F010010160032000F0A6
:1006300061F80F2000F004F800F020F8002080BDE1
:1006400070B50D4E044630784FF47A71B1FBF0F07E
:1006500084490968B1FBF0F000F0CAFA01250F2CBB
:1006600008D838B94FF0FF3021460022002500F0AD
:1006700025F87460284670BD0000002082B00D4847
:100680000222016841F001010160016801F00101ED
:1006900001910199416841F080514160406800F04A
:1006A0008050009000980448016862F31A6101606C
:1006B00002B070471810024004000140B0B5134B5F
:1006C0004FF0FF351B68C3F30223DC1E83F00703E2
:1006D00038BF0024042B28BF042305FA03F39943F1
:1006E00005FA04F3A1409A431143BDE8B04000F07D
:1006F000CFBA00BF05494FF6FF030A681A4060F3FE
:100700000A22034810430860704700BF0CED00E068
:100710000000FA052DE9F843002800F09080884693
:1007200048490446086800F0070040450AD20868B6
:1007300020F0070040EA08000860086800F00700A1
:1007400040457CD12068564B8946810711D5410729
:1007500003D5196841F4E0611960010703D51968F0
:1007600041F460511960A1681A6822F0F002114347
:100770001960C0072BD06068012804D153F8041C0D
:10078000890309D45BE053F8041C022802D18901D3
:1007900002D454E0890752D519681D4621F003019F
:1007A00008431860FFF744FE064641F28837606848
:1007B00029682B4601F00C01B1EB800F07D0FFF741
:1007C00037FE801BB842F2D90320BDE8F883D9F880
:1007D000000000F0070040450DD9D9F8000020F0D6
:1007E000070040EA0800C9F80000D9F8000000F04E
:1007F0000700404523D12068410705D5E1681A6804
:1008000022F4E06211431960000706D520691968D7
:1008100021F4605141EAC00018601C4600F026F83F
:100820002168094AC1F30311515CC840EE490860D0
:1008300006480068FFF704FF0020BDE8F8830120A8
:10084000BDE8F88300200240340D000804000020B9
:10085000E548134900680968034AC1F30221515C65
:10086000C840704708000020440D000810B50C492E
:100870000C480A6802F00C03082B07D1C2F383432B
:1008800009A4E35CD20302D40C48584310BD0968A4
:1008900009A2C1F34041515C5843B0FBF1F010BDD7
:1008A0000410024000127A0002030405060708093A
:1008B0000A0B0C0D0E0F10100102000000093D0084
:1008C0002DE9FC41002800F0CC8004460078C44E9D
:1008D000C0074AD0706800F00C00042817D0706878
:1008E00000F00C00082802D17068C0030FD46068C3
:1008F00098B1B0F5803F06D03168B0F5A02F21D176
:1009000041F480203060306840F4803020E030686E
:1009100080032AD5606840BBA3E0306820F48030B3
:100920003060306820F480203060FFF781FD05469C
:100930003068800319D5FFF77BFD411B0320642934
:10094000F6D94AE121F480303060306820F480200C
:100950003060FFF76DFD05463068800305D4FFF772
:1009600067FD401B6428F7D90AE1207880072CD561
:10097000706810F00C0F07D0706800F00C000828A9
:1009800009D17068C00306D43068800716D5206985
:10099000012813D065E021699248002900F0B58054
:1009A00001210160FFF744FD05463068800705D44A
:1009B000FFF73EFD401B0228F7D9E1E0606931688E
:1009C00021F0F80141EAC0003060207800072ED500
:1009D000A06978B183480121C0F88014FFF728FD91
:1009E0000546706A800715D4FFF722FD401B0228D8
:1009F000F7D9C5E07B480021C0F88014FFF718FD47
:100A00000546706A800712D5FFF712FD401B0228C9
:100A1000F7D9B5E074484FF4FA510068B0FBF1F033
:100A2000019000BF0198411E00280191F9D1207862
:100A3000400719D4E769002F00F0CE80706800F0FD
:100A40000C00082843D1012F0BD0216A706800F4F4
:100A500080328A4205D1616A00F47010884200F049
:100A6000BB800120BDE8FC81F069C0000BD4F069B7
:100A70004FF0010840F08050F061F06900F08050C4
:100A80000090009801E04FF00008584F3868C0050A
:100A90000FD4386840F480703860FFF7C9FC054611
:100AA0003868C00505D4FFF7C3FC401B6428F7D99C
:100AB00066E0E068C8B3012805D0316A05284BD14B
:100AC00041F004003062306A40F001004AE04549DC
:100AD000002088460866FFF7ABFC0546022F0AD1C6
:100AE00047463068800157D5FFF7A2FC411B032021
:100AF0000229F6D971E0306880016DD5FFF798FCC6
:100B0000411B03200229F6D967E000210160FFF7AD
:100B10008FFC0546306880077FF557AFFFF788FCEC
:100B2000411B03200229F5D957E0306A20F001006B
:100B30003062306A20F004003062FFF779FC05462D
:100B400041F28837306A80071DD5FFF771FC411BE1
:100B50000320B942F6D940E021F001003062306A4A
:100B600020F004003062FFF763FC054641F288374D
:100B7000306A800707D4FFF75BFC401BB842F7D907
:100B80000320BDE8FC81B8F1000F3FF453AFF069DA
:100B900020F08050F0614DE7206AB0F5803F05D12C
:100BA000A168726822F4003211437160616A0843DF
:100BB000716821F474110843706001203866FFF7F2
:100BC00037FC04463068800106D4FFF731FC011B76
:100BD00003200229F6D900E00020BDE8FC8100BF17
:100BE0000010024000004242080000200070004057
:100BF000411E0020B0EB116F1CBF01207047044A5A
:100C0000F023516003490B70072190601160704719
:100C100010E000E023ED00E0FEE7FEE7FEE77047AE
:100C20007047FFF7F3BCB0B590B0002401A81421C1
:100C3000CDE90B44CDE90944FFF7C6FA4FF4E010C3
:100C40000F904FF48030022501210E900D950A91EE
:100C50000894CDE9061006A8FFF732FE18B1EFF3AD
:100C6000108072B6FEE74FF480600594CDE9034032
:100C70000F20CDE9010501A80221FFF74BFD18B1B6
:100C8000EFF3108072B6FEE710B0B0BD7047FEE71C
:100C900010B5074C00F00F032344044AB0F1FF3FA6
:100CA000C8BF83180801187010BD00BF00E400E041
:100CB00014ED00E084B0FFF7B3FCFFF7B4FF194870
:100CC00000220168194B41F0200101600168184CB5
:100CD00001F0200103910399016841F004010160D2
:100CE000016801F0040102910299016841F00801D4
:100CF000016001680C4801F008010262019101994C
:100D00004FF48041C0E90043C0E90222C0E9041267
:100D1000C0E90622FFF790FB18B1EFF3108072B61E
:100D2000FEE7FEE71810024070000020A0860100D8
:100D30000054004000000000000000000102030415
:100D4000060708090000000001020304700D0008F6
:100D5000000000201000000028010008800D00089D
:100D600010000020B8060000440100080000000048
:100D7000010000001000000000127A0000000000D6
:04000005080000ED02
:00000001FF
