:020000040800F2
:1000000090070020890100086B140008671400089D
:10001000691400088F02000815180008000000008D
:100020000000000000000000000000006F14000845
:10003000CF020008000000006D14000871140008D1
:10004000A3010008A3010008A3010008A301000800
:10005000A3010008A3010008A3010008A3010008F0
:10006000A3010008A3010008A3010008A3010008E0
:10007000A3010008A3010008A301000891020008E1
:100080009D020008A3010008A3010008A3010008C5
:10009000A3010008A3010008A3010008A3010008B0
:1000A000A3010008A3010008A3010008A3010008A0
:1000B000A3010008A3010008A3010008A301000890
:1000C000A3010008A3010008A3010008A301000880
:1000D000A3010008A30100080D180008A3010008EF
:1000E000A3010008A3010008A301000800F002F822
:1000F00000F03AF80AA090E8000C82448344AAF188
:100100000107DA4501D100F02FF8AFF2090EBAE885
:100110000F0013F0010F18BFFB1A43F0010318473B
:100120004C1800006C180000103A24BF78C878C141
:10013000FAD8520724BF30C830C144BF04680C60ED
:10014000704700000023002400250026103A28BF35
:1001500078C1FBD8520728BF30C148BF0B60704739
:100160001FB51FBD10B510BD00F058F81146FFF7C0
:10017000F7FF01F063FB00F076F803B4FFF7F2FF3E
:1001800003BC00F07DF8000009488047094800479B
:10019000FEE7FEE7FEE7FEE7FEE7FEE7FEE7FEE737
:1001A000FEE7FEE704480549054A064B7047000094
:1001B000DB140008ED0000089001002090070020EB
:1001C00090030020900300204FF0000200B513467A
:1001D00094469646203922BFA0E80C50A0E80C5067
:1001E000B1F12001BFF4F7AF090728BFA0E80C5018
:1001F00048BF0CC05DF804EB890028BF40F8042B11
:1002000008BF704748BF20F8022B11F0804F18BF7D
:1002100000F8012B7047704770477047754600F033
:100220002BF8AE4605006946534620F00700854688
:1002300018B020B5FFF7B6FFBDE820404FF000062C
:100240004FF000074FF000084FF0000BAC46ACE851
:10025000C009ACE8C009ACE8C009ACE8C00921F0AD
:1002600007018D46704710B50446AFF30080204665
:10027000BDE81040FFF781BF004870471000002024
:1002800001491820ABBEFEE7260002007047FEE7DA
:10029000014800F085B800BF70000020014800F060
:1002A0007FB800BFB4000020F0B5D0E90045D0E928
:1002B0000F60012707FA00F0706008466360102D98
:1002C00008BF1046A06008BF0A46E260F0BD704754
:1002D000EFF3108072B6FEE710B590F821100229F6
:1002E00012D10168D0E90F230C6824F00E040C60D1
:1002F0000C6824F001040C60012101FA03F353603F
:1003000080F82110002102E00421816301210022F4
:1003100080F82020084610BDB0B590F821100229C1
:100320001CD10368674C1968012221F00E01196085
:100330001968A34221F001011960614912D0624C91
:10034000A34211D0614CA34210D0614CA34210D003
:10035000604CA34210D14FF4803415E00421816336
:1003600001211BE001240FE010240DE04FF4807404
:100370000AE04FF4805407E001F168054FF0807403
:10038000AB4208BF4FF480140C60002180F82010AD
:1003900080F82120426B0AB1904700210846B0BD89
:1003A00070B50168D0E90F2314680D686E071DD57C
:1003B00004269E40264019D00A68920603D40A6893
:1003C00022F004020A60EB4B3D4A994258D0E54BBB
:1003D000994244D0E44B994243D0E44B994243D0F4
:1003E000E34B994243D14FF480234AE0AE0720D536
:1003F00002269E4026401CD00A68920606D40A684F
:1004000022F00A020A60012280F82120D94B2C4AEE
:10041000994239D0D34B994238D0D34B994237D0F7
:10042000D24B994237D0D24B994237D14FF4003357
:100430003CE02D0743D508259D402C403FD00C685B
:1004400024F00E040C60012101FA03F35360002232
:10045000816380F8202080F82110016B2BE040237D
:100460000FE04FF480630CE04FF4804309E002F1A9
:1004700068044FF08063A14208BF4FF4800300E09E
:1004800004231360C16A16E002230FE020230DE06D
:100490004FF400730AE04FF4005307E002F16804E0
:1004A0004FF00073A14208BF4FF40013002180F801
:1004B00020101360816A11B1BDE87040084770BD1B
:1004C00004000240080002401C00024030000240CC
:1004D00044000240580002400146012061B32DE96A
:1004E000F043022281F8212091E8040301F10C0E6F
:1004F0009EE8E050136843F6F074A34343EA080310
:1005000043EA09032B4333433B4343EA0C0343EAE7
:100510000E03136000238B6381F82030074B904C4F
:100520001A441423B2FBF3F29200C1E90F4281F89E
:1005300021000020BDE8F043704700BFF8FFFDBF79
:100540002DE9FE4F044690F8210002281BD12068B7
:100550001646026892061BD4814A02F10803CDE9CF
:100560000013D9B198422AD07E4DA8422BD07E4D9F
:10057000A8422AD07D4DA8422AD07D4988422AD15E
:100580004FF4802540E0002084F82000042001E0A2
:100590004FF48070A0630120BDE8FE8F984210D018
:1005A000704DA84220D0704DA8421FD06F4DA84278
:1005B0001FD06F4988421FD14FF4003524E0042535
:1005C00022E0022520E040251EE04FF480651BE07C
:1005D0004FF4804518E002F16C014FF080658842CD
:1005E00008BF4FF480050FE020250DE04FF40075A3
:1005F0000AE04FF4005507E002F16C014FF000757E
:10060000884208BF4FF4001500F0C6F983465948E8
:10061000534A81465348771C80465348824602F12C
:100620006C0002901068284239D121681068494551
:100630004B460ED0414543460DD0514553460CD054
:100640004A4B99420CD04A4B99420CD14FF40021AD
:1006500010E008210EE080210CE04FF4006109E079
:100660004FF4004106E0029B99424FF0006108BF41
:100670004FF4000101421BD1002FD3D036B100F05E
:100680008BF9374AA0EB0B00B042CBD9A06B40F0FE
:100690002000A063002084F82000012015E00099CC
:1006A0002068B1B10199884220D10421516018E03D
:1006B000D4E90F12012000FA02F24A60A16B41F066
:1006C0000101A163002184F8201084F82100BDE815
:1006D000FE8F0199884216D102210120516084F8D1
:1006E0002100002084F82000BDE8FE8F404517D08F
:1006F000504517D01D49884217D01D49884217D14F
:100700004FF48021D2E740451AD050451AD01749FE
:1007100088421AD0164988421AD14FF40031DCE7DA
:100720004021C3E74FF48061C0E74FF48041BDE74B
:10073000029B4FF08061984208BF4FF48001B5E7FB
:100740002021CAE74FF40071C7E74FF40051C4E716
:10075000029B4FF00071984208BF4FF40011BCE7B4
:10076000000002401C0002403000024044000240F1
:100770005800024008000240B0B5044690F820003E
:1007800001281DD0012084F8200094F821000128C0
:1007900013D1022084F821000020A063206805689E
:1007A00025F0010505602046FFF77EFD2068E26A1E
:1007B00001683AB141F00E010AE0002084F82000FF
:1007C0000220B0BD21F004010160016841F00A017E
:1007D0000160016841F0010101600020B0BD00002E
:1007E0002DE9FC4F594A04234FF0000B4FF001084C
:1007F0004FF00F0E4FF000090025904208BF032371
:1008000000930B6833FA05F208BFBDE8FC8F08FAC5
:1008100005F2134200F096804F68032F16D9112F6E
:1008200024D0122F26D04C4B9F4213D04B4B9F42CB
:1008300010D04B4B9F420DD04A4B9F420AD04A4B9F
:100840009F4207D0494B9F4204D020E0DFE807F0E9
:100850000216191D8B6833B1012B14BF426102616E
:100860004FF0080913E04FF0040910E0CB6803F1E2
:1008700004090CE0CB6803F10C0908E0D1F80C90F6
:1008800005E0CB6803F1080901E04FF000095B4681
:100890000646082D28BF203B28BF043637680EFACD
:1008A00003F427EA040409FA03F323433360CB7902
:1008B000DB0647D5644B264E1C461B68A6F57E76A4
:1008C00043F00103236023680BF00C0C03F00103D9
:1008D0000193019CAC0856F824700EFA0CF327EA39
:1008E000030A234B984208D0224B984207D0224B50
:1008F0009842009B08BF022302E0002300E001238E
:1009000003FA0CF343EA0A0346F824304F68104C0C
:10091000FB02A36854BF934313430E4EA360BB0274
:10092000336854BF934313433360BB03636854BFBE
:10093000934313436360FB03236854BF23EA02021B
:100940001A4322600BF1040B01355AE700140140F1
:10095000000401400C0401400000111000001210BE
:1009600000002110000022100000311000003210A1
:1009700000080140000C014000100140C26802EA7A
:100980000103914341EA034101617047002A08BF16
:10099000090401617047000005480068704700BF06
:1009A0001A48034900780A6810440860704700BF7D
:1009B0008801002080B58F48016841F01001016076
:1009C000032000F06FF80F2000F004F800F020F88A
:1009D000002080BD70B50D4E044630784FF47A711A
:1009E000B1FBF0F090490968B1FBF0F000F0E2FAD9
:1009F00001250F2C08D838B94FF0FF3021460022CE
:100A0000002500F033F87460284670BD0000002017
:100A100082B00D480422016841F0010101600168C3
:100A200001F0010101910199416841F0805141605B
:100A3000406800F08050009000980448016862F31C
:100A40001A61016002B070471810024004000140B2
:100A5000002808D400F01F01012202FA01F1024A25
:100A6000400942F82010704700E100E0B0B5134B98
:100A70004FF0FF351B68C3F30223DC1E83F007032E
:100A800038BF0024042B28BF042305FA03F399433D
:100A900005FA04F3A1409A431143BDE8B04000F0C9
:100AA000BBBE00BF05494FF6FF030A681A4060F35A
:100AB0000A22034810430860704700BF0CED00E0B5
:100AC0000000FA052DE9F843002800F090808846E0
:100AD00048490446086800F0070040450AD2086803
:100AE00020F0070040EA08000860086800F00700EE
:100AF00040457CD120685B4B8946810711D5410771
:100B000003D5196841F4E0611960010703D519683C
:100B100041F460511960A1681A6822F0F002114393
:100B20001960C0072BD06068012804D153F8041C59
:100B3000890309D45BE053F8041C022802D189011F
:100B400002D454E0890752D519681D4621F00301EB
:100B500008431860FFF720FF064641F288376068B7
:100B600029682B4601F00C01B1EB800F07D0FFF78D
:100B700013FF801BB842F2D90320BDE8F883D9F8EF
:100B8000000000F0070040450DD9D9F8000020F022
:100B9000070040EA0800C9F80000D9F8000000F09A
:100BA0000700404523D12068410705D5E1681A6850
:100BB00022F4E06211431960000706D52069196824
:100BC00021F4605141EAC00018601C4600F030F882
:100BD0002168094AC1F30311515CC840F349086018
:100BE00006480068FFF7F6FE0020BDE8F883012004
:100BF000BDE8F883002002405419000804000020DA
:100C0000EA48184900680968084AC1F30221515CA2
:100C1000C8407047E548134900680968034AC1F3B2
:100C2000C221515CC84070470800002064190008C8
:100C300010B50C490C480A6802F00C03082B07D1C8
:100C4000C2F3834309A4E35CD20302D40C485843A3
:100C500010BD096809A2C1F34041515C5843B0FB83
:100C6000F1F010BD0410024000127A0002030405E6
:100C7000060708090A0B0C0D0E0F101001020000E8
:100C800000093D002DE9FC41002800F0CC8004461D
:100C90000078C44EC0074AD0706800F00C000428E9
:100CA00017D0706800F00C00082802D17068C003EB
:100CB0000FD4606898B1B0F5803F06D03168B0F5C8
:100CC000A02F21D141F480203060306840F4803082
:100CD00020E0306880032AD5606840BBA3E030681C
:100CE00020F480303060306820F480203060FFF7DE
:100CF00053FE05463068800319D5FFF74DFE411BB2
:100D000003206429F6D94AE121F48030306030684C
:100D100020F480203060FFF73FFE054630688003F6
:100D200005D4FFF739FE401B6428F7D90AE1207883
:100D300080072CD5706810F00C0F07D0706800F099
:100D40000C00082809D17068C00306D430688007F9
:100D500016D52069012813D065E021699248002941
:100D600000F0B58001210160FFF716FE05463068EE
:100D7000800705D4FFF710FE401B0228F7D9E1E0F9
:100D80006069316821F0F80141EAC00030602078E4
:100D900000072ED5A06978B183480121C0F88014DE
:100DA000FFF7FAFD0546706A800715D4FFF7F4FDDA
:100DB000401B0228F7D9C5E07B480021C0F8801409
:100DC000FFF7EAFD0546706A800712D5FFF7E4FDDC
:100DD000401B0228F7D9B5E074484FF4FA51006877
:100DE000B0FBF1F0019000BF0198411E0028019175
:100DF000F9D12078400719D4E769002F00F0CE80A0
:100E0000706800F00C00082843D1012F0BD0216A34
:100E1000706800F480328A4205D1616A00F4701073
:100E2000884200F0BB800120BDE8FC81F069C00071
:100E30000BD4F0694FF0010840F08050F061F06988
:100E400000F080500090009801E04FF00008584FEB
:100E50003868C0050FD4386840F480703860FFF7F8
:100E60009BFD05463868C00505D4FFF795FD401B7E
:100E70006428F7D966E0E068C8B3012805D0316A74
:100E800005284BD141F004003062306A40F0010087
:100E90004AE04549002088460866FFF77DFD054683
:100EA000022F0AD147463068800157D5FFF774FDFD
:100EB000411B03200229F6D971E0306880016DD50D
:100EC000FFF76AFD411B03200229F6D967E00021E4
:100ED0000160FFF761FD0546306880077FF557AF79
:100EE000FFF75AFD411B03200229F5D957E0306A6C
:100EF00020F001003062306A20F004003062FFF719
:100F00004BFD054641F28837306A80071DD5FFF753
:100F100043FD411B0320B942F6D940E021F0010016
:100F20003062306A20F004003062FFF735FD05467C
:100F300041F28837306A800707D4FFF72DFD401B48
:100F4000B842F7D90320BDE8FC81B8F1000F3FF4A7
:100F500053AFF06920F08050F0614DE7206AB0F5A2
:100F6000803F05D1A168726822F40032114371609C
:100F7000616A0843716821F47411084370600120AC
:100F80003866FFF709FD04463068800106D4FFF794
:100F900003FD011B03200229F6D900E00020BDE873
:100FA000FC8100BF00100240000042420800002007
:100FB00000700040411E0020B0EB116F1CBF0120EB
:100FC0007047044AF023516003490B700721906079
:100FD0001160704710E000E023ED00E070477047BB
:100FE000F8B5044600680168C268466901F02F053B
:100FF00002F02003202D05D123B12046BDE8F840A2
:1010000000F019BB5FEA017E08D006F0010686F009
:10101000010712F4907F55D1002F53D01140CA061A
:10102000226B3DD5012A3BD100210091016800913E
:101030004168009100994169490600F19280E18D73
:10104000A28DE38D002B00F00781511A0A0401D113
:1010500002E1206850E8030F226820F4907042E813
:101060000303002BF5D1206850E8050F226820F01B
:10107000010042E80503002BF5D1202084F842004E
:1010800000202063206850E8030F226820F0100041
:1010900042E80303002BF5D1022089B26063A3E08C
:1010A0000A0600F1A680490640F1D680C16821F009
:1010B0004001C160202084F841002046BDE8F8408E
:1010C00000F0D0B9CD0718BF12F4807503D0656C5D
:1010D00045F00105656401F004054FF0010C8CEA50
:1010E00095053D4303D1656C45F00205656401F04B
:1010F00002058CEA55053D4303D1656C45F00405B6
:101100006564334318BF0123BEF1000F04D51BB142
:10111000636C43F008036364636C002B00F09C80F5
:101120001140890603D5204600F085FA2068406901
:10113000616C00F0400001F00801401869D02046C1
:1011400000F044FA20684169490674D550E8050F5B
:10115000216820F0400041E80502002A5FD02068A5
:10116000F4E7E26B11684B689DB2002D74D0A18D3D
:101170008D4271D2E3859269202A30D050E8030F66
:10118000216820F4807041E803020AB12068F5E785
:10119000206850E8050F216820F0010041E80502B1
:1011A000002AF5D1206850E8050F216820F04000A2
:1011B00041E80502002AF5D1202084F842000020F1
:1011C0002063206850E8030F216820F0100041E8F8
:1011D0000302002AF5D1E06BFFF77EF8A18D022013
:1011E0006063E08D081A81B22046BDE8F840FFF741
:1011F000F5BE94F8411021292ED1A168B1F5805F88
:1012000001D12169E1B1216A4A1C22620978416059
:101210001DE02046FFF7E3FE00206064F8BDE06BB0
:1012200048B112494163FFF777F8A8B1E06B416B11
:10123000BDE8F84008472046BDE8F840FFF7CFBEBC
:10124000216A31F8022B6FF35F2221624260E18C48
:101250000139E184090400D0F8BDC16821F08001A2
:10126000C160C16841F04001C160F8BDDD140008F3
:1012700058B310B5044690F8410028B9002084F80E
:101280004000204600F024F8242084F84100206823
:10129000C16821F40051C160204600F02FFA206897
:1012A000016921F490410161416921F02A01416104
:1012B000C16841F40051C16000202021606484F8BD
:1012C000411084F84210606310BD01207047000097
:1012D0002DE9F04186B00027CDE90477CDE902770A
:1012E000044600685E49884247D04949884240F038
:1012F0008C80494F494DD7F8C00F0DF1080840F4D4
:101300008040C7F8C00FD7F8C00F414600F48040B6
:1013100001900198D7F8C00F40F00400C7F8C00F43
:10132000D7F8C00F00F004000190032005900220C0
:1013300003904FF40070029001982846FFF750FA8E
:1013400000264FF48060CDE90366029028464146AE
:10135000FFF746FA334D8020C5E90076C5E9026003
:101360002846C5E90466C5E90666FFF7B5F808B181
:10137000FEF7AEFF6C62E56347E02648264E016843
:10138000264D41F40031016000680DF1080800F4B9
:10139000003001900198D6F8C00F414640F004009B
:1013A000C6F8C00FD6F8C00F00F00400019003206B
:1013B0000590022003900420029001982846FFF730
:1013C0000FFA0820CDE90377029028464146FFF73F
:1013D00007FA134D802006F11401C5E90017C5E98D
:1013E00002702846C5E90477C5E90677FFF774F867
:1013F00008B1FEF76DFF2620002100226C62E56334
:10140000FFF734FB2620FFF723FB06B0BDE8F08191
:10141000003801401C100240580002400008014002
:10142000B40000207000002010B590F84230202B4E
:1014300007D1012431B12AB10024046300F09EF9E0
:1014400000E00224204610BD7047000001680448F7
:10145000814218BF704700F544400121FFF78EBA62
:10146000004400407047FEE7FEE7FEE77047704724
:10147000FFF796BAB0B590B0002401A81421CDE9C9
:101480000B44CDE90944FEF79FFE4FF4E0100F90A6
:101490004FF48030022501210E900D950A91089499
:1014A000CDE9061006A8FFF7EDFB18B1EFF31080A9
:1014B00072B6FEE74FF480600594CDE903400F203B
:1014C000CDE9010501A80221FFF7FCFA18B1EFF3FD
:1014D000108072B6FEE710B0B0BD7047406A0021C0
:1014E000C185C184FFF77BBD10B5446A206841699E
:1014F00094F84120212A08D111F0800105D0002064
:10150000E084204600F089F82068406994F8421091
:10151000222907D110F0400004D00020E0852046A9
:1015200000F054F8606C40F0100060642046BDE8A4
:101530001040FFF754BD0168406A096889062FD43E
:101540000021C185016851E8031F026821F4807100
:1015500042E80313002BF5D1016851E8051F02682A
:1015600021F0010142E80513002BF5D1016851E893
:10157000051F026821F0400142E80513002BF5D158
:10158000202180F84210016B012909D1016851E83E
:10159000031F026821F0100142E80313002BF5D16C
:1015A00000214163016B012918BFFFF74DBF818DF9
:1015B000FFF714BD406A01214163016B012918BF87
:1015C000FFF744BF818D4908FFF708BD016851E866
:1015D000031F026821F4907142E80313002BF5D138
:1015E000016851E8051F026821F0010142E8051376
:1015F000002BF5D1016B012909D1016851E8031FC6
:10160000026821F0100142E80313002BF5D12021DC
:1016100080F84210002101637047016851E8031F00
:10162000026821F0C00142E80313002BF5D120210C
:1016300080F84110704781B090F84210222920D1E3
:101640008368B3F5805F08D10169002949D000F1B2
:1016500028010A6803685B680AE0014651F8282FF0
:1016600013B90369002BF5D003685B6803F07F03AF
:1016700013700A6801320A60C18D0139C1850904FD
:1016800001D001B070470168CA6822F02002CA6028
:10169000CA6822F48072CA604A6922F001024A6173
:1016A000202280F8422000224263036B012B21D1CB
:1016B000026351E8031F026821F0100142E803139E
:1016C0000168002BF5D10A68D20606D500220092E7
:1016D0000A680092496800910099818D01B0FFF776
:1016E0007DBC0168826A49686FF35F2122F8021BA2
:1016F0008262C1E701B0FFF7A7BE0000B0B50446A3
:10170000006804F108030ECB0569194325F4405520
:101710002A430261C268636941F20C65AA43194316
:101720001143C1604169A26921F4407111434161D3
:101730001149884202D0FFF763FA01E0FFF76AFA25
:1017400019214843D4E900126FF063049200B0FB02
:10175000F2F06422B0FBF2F303FB0400322404EB4A
:101760000010B0FBF2F000F0F00202EB031200F008
:101770000F0010448860B0BD00380140F8B5134632
:1017800000250446456483858162222084F8420056
:101790000A462168E06B1C4E00F1280E0431DFF888
:1017A00060C0184F8EE8C0104563FEF7E5FF009556
:1017B000206801680091416800910099216949B150
:1017C00050E8030F216840F4807041E803020AB139
:1017D0002068F5E7206850E8050F216840F0010017
:1017E00041E80502002AF5D1206850E8050F21687C
:1017F00040F0400041E80502002AF5D10020F8BD84
:10180000E9140008B5150008371500084F48FFF720
:10181000E7BB00BFFEE7000010B5074C00F00F0368
:101820002344044AB0F1FF3FC8BF83180801187071
:1018300010BD00BF00E400E014ED00E08AB0002518
:10184000CDE90455CDE90255CDE90055FFF7B2F8D1
:10185000FFF710FE3A4F01217868002240F0200087
:1018600078607868012600F0200006900698786875
:1018700040F004007860786800F004000690069854
:10188000304800F5444480462046FFF77FF80220A8
:10189000CDE9086006A92046CDE906664646FEF772
:1018A0009FFF3868002140F001003860386800224E
:1018B00000F00100069006980F20FFF7D7F80F20E0
:1018C000FFF7C6F8102000210022FFF7CFF8102004
:1018D000FFF7BEF81C480C244FF4165708F5744166
:1018E000C0E90017C0E90255C0E90454C0E9065533
:1018F000FFF7BEFC18B1EFF3108072B6FEE7134895
:10190000C0E90067C0E90255C0E90454C0E90655C2
:10191000FFF7AEFC18B1EFF3108072B6FEE70A488D
:1019200003A90C22FFF780FD094801214FF0FF3287
:10193000FEF706FE054869460C22FFF775FDFEE737
:101940001410024000440040F80000204001002034
:1019500070000020000000000000000001020304ED
:10196000060708090000000001020304901900089E
:10197000000000201000000028010008A019000845
:101980001000002080070000440100080000000053
:10199000010000001000000000127A0000000000AA
:04000005080000ED02
:00000001FF
