:020000040800F2
:10000000C806002089010008E11A0008011800084C
:10001000DF1A00088F020008531B000800000000D0
:10002000000000000000000000000000E51A0008C9
:100030009102000800000000E31A0008E71A000817
:10004000A3010008A3010008A3010008A301000800
:10005000A3010008A3010008A3010008A3010008F0
:10006000A3010008A3010008A3010008A3010008E0
:10007000A3010008A3010008A3010008A3010008D0
:10008000A3010008A3010008A3010008A3010008C0
:10009000A3010008A3010008A3010008A3010008B0
:1000A000A3010008A3010008A3010008A3010008A0
:1000B000A3010008A3010008A30100080D1800080F
:1000C00005180008A3010008A3010008A301000807
:1000D000A3010008A3010008A3010008A301000870
:1000E000A3010008A3010008A301000800F002F822
:1000F00000F03AF80AA090E8000C82448344AAF188
:100100000107DA4501D100F02FF8AFF2090EBAE885
:100110000F0013F0010F18BFFB1A43F0010318473B
:10012000F41A0000141B0000103A24BF78C878C1EC
:10013000FAD8520724BF30C830C144BF04680C60ED
:10014000704700000023002400250026103A28BF35
:1001500078C1FBD8520728BF30C148BF0B60704739
:100160001FB51FBD10B510BD00F058F81146FFF7C0
:10017000F7FF01F001FD00F076F803B4FFF7F2FF9E
:1001800003BC00F07DF8000009488047094800479B
:10019000FEE7FEE7FEE7FEE7FEE7FEE7FEE7FEE737
:1001A000FEE7FEE704480549054A064B7047000094
:1001B000511B0008ED000008C8000020C806002000
:1001C000C8020020C80200204FF0000200B513460C
:1001D00094469646203922BFA0E80C50A0E80C5067
:1001E000B1F12001BFF4F7AF090728BFA0E80C5018
:1001F00048BF0CC05DF804EB890028BF40F8042B11
:1002000008BF704748BF20F8022B11F0804F18BF7D
:1002100000F8012B7047704770477047754600F033
:100220002BF8AE4605006946534620F00700854688
:1002300018B020B5FFF7B6FFBDE820404FF000062C
:100240004FF000074FF000084FF0000BAC46ACE851
:10025000C009ACE8C009ACE8C009ACE8C00921F0AD
:1002600007018D46704710B50446AFF30080204665
:10027000BDE81040FFF781BF004870471000002024
:1002800001491820ABBEFEE7260002007047FEE7DA
:1002900070470000B0B590F8211002291CD1036806
:1002A0001F4C1968012221F00E0119601968A34240
:1002B00021F001011960194912D01A4CA34211D042
:1002C000194CA34210D0194CA34210D0184CA34291
:1002D00010D14FF4803415E00421816301211BE02B
:1002E00001240FE010240DE04FF480740AE04FF475
:1002F000805407E001F168054FF08074AB4208BFFD
:100300004FF480140C60002180F8201080F8212028
:10031000426B0AB1904700210846B0BD040002407C
:10032000080002401C00024030000240440002402D
:100330005800024090F82100704700002DE9FC4F62
:10034000594A04234FF0000B4FF001084FF00F0EF5
:100350004FF000090025904208BF032300930B686B
:1003600033FA05F208BFBDE8FC8F08FA05F2134224
:1003700000F096804F68032F16D9112F24D0122F2A
:1003800026D04D4B9F4213D04C4B9F4210D04C4B2C
:100390009F420DD04B4B9F420AD04B4B9F4207D000
:1003A0004A4B9F4204D020E0DFE807F00216191DF7
:1003B0008B6833B1012B14BF426102614FF0080911
:1003C00013E04FF0040910E0CB6803F104090CE0DE
:1003D000CB6803F10C0908E0D1F80C9005E0CB687C
:1003E00003F1080901E04FF000095B460646082DBD
:1003F00028BF203B28BF043637680EFA03F427EAEB
:10040000040409FA03F323433360CB79DB0647D5B1
:10041000284B264E1C461B68A6F57E7643F001034A
:10042000236023680BF00C0C03F001030193019C83
:10043000AC0856F824700EFA0CF327EA030A244B92
:10044000984208D0234B984207D0234B9842009BF8
:1004500008BF022302E0002300E0012303FA0CF3AB
:1004600043EA0A0346F824304F68104CFB02A368A5
:1004700054BF934313430E4EA360BB02336854BF73
:10048000934313433360BB03636854BF93431343E5
:100490006360FB03236854BF23EA02021A4322600D
:1004A0000BF1040B01355AE7001401400004014030
:1004B0000C0401401810024000001110000012103E
:1004C0000000211000002210000031100000321046
:1004D00000080140000C0140001001400148006884
:1004E000704700BFC400002070477047F8B504464D
:1004F00000684769416801F4807694F83E103E42F6
:1005000008D06FF4807242610268012542F4004213
:10051000026000E00025BA0504D51EB16FF4007238
:10052000023542617A0515D5A6B1628D94F83D3049
:10053000D4F830C0202908BF002A1ED06FF4806292
:1005400004354029426101D0102903D1016841F4EA
:1005500000710160380506D52EB120686FF4006186
:100560000835416100E03DB1206C284320642046FD
:10057000BDE8F84001F0B0B9F8BD43F00801292901
:1005800009D0282B08BFBCF1210F04D06FF4806183
:1005900041610435DEE794F83D10E26A202A01D07B
:1005A000082A1BD121291BD0282936D11D49E162F7
:1005B000416821F4E06141606FF48061416101684C
:1005C00021F48061016000202021206384F83D1027
:1005D00084F83E00204600F07DFDBBE721291CD1B8
:1005E0001049E16221212163202184F83D1000217E
:1005F00084F83E10426822F4E06242606FF4806248
:100600004261026822F4806202604269120648BFB9
:100610000161204600F0A4FD9CE76FF48061416118
:1006200098E700BF0000FFFF2DE9FC41D0F80080F3
:100630000446C6465EF8043FC16A90F83E5090F802
:100640003D20402D01D0102D21D1D8F81870D8F8B8
:100650001460F00775D1B1F12A4F00F0B483B1F501
:100660002A0F00F0B08313F400704FF0010181EA0B
:10067000502C18BF16F0080067D0616B606C002921
:10068000C0B2C8F8100000F04881886A44E1206CCC
:1006900000280CBFD8F818600026D8F8145013F4BE
:1006A000007718BF15F0020040F0B780002F00F06F
:1006B000D78015F0100000F0D38094F83D50D8F8A2
:1006C000040020F4E060C8F8040000200190D8F88D
:1006D00014000190D8F8000040F00100C8F80000B4
:1006E0000198D8F8000020F48060C8F80000D8F81D
:1006F0000400000540F1E88145F008002A2840F098
:10070000C581A06B016849686185618D19B1216C53
:1007100041F004012164DEF8001021F40061CEF8FC
:100720000010FFF707FE012800F0CE81A06BDFF874
:1007300024184163FFF7AEFD002800F0C581A06BCF
:10074000C0E1980531D44FF0010CBCF1000F33D15A
:1007500016F0020030D094F83E10E26A236B94F851
:100760003D00222840F0E9804029256D08BF002D7A
:1007700000F0E380206D002840F067812069B0F52B
:10078000404F40F0628100200190D8F814000190A1
:10079000D8F8180001900198D8F8000040F4807053
:1007A000C8F80000206D013090E3E06AB0F52A0F30
:1007B00040F0898001218BE0DEF8000000F4006148
:1007C000780700F1C580002940F0FD82580540F10E
:1007D000E78106F04400402840F0E28194F83D00B3
:1007E000222840F0F082E26A618D0429C0F06C8218
:1007F000606AD8F810100170608D01386085606AF9
:1008000001306062608D032840F0DD82206841681D
:1008100021F480614160BDE8FC81206C08B1D8F80A
:10082000186094F83D0000F02800282840F0B680B9
:10083000DEF8000020F48060CEF80000002084F88C
:100840003C0030064FF0180058BF0C20225A0120FF
:1008500020EA9601204602B0BDE8F041FFF745BE10
:1008600042F00800292840F0B480580540F1DC80AF
:1008700005F08400802840F0D78094F83D10608D0A
:10088000002800F0A082606A292910F8012BC8F81E
:100890001020628DA2F1010262856062608D08BF46
:1008A000002840F09082DEF8000020F48060CEF84E
:1008B000000021202063282084F83D002046BDE868
:1008C000FC4100F04DBCE06AB0F12A4F01D1082193
:1008D000E16294F83E0040280DD1206D616C002843
:1008E00001F0FE010EBFC8F8101041F00100C8F879
:1008F0001000BDE8FC812069B0F5804F5BD194F811
:100900003D00616C212801F0FE0118BF0131C8F8DB
:100910001010606B08B1806A38B9A06B002800F035
:100920005282806A002800F04E82DEF8000040F417
:100930000060CEF80000BDE8FC8100200190D8F8EE
:1009400014000190D8F8180001900198BDE8FC81CE
:10095000002940F03882580540F1378106F08400C4
:10096000802840F0328194F83D3094F83E20258D67
:10097000E16A212B08BF002D00F08381212B04D0D8
:10098000222B08BF402A40F01E82608D002800F014
:10099000CF8194F83E00402851D1E4E1002001903D
:1009A000D8F814100191D8F818100191019984F821
:1009B0003C00BDE8FC81206D002800F0E880206D3F
:1009C000012840F00082606C062101EAD010F1306D
:1009D000E2E0580540F1CF8005F04400402840F0A7
:1009E000CA8094F83D10608D002800F0EC81606AA8
:1009F000D8F810202A290270608DA0F101006085CE
:100A0000606A00F101006062608D08BF002840F05C
:100A1000DA812068416821F48061416022202063EE
:100A2000282084F83D00A1E0002F00F0CC8115F0D3
:100A3000040000F0C881608D002800F0C481606A65
:100A400010F8011BC8F81010B9E1608D70B1608D0D
:100A5000012840F0DE80202A18BF082A40F0888153
:100A6000D8F8000020F48060C8F800000020019051
:100A7000D8F814000190D8F8180001900198D8F81F
:100A8000000040F40070C8F800001EE2606B0168CE
:100A900049686185618D19B1216C41F004012164BF
:100AA000DEF8001021F40061CEF80010FFF742FCE0
:100AB000012809D0606BDFF8741F4163FFF7EAFB80
:100AC00010B1606B416B8847608DF8B12068416957
:100AD000490709D5616A00690870616A20680131B7
:100AE0006162618D013961854169490608D5616A94
:100AF00000690870606A01306062608D013860854D
:100B0000608D18B1206C40F004002064206C20B18E
:100B10002046BDE8FC4100F0DFBE2A2D07D10020B1
:100B20002063282084F83D00204600F017FB94F84D
:100B30003D0028280DD1E7482021E06200202063F5
:100B400084F83D1084F83E002046BDE8FC4100F0EA
:100B5000C1BA222D206B18BF222840F0348100201A
:100B60002021206384F83D1084F83E002046BDE833
:100B7000FC4100F0F3BA002F00F0258115F00400CD
:100B800000F02181608D002840F013811BE1606C32
:100B9000062101EAD010F030C8F81000BDE8FC8151
:100BA00006F00400012181EA900050EA0C0040F0B8
:100BB0000A81E26A608D042840F0BF80D8F8040002
:100BC00020F48060C8F80400F3E006F0040001217E
:100BD00081EA900050EA0C0040F0F580212A40F0B4
:100BE000C080E26A94F83D00212840F0EC80608DDE
:100BF00000287FF424AFDEF8000012F5803F20F4D7
:100C0000E060CEF8000018BF082A46D0202A44D061
:100C1000EFE0608DD8F80010022816D1102A00F2FB
:100C2000F5800120C94B9040184200F0EF8041F45C
:100C30008060C8F8000000200190D8F814000190EE
:100C4000D8F8180001900198F3E041F48060C8F8EA
:100C50000000D8F80400000540F12E81511E1F2924
:100C600004D801208840B849084203D112F5803FDA
:100C700040F02281DEF8000040F48050CEF8000001
:100C80001AE1DEF8000011F5803F20F4E060CEF8B4
:100C9000000018BF082940F0A980D8F800002021E2
:100CA00040F40070C8F800000020206384F83D1074
:100CB00094F83E1084F83E00402940F0A28020467F
:100CC000BDE8FC4100F00ABAE36A012930D8022BE2
:100CD0002ED0002001909E4846F2A8110068B0FB7B
:100CE000F1F000EB8000019001980138019001982B
:100CF000002800F0B580D8F800008005F4D4D8F8BA
:100D0000000020F48060C8F80000D8F8040020F447
:100D1000E060C8F80400606AD8F810100170608DB7
:100D200001386085202084F83D00606A0130F1E0E0
:100D3000DEF8000020F48060FBE5608D03282CD1F4
:100D4000DEF80000022A20F48060CEF8000030D0E7
:100D5000042A2ED0D8F8000020F48060C8F80000E3
:100D600027E0402D2FD12046BDE8FC4100F062BEB7
:100D700012F5803F29D1D8F8000020F48060C8F82F
:100D80000000D8F8040000057FF570AED8F8000028
:100D900020F48060C8F800008EE0608D022808D141
:100DA000102A01D0012A7AD1D8F8000020F48060FE
:100DB00094E0606AD8F810100170606A01306062D7
:100DC000608D01386085BDE8FC81012A02D0122BBC
:100DD0003FF446AED8F80010102A69D801209040A0
:100DE0005A4A104264D041F4806163E020293FF404
:100DF00054AF11202063002084F83E00202084F8A6
:100E00003D002046BDE8FC4100F066B941F40060B9
:100E1000C8F8000000200190D8F814000190D8F81C
:100E2000180001900198D8F8000020F48060C8F8FC
:100E30000000DEF80000000547D5501E1F2805D829
:100E4000012101FA00F04049084202D112F5803F29
:100E50003BD1DEF8000040F48050CEF8000034E0D2
:100E6000206C40F020002064D8F8040020F4E060FA
:100E7000C8F80400606AD8F810100170608D01385D
:100E80006085202084F83D00606A013060620020A7
:100E900084F83E002046BDE8FC4100F05DB8D8F87B
:100EA0000010042A01D0022A16D141F4806015E016
:100EB00021F48061C8F8001000200190D8F81400D7
:100EC0000190D8F818000190019800202065BDE835
:100ED000FC8100BF0000FFFF41F40070C8F8000073
:100EE000606AD8F810100170608D01386085616A01
:100EF00020684B1C636200694870608D0138608512
:100F00002068616A436823F440734360202084F8BA
:100F10003D00481C606294F83E100020402984F88F
:100F20003E0005D120632046BDE8FC4100F0D5B865
:100F30000020082A02D0202A18BF12202063204651
:100F4000BDE8FC4100F0C7B88180008014000100BA
:100F5000080000201518000870470000F8B560B3BD
:100F6000044690F83D0028B9002084F83C00204653
:100F700000F0B6F8242084F83D002068016821F0D4
:100F800001010160016841F400410160016821F440
:100F90000041016000F050FA49494A4B0022884262
:100FA0004FF0000138BF0121984238BF0122636829
:100FB000454DAB4238BF0A460AB10120F8BD43494E
:100FC000434EB0FBF1F22168B3424D6825F03F0576
:100FD00045EA02054D600D6A25F03F0511D8013242
:100FE0002A430A625A000138B0FBF2F04CF6FF7354
:100FF00001306FF31F30042898BF0420CA699A4358
:1010000037E04FF4967672434FF47A76B2FBF6F2FD
:10101000013801322A430A62CA694CF6FF75AA43B5
:10102000A56845B119265E43B0FBF6F604270136E4
:1010300067F31F3606E003EB4306B0FBF6F6013616
:101040006FF31F36360509D055B119256B43B0FB38
:10105000F3F00423013063F31F3008E0012008E0BF
:1010600003EB4303B0FBF3F001306FF31F3040F4A8
:1010700000401043C861E0690A6804F10C0622F0E0
:10108000C0021043226A10430860886848F2FF32A9
:1010900090436CCE184310438860C86820F0FF006E
:1010A00028433043C860086840F001000860002011
:1010B0002021206484F83D10206384F83E00F8BDB0
:1010C00080841E0000093D00A186010040420F00FF
:1010D000A086010070477047704770477047000056
:1010E00010B586B00021CDE90411CDE902110168E7
:1010F000194881422DD1624C00F53840216841F0F9
:1011000008012160216801F0080101910321059186
:1011100012210391C0210291019902A9FFF70EF952
:101120006068002140F4001060606068002200F4F4
:101130000010019001981F2000F0B4F81F2000F06B
:10114000A3F820200021002200F0ACF8202000F0BD
:101150009BF806B010BD00BF0054004000BF7047B0
:1011600070470000B0B590F83D30202B06D1012328
:1011700029B122B190F83C30012B02D1022318464C
:10118000B0BD012380F83C3004682368DB0703D13D
:10119000236843F00103236023680E4D23F40063AA
:1011A0002360222380F83D30202380F83E30002346
:1011B00003644285428DC562256845F480652560DB
:1011C000416280F83C300285606840F4E060606015
:1011D000D5E700BF0000FFFF1A48034900780A68FE
:1011E00010440860704700BFC400002080B58F48DD
:1011F000016841F010010160032000F06FF80F203A
:1012000000F004F800F020F8002080BD70B50D4E0D
:10121000044630784FF47A71B1FBF0F08B490968DD
:10122000B1FBF0F000F0D8FA01250F2C08D838B93E
:101230004FF0FF3021460022002500F033F87460A3
:10124000284670BD0000002082B00D4804220168CD
:1012500041F001010160016801F001010191019972
:10126000416841F080514160406800F0805000903A
:1012700000980448016862F31A61016002B0704787
:101280001810024004000140002808D400F01F019B
:10129000012202FA01F1024A400942F82010704787
:1012A00000E100E0B0B5134B4FF0FF351B68C3F30E
:1012B0000223DC1E83F0070338BF0024042B28BF61
:1012C000042305FA03F3994305FA04F3A1409A4372
:1012D0001143BDE8B04000F03DBC00BF05494FF6EA
:1012E000FF030A681A4060F30A22034810430860AB
:1012F000704700BF0CED00E00000FA052DE9F8434F
:10130000002800F09080884648490446086800F0AC
:10131000070040450AD2086820F0070040EA0800AC
:101320000860086800F0070040457CD12068564BF3
:101330008946810711D5410703D5196841F4E06159
:101340001960010703D5196841F460511960A1685B
:101350001A6822F0F00211431960C0072BD06068B0
:10136000012804D153F8041C890309D45BE053F825
:10137000041C022802D1890102D454E0890752D505
:1013800019681D4621F0030108431860FFF7A6F80D
:10139000064641F28837606829682B4601F00C0147
:1013A000B1EB800F07D0FFF799F8801BB842F2D954
:1013B0000320BDE8F883D9F8000000F0070040459D
:1013C0000DD9D9F8000020F0070040EA0800C9F85C
:1013D0000000D9F8000000F00700404523D1206844
:1013E000410705D5E1681A6822F4E06211431960EB
:1013F000000706D52069196821F4605141EAC00050
:1014000018601C4600F026F82168094AC1F3031150
:10141000515CC840EE49086006480068FFF7F6FED8
:101420000020BDE8F8830120BDE8F88300200240D9
:10143000FC1B000804000020E54813490068096807
:10144000034AC1F30221515CC840704708000020E4
:101450000C1C000810B50C490C480A6802F00C037B
:10146000082B07D1C2F3834309A4E35CD20302D45F
:101470000C48584310BD096809A2C1F34041515CB2
:101480005843B0FBF1F010BD0410024000127A0086
:1014900002030405060708090A0B0C0D0E0F1010B5
:1014A0000102000000093D002DE9FC41002800F088
:1014B000CC8004460078C44EC0074AD0706800F063
:1014C0000C00042817D0706800F00C00082802D126
:1014D0007068C0030FD4606898B1B0F5803F06D043
:1014E0003168B0F5A02F21D141F480203060306800
:1014F00040F4803020E0306880032AD5606840BB2B
:10150000A3E0306820F480303060306820F4802020
:101510003060FEF7E3FF05463068800319D5FEF71B
:10152000DDFF411B03206429F6D94AE121F4803014
:101530003060306820F480203060FEF7CFFF054631
:101540003068800305D4FEF7C9FF401B6428F7D933
:101550000AE1207880072CD5706810F00C0F07D0B6
:10156000706800F00C00082809D17068C00306D428
:101570003068800716D52069012813D065E02169FD
:101580009248002900F0B58001210160FEF7A6FF16
:1015900005463068800705D4FEF7A0FF401B0228EF
:1015A000F7D9E1E06069316821F0F80141EAC00053
:1015B0003060207800072ED5A06978B183480121DA
:1015C000C0F88014FEF78AFF0546706A800715D4BC
:1015D000FEF784FF401B0228F7D9C5E07B480021B5
:1015E000C0F88014FEF77AFF0546706A800712D5AE
:1015F000FEF774FF401B0228F7D9B5E0B5484FF459
:10160000FA510068B0FBF1F0019000BF0198411E53
:1016100000280191F9D12078400719D4E769002FFB
:1016200000F0CE80706800F00C00082843D1012F34
:101630000BD0216A706800F480328A4205D1616A59
:1016400000F47010884200F0BB800120BDE8FC81EE
:10165000F069C0000BD4F0694FF0010840F08050F1
:10166000F061F06900F080500090009801E04FF0C8
:101670000008584F3868C0050FD4386840F48070AF
:101680003860FEF72BFF05463868C00505D4FEF725
:1016900025FF401B6428F7D966E0E068C8B301283D
:1016A00005D0316A05284BD141F004003062306A20
:1016B00040F001004AE04549002088460866FEF7F0
:1016C0000DFF0546022F0AD147463068800157D5E5
:1016D000FEF704FF411B03200229F6D971E03068B0
:1016E00080016DD5FEF7FAFE411B03200229F6D9D1
:1016F00067E000210160FEF7F1FE054630688007D3
:101700007FF557AFFEF7EAFE411B03200229F5D90A
:1017100057E0306A20F001003062306A20F00400A7
:101720003062FEF7DBFE054641F28837306A8007FB
:101730001DD5FEF7D3FE411B0320B942F6D940E088
:1017400021F001003062306A20F004003062FEF7C0
:10175000C5FE054641F28837306A800707D4FEF798
:10176000BDFE401BB842F7D90320BDE8FC81B8F1AB
:10177000000F3FF453AFF06920F08050F0614DE767
:10178000206AB0F5803F05D1A168726822F400326A
:1017900011437160616A0843716821F47411084350
:1017A000706001203866FEF799FE044630688001BB
:1017B00006D4FEF793FE011B03200229F6D900E0B0
:1017C0000020BDE8FC8100BF001002400000424242
:1017D0000800002000700040411E0020B0EB116F97
:1017E0001CBF01207047044AF023516003490B706D
:1017F000072190601160704710E000E023ED00E0E9
:10180000FEE70000FA48FEF771BE00BFF848FEF799
:101810000BBF00BFBCB5002101912E4946F2A812B2
:101820000968406AB1FBF2F123224A4390F83D1067
:101830000192019A3AB1019A013A01920268126842
:101840009205F6D403E0026C42F020020264436B7E
:101850000BB100229A62846B0CB10022A262026872
:10186000156825F4806515604FF00005458503B1C6
:101870005D630CB100236363136823F001031360FD
:1018800090F83D30602B09D1202180F83D100021D7
:1018900080F83E100164FEF727FEBCBD01F0280170
:1018A00028290DD1116841F001011160116841F43E
:1018B0008061116000210163282180F83D1005E05E
:1018C000202180F83D10002180F83E10FFF744FBF6
:1018D000BCBD00BF0800002010B5044690F83D10C4
:1018E00090F83E00402801D0102807D1222905D1C8
:1018F0002068026822F4006202600BE001F0280018
:10190000282806D100202063282084F83D00206884
:101910000EE020684268602908D012F4006105D109
:10192000202184F83D10002184F83E10002121631D
:10193000416809051AD494F83D10602939D1202155
:1019400084F83D10002121644169490606D5616A89
:1019500000690870616A206801316162016821F0E4
:10196000010101602046FEF7BFFD3FE0416821F420
:1019700000614160606B90F82110012926D1A06BB5
:101980002A494163FEF786FC80B320684169490615
:1019900006D5616A00690870616A20680131616278
:1019A000016821F001010160202084F83D00A06B56
:1019B0001AE04169490605D5616A00690870606AE4
:1019C000013060622046FFF7C7FA0FE01749416314
:1019D000FEF760FC50B12168606B0A6822F00102DA
:1019E0000A60202184F83D10416B8847206C000775
:1019F00004D02068416821F4E061416094F83D1012
:101A0000206C282910D110F004000DD008482021A6
:101A1000E0620020206384F83D1084F83E002046F8
:101A2000BDE81040FFF756BB10BD00BF15180008F9
:101A30000000FFFF90F83D10026D3AB1026D012ADF
:101A40000ED10168826CD2B20A6118E0C26C816C5E
:101A5000012A10D10268C9B21161016D023110E092
:101A6000026D022A0FD1222914D101680A6842F4BA
:101A700080720A6003E00268C1F307211161016D01
:101A800001310165704700684169090644BF0021C2
:101A900001617047428D21290AD14AB1426A016829
:101AA00012F8013B0B614262418D0139418570475B
:101AB0002129428D08BF002AEBD101684A6822F42F
:101AC000E0624A600A6842F400720A600021202243
:101AD000016380F83D2080F83E10FFF7FFBAFEE773
:101AE000FEE770477047FFF777BBB0B590B00024B2
:101AF00001A81421CDE90B44CDE90944FEF764FBAC
:101B00004FF4E0100F904FF48030022501210E9029
:101B10000D950A910894CDE9061006A8FFF7C4FCBC
:101B200018B1EFF3108072B6FEE74FF480600594B1
:101B3000CDE903400F20CDE9010501A80221FFF7FF
:101B4000DDFB18B1EFF3108072B6FEE710B0B0BD48
:101B50007047FEE710B5074C00F00F032344044A1A
:101B6000B0F1FF3FC8BF83180801187010BD00BF57
:101B700000E400E014ED00E084B000248DF806409D
:101B8000ADF80440FFF732FBFFF7AFFF17494FF402
:101B90008042086840F020000860086800F02000DB
:101BA00003900398086840F008000860104802613C
:101BB0006022C0E902420F4A42600F4A026009688F
:101BC000C0E9054401F00801C0E907440291029907
:101BD000FFF7C4F918B1EFF3108072B6FEE70448BE
:101BE00001A90322FFF7BEFAFEE700BF181002406A
:101BF00070000020A086010000540040000000009A
:101C000000000000010203040607080900000000AC
:101C100001020304381C000800000020100000002E
:101C200028010008481C000810000020B806000029
:101C30004401000800000000010000001000000046
:081C400000127A000000000010
:04000005080000ED02
:00000001FF
