:020000040800F2
:100000009807002089010008331A0008C51200086B
:10001000311A0008AF020008A51A0008000000000D
:10002000000000000000000000000000371A000877
:10003000B102000800000000351A0008391A000853
:10004000A3010008A3010008A3010008A301000800
:10005000A3010008A3010008A3010008A3010008F0
:10006000A3010008A3010008A3010008A3010008E0
:10007000A3010008A3010008A3010008A3010008D0
:10008000A3010008A3010008A3010008A3010008C0
:10009000A3010008A3010008A3010008A3010008B0
:1000A000A3010008A3010008A3010008A3010008A0
:1000B000A3010008A3010008A3010008A301000890
:1000C000A3010008A3010008A3010008A301000880
:1000D000A3010008A3010008A3010008A301000870
:1000E000A3010008A3010008A301000800F002F822
:1000F00000F03AF80AA090E8000C82448344AAF188
:100100000107DA4501D100F02FF8AFF2090EBAE885
:100110000F0013F0010F18BFFB1A43F0010318473B
:10012000D03D0000F03D0000103A24BF78C878C1EF
:10013000FAD8520724BF30C830C144BF04680C60ED
:10014000704700000023002400250026103A28BF35
:1001500078C1FBD8520728BF30C148BF0B60704739
:100160001FB51FBD10B510BD00F06CF81146FFF7AC
:10017000F7FF01F049FF00F08AF803B4FFF7F2FF40
:1001800003BC00F08DF8000009488047094800478B
:10019000FEE7FEE7FEE7FEE7FEE7FEE7FEE7FEE737
:1001A000FEE7FEE704480549054A064B7047000094
:1001B000A31A0008ED00000898010020980700200D
:1001C00098030020980300204FF0000200B513466A
:1001D00094469646203922BFA0E80C50A0E80C5067
:1001E000B1F12001BFF4F7AF090728BFA0E80C5018
:1001F00048BF0CC05DF804EB890028BF40F8042B11
:1002000008BF704748BF20F8022B11F0804F18BF7D
:1002100000F8012B704770477047704710B500F029
:1002200009F8006810BD10B5044600F003F804603A
:1002300010BD0000004870472000002000487047B3
:10024000200000207546FFF7F9FFAE46050069461D
:10025000534620F00700854618B020B5FFF7A2FFEF
:10026000BDE820404FF000064FF000074FF00008B7
:100270004FF0000BAC46ACE8C009ACE8C009ACE8F4
:10028000C009ACE8C00921F007018D46704710B5E0
:100290000446AFF300802046BDE81040FFF76DBF75
:1002A00001491820ABBEFEE7260002007047FEE7BA
:1002B0007047000070B5044601F018FA2E4E002574
:1002C000307038B1042D12D8C82000F05DF83078B5
:1002D0000135F6E706F11A057068092809DC2046A1
:1002E000294601F017FB642000F04EF8F4E70120E6
:1002F00070BD002070BD00BF2DE9F0411E4F0446C7
:100300007D6807F11A0101F005FB07F11401204691
:1003100001F0DEFA07F12001204601F041FB0A2D31
:10032000B8BFBDE8F081B7F91400B7F91650B7F9B6
:100330001860B7F91A8003F055FB104C206028466E
:1003400003F050FB6060304603F04CFBA060404679
:1003500003F048FBE060B7F91C0003F043FB2061A9
:10036000B7F91E0003F03EFB0549064A60612046CE
:10037000BDE8F04101F0AABBC80000200801002040
:10038000FC0000200AD7233CB0B5044600F0DEF89C
:1003900005460548611C007818BF044400F0D6F8F3
:1003A000401BA042FAD3B0BD000000202DE9FC4F55
:1003B000594A04234FF0000B4FF001084FF00F0E85
:1003C0004FF000090025904208BF032300930B68FB
:1003D00033FA05F208BFBDE8FC8F08FA05F21342B4
:1003E00000F096804F68032F16D9112F24D0122FBA
:1003F00026D04D4B9F4213D04C4B9F4210D04C4BBC
:100400009F420DD04B4B9F420AD04B4B9F4207D08F
:100410004A4B9F4204D020E0DFE807F00216191D86
:100420008B6833B1012B14BF426102614FF00809A0
:1004300013E04FF0040910E0CB6803F104090CE06D
:10044000CB6803F10C0908E0D1F80C9005E0CB680B
:1004500003F1080901E04FF000095B460646082D4C
:1004600028BF203B28BF043637680EFA03F427EA7A
:10047000040409FA03F323433360CB79DB0647D541
:10048000284B264E1C461B68A6F57E7643F00103DA
:10049000236023680BF00C0C03F001030193019C13
:1004A000AC0856F824700EFA0CF327EA030A244B22
:1004B000984208D0234B984207D0234B9842009B88
:1004C00008BF022302E0002300E0012303FA0CF33B
:1004D00043EA0A0346F824304F68104CFB02A36835
:1004E00054BF934313430E4EA360BB02336854BF03
:1004F000934313433360BB03636854BF9343134375
:100500006360FB03236854BF23EA02021A4322609C
:100510000BF1040B01355AE70014014000040140BF
:100520000C040140181002400000111000001210CD
:1005300000002110000022100000311000003210D5
:1005400000080140000C0140001001400148006813
:10055000704700BF94010020F8B560B3044690F8DE
:100560003D0028B9002084F83C00204600F094FAB1
:10057000242084F83D002068016821F00101016019
:10058000016841F400410160016821F4004101600B
:1005900000F0D2FB49494A4B002288424FF000014B
:1005A00038BF0121984238BF01226368454DAB42F4
:1005B00038BF0A460AB10120F8BD4349434EB0FB9B
:1005C000F1F22168B3424D6825F03F0545EA020586
:1005D0004D600D6A25F03F0511D801322A430A62A9
:1005E0005A000138B0FBF2F04CF6FF7301306FF3A4
:1005F0001F30042898BF0420CA699A4337E04FF49B
:10060000967672434FF47A76B2FBF6F201380132F5
:100610002A430A62CA694CF6FF75AA43A56845B128
:1006200019265E43B0FBF6F60427013667F31F3642
:1006300006E003EB4306B0FBF6F601366FF31F3618
:10064000360509D055B119256B43B0FBF3F00423EF
:10065000013063F31F3008E0012008E003EB43039F
:10066000B0FBF3F001306FF31F3040F40040104353
:10067000C861E0690A6804F10C0622F0C002104368
:10068000226A10430860886848F2FF3290436CCEBB
:10069000184310438860C86820F0FF0028433043A7
:1006A000C860086840F00100086000202021206434
:1006B00084F83D10206384F83E00F8BD80841E005D
:1006C00000093D00A186010040420F00A086010004
:1006D0002DE9F04F85B0044600201F4616460D4612
:1006E0000490FFF733FF814694F83D0020280CD199
:1006F000E749204601221923CDF8009000F002FFBF
:1007000018B994F83C00012803D1022005B0BDE8D7
:10071000F08F012284F83C2022680DF1380813681C
:1007200098E80301DB0703D1136843F0010313606A
:10073000136823F400631360222284F83D204022D2
:1007400084F83E200022226461856062608DD14978
:100750003246E1622085204629463B46CDE90089A4
:1007600000F0CAFD002840F0F880218D01290DD04D
:1007700011BB0020039020684169039181690391B6
:100780000399016841F40071016037E02068016855
:1007900021F480610160EFF3108072B600200390B5
:1007A000206841690391816903910399016841F4CB
:1007B0000071016062B621E020680229026813D14D
:1007C00042F400610160EFF3108072B600200390E4
:1007D000206841690391816903910399016821F4BB
:1007E0008061016062B609E042F48061016000212D
:1007F000039141690391806903900398208D5C4FB8
:10080000DFF8CCA846F2A81B2325010400F0A7803E
:1008100086B2032E0AD8012E2BD1204641464A46E5
:1008200000F007FF002800F07C8096E0204641465B
:100830004A4600F0FEFE002840F08F802068616A82
:1008400000690870608D01386085606A2168421C0B
:100850006262208D013820854B695B07D5D580B257
:10086000032803D1086820F48060086008691070CC
:100870005BE02046394600224346CDF8009000F068
:1008800041FE022E17D1002867D1EFF3108072B617
:100890002068616A026842F40072026000690870B0
:1008A000606A01306062608D01386085208D01389A
:1008B000208562B635E000284FD12068016821F418
:1008C00080610160EFF3108072B62068616A006990
:1008D0000870608D01386085606A01306062218D2A
:1008E00001392185DAF80010B1FBFBF1694304916D
:1008F000049901390491049909B321684A6952079E
:10090000F6D50A6842F400720A6009690170606AEB
:1009100001306062208D01382085608D013860854E
:1009200062B62068616A00690870606A01306062BE
:10093000208D01382085618D0139618565E70020B2
:100940002021206384F83D1084F83E00216C41F0A2
:100950002001216462B684F83C000120D6E6202004
:1009600084F83D00002084F83C0084F83E00CDE689
:10097000040001002DE9FE43994616460F46044641
:10098000FFF7E4FD054694F83D0020280BD14049CF
:10099000204601221923009500F0B4FD18B994F8FF
:1009A0003C00012802D10220BDE8FE83012284F828
:1009B0003C2022680DF12808136898E80301DB0742
:1009C00003D1136843F001031360136823F4006339
:1009D0001360212284F83D20402284F83E2000222A
:1009E000226461856062608D2A493246E162208519
:1009F000204639464B46CDE9008500F0FDFC10B19C
:100A00000120BDE8FE83208D000422D0204641460F
:100A10002A4600F041FE10BB616A2268084610F8C1
:100A2000013B1361638D013B63856062238D581E1A
:100A300020855669070418BF16F00406E4D04878EC
:100A400002311061981E20856162618D01396185D6
:100A5000DAE7204641462A4600F02AFD40B1206CE4
:100A60000428CDD12068016841F400710160C7E716
:100A70002068016841F400710160202084F83D0085
:100A8000002084F83C0084F83E00BDE8FE8300BFEF
:100A9000020010000000FFFF10B586B00021CDE974
:100AA0000411CDE902110168114881421ED13B4C6D
:100AB00000F53440216841F008012160216801F00F
:100AC0000801019103210591122103914FF4406126
:100AD0000291019902A9FFF769FC606840F4800067
:100AE0006060606800F480000190019806B010BD5D
:100AF000005800401A48034900780A68104408600A
:100B0000704700BF9401002080B58848016841F01B
:100B100010010160032000F061F80F2000F004F8DC
:100B200000F020F8002080BD70B50D4E04463078EE
:100B30004FF47A71B1FBF0F084490968B1FBF0F031
:100B400000F0CAFA01250F2C08D838B94FF0FF3051
:100B500021460022002500F025F87460284670BD6B
:100B60000000002082B00D480422016841F001011C
:100B70000160016801F0010101910199416841F0B2
:100B800080514160406800F0805000900098044817
:100B9000016862F31A61016002B0704718100240E8
:100BA00004000140B0B5134B4FF0FF351B68C3F391
:100BB0000223DC1E83F0070338BF0024042B28BF68
:100BC000042305FA03F3994305FA04F3A1409A4379
:100BD0001143BDE8B04000F067BF00BF05494FF6C4
:100BE000FF030A681A4060F30A22034810430860B2
:100BF000704700BF0CED00E00000FA052DE9F84356
:100C0000002800F09080884648490446086800F0B3
:100C1000070040450AD2086820F0070040EA0800B3
:100C20000860086800F0070040457CD12068564BFA
:100C30008946810711D5410703D5196841F4E06160
:100C40001960010703D5196841F460511960A16862
:100C50001A6822F0F00211431960C0072BD06068B7
:100C6000012804D153F8041C890309D45BE053F82C
:100C7000041C022802D1890102D454E0890752D50C
:100C800019681D4621F0030108431860FFF75EFC58
:100C9000064641F28837606829682B4601F00C014E
:100CA000B1EB800F07D0FFF751FC801BB842F2D99F
:100CB0000320BDE8F883D9F8000000F007004045A4
:100CC0000DD9D9F8000020F0070040EA0800C9F863
:100CD0000000D9F8000000F00700404523D120684B
:100CE000410705D5E1681A6822F4E06211431960F2
:100CF000000706D52069196821F4605141EAC00057
:100D000018601C4600F026F82168094AC1F3031157
:100D1000515CC840EE49086006480068FFF704FFD0
:100D20000020BDE8F8830120BDE8F88300200240E0
:100D3000D83E000804000020E5481349006809680F
:100D4000034AC1F30221515CC840704718000020DB
:100D5000E83E000810B50C490C480A6802F00C0384
:100D6000082B07D1C2F3834309A4E35CD20302D466
:100D70000C48584310BD096809A2C1F34041515CB9
:100D80005843B0FBF1F010BD0410024000127A008D
:100D900002030405060708090A0B0C0D0E0F1010BC
:100DA0000102000000093D002DE9FC41002800F08F
:100DB000CC8004460078C44EC0074AD0706800F06A
:100DC0000C00042817D0706800F00C00082802D12D
:100DD0007068C0030FD4606898B1B0F5803F06D04A
:100DE0003168B0F5A02F21D141F480203060306807
:100DF00040F4803020E0306880032AD5606840BB32
:100E0000A3E0306820F480303060306820F4802027
:100E10003060FFF79BFB05463068800319D5FFF76C
:100E200095FB411B03206429F6D94AE121F4803067
:100E30003060306820F480203060FFF787FB054683
:100E40003068800305D4FFF781FB401B6428F7D985
:100E50000AE1207880072CD5706810F00C0F07D0BD
:100E6000706800F00C00082809D17068C00306D42F
:100E70003068800716D52069012813D065E0216904
:100E80009248002900F0B58001210160FFF75EFB68
:100E900005463068800705D4FFF758FB401B022841
:100EA000F7D9E1E06069316821F0F80141EAC0005A
:100EB0003060207800072ED5A06978B183480121E1
:100EC000C0F88014FFF742FB0546706A800715D40E
:100ED000FFF73CFB401B0228F7D9C5E07B48002107
:100EE000C0F88014FFF732FB0546706A800712D500
:100EF000FFF72CFB401B0228F7D9B5E074484FF4EC
:100F0000FA510068B0FBF1F0019000BF0198411E5A
:100F100000280191F9D12078400719D4E769002F02
:100F200000F0CE80706800F00C00082843D1012F3B
:100F30000BD0216A706800F480328A4205D1616A60
:100F400000F47010884200F0BB800120BDE8FC81F5
:100F5000F069C0000BD4F0694FF0010840F08050F8
:100F6000F061F06900F080500090009801E04FF0CF
:100F70000008584F3868C0050FD4386840F48070B6
:100F80003860FFF7E3FA05463868C00505D4FFF777
:100F9000DDFA401B6428F7D966E0E068C8B3012891
:100FA00005D0316A05284BD141F004003062306A27
:100FB00040F001004AE04549002088460866FFF7F6
:100FC000C5FA0546022F0AD147463068800157D539
:100FD000FFF7BCFA411B03200229F6D971E0306803
:100FE00080016DD5FFF7B2FA411B03200229F6D923
:100FF00067E000210160FFF7A9FA05463068800725
:101000007FF557AFFFF7A2FA411B03200229F5D95C
:1010100057E0306A20F001003062306A20F00400AE
:101020003062FFF793FA054641F28837306A80074D
:101030001DD5FFF78BFA411B0320B942F6D940E0DA
:1010400021F001003062306A20F004003062FFF7C6
:101050007DFA054641F28837306A800707D4FFF7EA
:1010600075FA401BB842F7D90320BDE8FC81B8F1FE
:10107000000F3FF453AFF06920F08050F0614DE76E
:10108000206AB0F5803F05D1A168726822F4003271
:1010900011437160616A0843716821F47411084357
:1010A000706001203866FFF751FA0446306880010D
:1010B00006D4FFF74BFA011B03200229F6D900E002
:1010C0000020BDE8FC8100BF001002400000424249
:1010D0001800002000700040411E0020B0EB116F8E
:1010E0001CBF01207047044AF023516003490B7074
:1010F000072190601160704710E000E023ED00E0F0
:10110000F0B585B00446002708468DF8137002F04C
:10111000CDFA574A574B05460E4601F025FD564A73
:10112000564B21F0004102F06AFB18B963488DF874
:10113000137086E0524A534B2846314601F014FDA5
:101140004D4A4E4B21F0004102F059FB28B90120D5
:101150008DF813005848202773E04B4B2846314642
:101160004FF0663201F000FD434A444B21F000414C
:1011700002F045FB28B902208DF813004D484027A6
:101180005FE0424B28463146002201F0EDFC3A4A2E
:101190003A4B21F0004102F032FB28B903208DF8D0
:1011A0001300434860274CE0394B28463146002263
:1011B00001F0DAFC304A314B21F0004102F01FFB14
:1011C00028B904208DF813003848802739E02C4ACC
:1011D000304B2846314601F0C7FC274A274B21F007
:1011E000004102F00CFB28B905208DF813002E48B1
:1011F000A02726E0284B284631464FF0663201F002
:10120000B3FC1D4A1D4B21F0004102F0F8FA28B949
:1012100006208DF813002348C02712E01F4B2846F4
:1012200031464FF0333201F09FFC134A134B21F04B
:10123000004102F0E4FAC0B907208DF81300184805
:10124000E0271F490DF11302086064200121CDE958
:101250000021029020463C21012201238DF81370C9
:10126000FFF788FB002005B0F0BD0420FBE700BFBE
:10127000295C8FC2F528ECBFFCA9F1D24D62503F2A
:10128000CDCCCCCCCCCCF4BF6666FEBF000004C095
:10129000000010C0CCCC12C0666616C0333320C02C
:1012A00033338B4085EB41400AD72340AE47114092
:1012B0005C8FC23FF6289C3F1F856B3F48E13A3F59
:1012C0008C010020FEE70268516949054FF00001DA
:1012D0000FD56FF4806353612022016380F83D20B5
:1012E00080F83E1080F83C10016C41F0040101646C
:1012F00001210846704700002DE9FC4B04460068B8
:101300000E460168DDF8289041F4806101600168B3
:10131000DDF82C8041F480711D461746016020469F
:101320004FF0011100224B46CDF8008000F0EAF8A2
:1013300048B120680068C00544BF4FF400702064C5
:101340000320BDE8FC8B206806F0FE0B574EC0F86A
:1013500010B0204631464A46434600F01AF948BBD1
:101360000020019020684246416901918069494608
:1013700001900198204600F08FF998B9012D08D00E
:101380002068390A016120464946424600F084F946
:1013900040B92068F9B2016120464946424600F052
:1013A0007BF950B1206C042804D12068016841F415
:1013B000007101600120BDE8FC8B206800220168FB
:1013C0004B4641F48071016020464FF00111CDF889
:1013D000008000F097F80028ABD120684BF00101A5
:1013E0000161204631464A46434600F0D2F80028C3
:1013F00018BF0120BDE8FC8B2DE9FE4304460068C0
:101400000F4601680A9D41F480710B9E99469046F3
:10141000016020464FF0011100222B46009600F09B
:1014200071F848B120680068C00544BF4FF40070EF
:1014300020640320BDE8FE83206807F0FE010161FF
:101440001A4920462A46334600F0A3F810B101207D
:10145000BDE8FE8300200290206832464169029177
:101460008069294602900298204600F015F940B1A3
:10147000206C0428EBD12068016841F40071016000
:10148000E5E7B9F1010F0AD020684FEA18210161A0
:1014900020462946324600F0FFF80028E8D12068AF
:1014A0005FFA88F101610020BDE8FE8302000100BF
:1014B000F8B515460E4604464F1C206840694007A3
:1014C0001ED42046FFF7FFFEC0B9002FF5D0FFF76E
:1014D0003DF816B1401BB042EFD920684069400783
:1014E000EBD400202021206384F83D1084F83E00D6
:1014F00084F83C00206C40F0200020640120F8BDFE
:101500000020F8BD2DE9F047DDF8209098461646FA
:1015100004468FB201F47F0503F1010A1820B5F5E6
:10152000803F08BF1420216808583840C01BB0FA1B
:1015300080F04009B04229D1BAF1000FEED0FFF798
:1015400005F8B8F1000F03D0A0EB09004045E5D93C
:101550001820B5F5803F08BF14202168085838408E
:10156000C01BB0FA80F04009B042D7D10020202142
:10157000206384F83D1084F83E0084F83C00206C21
:1015800040F0200020640120BDE8F0870020BDE885
:10159000F0872DE9F8439846914604468FB201F44E
:1015A0007F05561C2068B5F5803F0CBF41698169F5
:1015B0003940B94223D04169490523D4002EF1D0E6
:1015C000FEF7C4FFB9F1000F03D0A0EB08004845B7
:1015D000E8D92068B5F5803F0CBF40698069384084
:1015E000B842DFD000202021206384F83D1084F829
:1015F0003E0084F83C00206C40F0200015E0002004
:10160000BDE8F883016841F4007101606FF4806106
:10161000416100202021206384F83D1084F83E00C1
:1016200084F83C00206C40F0040020640120BDE8F8
:10163000F88370B515460E46044620684169490690
:1016400017D44169C90616D4FEF780FF16B1401BB6
:10165000B042F2D9206840694006EED40020202133
:10166000206384F83D1084F83E00206C40F0200098
:101670000CE0002070BD6FF01001416100202021BE
:10168000206384F83D1084F83E00206C2064002024
:1016900084F83C00012070BDF8B515460E4604469E
:1016A0004F1C2068406900061ED42046FFF70BFE41
:1016B000C0B9002FF5D0FEF749FF16B1401BB0426C
:1016C000EFD9206840690006EBD400202021206378
:1016D00084F83D1084F83E0084F83C00206C40F013
:1016E000200020640120F8BD0020F8BD2DE9F04F56
:1016F00085B0DFF8C88164270125D0217522012338
:10170000044602970195CDF80080FEF7E1FF98F8B6
:101710000000682840F0CE80694E6420B047DFF8B2
:10172000A4A10DF113092046D0216B2201238DF8CD
:101730001350CDE900950297D0476420B0474FF091
:10174000000B2046D0216C2201238DF813B0CDE987
:1017500000950297D0476420B04708208DF8130009
:101760002046D0211B220123CDE900950297D047C6
:101770006420B0472046D0211C2201238DF813B0ED
:10178000CDE900950297D0476420B04704208DF83A
:1017900013002046D0211A220123CDE9009502979B
:1017A000D0476420B04713208DF813002046D02185
:1017B00019220123CDE900950297D0476420B04754
:1017C0002046D021382201238DF813B0CDE90095B1
:1017D0000297D0476420B0472046D0216A220123D7
:1017E0008DF813B0CDE900950297D0476420B0473B
:1017F0002046D021232201238DF813B0CDE9009596
:101800000297D0476420B04782208DF8130020460D
:10181000D02137220123CDE900950297D0472A48ED
:101820003C210A220123CDE900850297FEF750FFF3
:1018300098F8000048283AD12348642501263C2125
:101840000B220123CDE900860295FEF741FF98F8AF
:10185000000034282DD11C483C210C220123CDE965
:1018600000860295FEF734FF98F80000332820D157
:1018700050208DF813006426012720463C210022C9
:101880000123CDE9009702960025FFF773F80F4971
:101890002046FFF735FC20463C21022201238DF82B
:1018A0001350CDE900970296FFF764F802E0022595
:1018B00000E00325284605B0BDE8F08F9001002028
:1018C0008903000875090008380100206666A63FF4
:1018D00010B586B00C46642106220DF11203CDE945
:1018E00000320291D0213B220123FEF7F1FE70B9B4
:1018F000BDF8121009BA090C2180BDF8141009BAFC
:10190000090C6180BDF8161009BA090CA18006B057
:1019100010BD000010B586B00C46642106220DF102
:101920001203CDE900320291D02143220123FEF7B8
:10193000CFFE80BB19484168092911DC01314160A3
:10194000BDF8121009BA090C0181BDF8141009BACA
:10195000090C4181BDF8161009BA090C81811AE001
:10196000BDF8121009BA0A0CC281BDF8142012BACF
:10197000120C0282BDF8162012BA120C42820289A1
:10198000C2EB114121804189028A511A618081890B
:10199000408A401AA080002006B010BDC800002078
:1019A0002DE9F04186B00C46642106220DF11203A8
:1019B000CDE9003202913C2103220123FEF788FE8B
:1019C000054670BB9DF812009DF813109DF8148019
:1019D0009DF8157041EA002002F004F80146134812
:1019E0000668304602F016F801F0E0FF208047EA72
:1019F000082001F0F7FF0146304602F00BF801F035
:101A0000D5FF60809DF816009DF8171041EA002070
:101A100001F0E8FF0146304601F0FCFF01F0C6FF8F
:101A2000A080284606B0BDE8F08100BF8C010020F0
:101A3000FEE7FEE770477047FFF75CB8B0B590B0BF
:101A4000002401A81421CDE90B44CDE90944FEF797
:101A5000BBFB4FF4E0100F904FF4803002250121C2
:101A60000E900D950A910894CDE9061006A8FFF78F
:101A70009BF918B1EFF3108072B6FEE74FF4806067
:101A80000594CDE903400F20CDE9010501A802210D
:101A9000FFF7B4F818B1EFF3108072B6FEE710B09C
:101AA000B0BD7047FEE7000010B5074C00F00F0313
:101AB0002344044AB0F1FF3FC8BF831808011870DF
:101AC00010BD00BF00E400E014ED00E02DE9F04F90
:101AD0008BB0DFF82455CDE90421D5E900698246B1
:101AE00048463146089601F095FFD5E9027504464F
:101AF00028463946079501F08DFF0146204601F042
:101B000001FE014601F0FEFDDFF8F0B40390CBF8D2
:101B10001C004846294601F07DFF04463046394600
:101B200001F078FF0146204602F04AF8014601F034
:101B3000E9FD0290CBF8180048464946CDF82490BC
:101B400001F068FF044638463946069701F062FF07
:101B50000146204601F0D6FD014601F0D3FD0146C5
:101B60004FF07E5002F02CF8CBF82000DAF800504D
:101B700081462846294601F04DFFDAF80440074621
:101B800020462146CDF828A001F044FF0146384602
:101B900001F0B8FDDAF8086007463046314601F03A
:101BA00039FF0146384601F0ADFD00F06BFA0746FB
:101BB0003046394601F02EFF0646CBF82C00204671
:101BC000394601F027FF8246CBF8280028463946DF
:101BD00001F020FFDDF80C800446CBF824004046DD
:101BE000214601F017FF029F05463846514601F095
:101BF00011FF0146284601F0E3FF0190CBF83800C1
:101C00003846314601F006FF0546484621464F4614
:101C100001F000FF0146284601F0D2FF8146CBF8D3
:101C200034003846514601F0F5FE04464046314640
:101C300001F0F0FE0146204601F0C2FFF0490746E0
:101C4000CBF830008A4601F0E5FE0BF10C0898E86D
:101C5000420101F057FD0546CBF80C0048465146BD
:101C60005C4601F0D7FE314601F04CFDCBF8100088
:101C7000DDF804B006465846514601F0CBFE414619
:101C800001F040FD8246606138464FF07A5101F024
:101C9000C1FE0A990446D1E9030749690391D9496C
:101CA000884601F0B7FE0146204601F02BFD0146B3
:101CB000284601F027FDD14D0A90E86348464FF0D1
:101CC0007A5101F0A7FE044638464146474601F0E6
:101CD000A1FE0146204601F015FD0146304601F007
:101CE00011FD8046286458464FF07A5101F092FE6B
:101CF00004460398394601F08DFE0146204601F066
:101D000001FD0146504601F0FDFC06466864009066
:101D100009980A9F80F00041384601F07BFEDDF80B
:101D20001890044648464146CDF8088001F072FEFE
:101D30000146204601F044FFDDF81CA00446504651
:101D4000314601F067FE0146204601F039FF0446A6
:101D500004984FF07C5101F05DFE214683460190CE
:101D600001F058FE089E04463046394601F052FE06
:101D700007465046414601F04DFE0146384601F007
:101D80001FFFDDF8008007464846414601F042FE4D
:101D90000146384601F0B6FC0146584601F03AFECD
:101DA000074630462146B14601F0ACFC099D044689
:101DB0002846394601F0A6FC0646204621460494F2
:101DC00001F028FE044630463146039601F022FE1B
:101DD0000146204601F096FC0A990646504601F05D
:101DE00019FEDDF808B007464846594601F012FED4
:101DF0000146384601F086FC07462846414601F078
:101E000009FE0146384601F0DBFE019C01462046F2
:101E100001F000FE069F0146384601F073FC0146C2
:101E2000814601F0F7FD314601F06CFC8246284600
:101E3000594601F0EFFD0A990646384601F0EAFDE1
:101E40000146304601F0BCFE05460898414601F0C7
:101E5000E1FD0146284601F055FC0146204601F00F
:101E6000D9FD0146079801F04DFC0146054601F0F9
:101E7000D1FD514601F046FC00F004F92946074621
:101E800001F0C8FD5C4C8246E0603846494601F0EE
:101E9000C1FD03990546A060384601F0BBFD0499D9
:101EA00006466060384601F0B5FD074620602846CA
:101EB000294601F027FC0146504601F0ABFD804663
:101EC0003846394601F01EFC04463046214601F0F2
:101ED000A1FD0146404601F015FCDFF820912146A6
:101EE000C9F80400284601F095FD04463046314605
:101EF00001F008FC0146504601F08CFD01462046E9
:101F000001F05EFE8046C9F800003846394601F00F
:101F100081FD04463046314601F07CFD01462046F5
:101F200001F04EFE04462846294601F073FD0146A5
:101F3000204601F045FE04465046514601F06AFD38
:101F4000214601F0DFFBC9F80800404601F0AEFB76
:101F500000F04AF900F0D6FDDDF814B0CBF804002B
:101F6000D9E9010100F056FCCBF800002248D0E985
:101F70000076D0E9025A3046294601F04BFD04466E
:101F80003846514601F046FD0146204601F0BAFBB5
:101F9000014601F0B7FB01F089FB804689463846CF
:101FA000394601F037FD04463046314601F032FD36
:101FB000214601F0A7FB04462846294601F02AFDE8
:101FC0000146204601F0FCFD04465046514601F012
:101FD00021FD0146204601F0F3FD01F067FB0246BA
:101FE0000B464046494600F047FB00F08BFDCBF81E
:101FF00008000BB0BDE8F08F080000208000002032
:10200000BD378635A8B38B3982B0FEF77DFDFFF76B
:1020100015FD18494FF480420868184B40F0200025
:102020000860086800F0200001900198086840F0FE
:1020300008000860104802610022C0E902224360E3
:102040000F4B03600968C0E9052201F00801C0E9EF
:10205000072200910099FEF77FFA18B1EFF3108084
:1020600072B6FEE7044C2046FEF724F92046FEF740
:1020700043F9FBE71810024038010020A086010058
:102080000058004010B54FF03F41044601F0C2FC3B
:102090000849A1EB6404214601F0BCFC214601F093
:1020A000B9FC4FF07F5101F02DFB214601F0B2FC4D
:1020B00010BD00BFDF59375F490050EAC12018BF8B
:1020C00004204A0D18BF40F0010040F2FF72B2EB4D
:1020D000515F08BF40F00200012808BF052070478B
:1020E0004100080218BF04200A0E18BF40F001008A
:1020F0004FF07F4232EA010108BF40F002000128A0
:1021000008BF052070472DE9F0414F1E00EBC701C5
:102110000446D1E9000115461E4637F006020DD0EF
:102120002A46334600F0E8FF7F1E04EBC703D3E9DD
:10213000002300F019FD37F00602F1D1022F25D05F
:10214000042F13D0062F18BFBDE8F0812A4633466E
:1021500000F0D2FFD4E90A2300F006FD2A463346F8
:1021600000F0CAFFD4E9082300F0FEFC2A463346FB
:1021700000F0C2FFD4E9062300F0F6FC2A463346FD
:1021800000F0BAFFD4E9042300F0EEFC2A463346FF
:1021900000F0B2FFD4E9022300F0E6FC2A46334601
:1021A00000F0AAFFD4E90023BDE8F04100F0DCBC58
:1021B000012201F0ACBD00F0D7BC0022134610464E
:1021C000114600F08DBD0000024A0020110701F009
:1021D0009EBD000001FDFFFF01F094BA6FF05E01AB
:1021E000080701F0C2BD00002DE9F04D8D4F21F030
:1021F000004A86B005460C46BA452ADBAAEB070022
:1022000028430AD08848824501DC1AD1CDB106B0F6
:102210002846BDE8F04DFFF7CBBF844A844B2846E3
:1022200000F06AFF07460E46824A834B2846214645
:1022300000F062FF06B03A463346BDE8F04D00F0CC
:1022400093BC0120FDF7EFFF06B0BDE8F04DFFF7AE
:10225000B4BF7A48824542DABAF1795F0BDA284690
:10226000FFF72AFF042808BFFFF7AEFF284606B095
:102270002146BDE8F08D2A460B46104600F03CFF93
:10228000834602466E480E460B4606217844FFF709
:102290003AFF5A46334600F02FFF804669488A4687
:1022A0005A46334604217844FFF72DFF5A463346F9
:1022B00000F022FF00223B4600F056FC02460B468F
:1022C0004046514600F00CFD2A46234600F014FF1C
:1022D00006B02A462346BDE8F04D00F045BC28462E
:1022E00024F0004100223D463B4601F003F84FF048
:1022F000FF3201F00CFD0646024653480F460B46DE
:1023000006217844FFF7FFFE32463B4600F0F4FE1C
:10231000CDE900014D4832463B4604217844FFF7A1
:10232000F2FE32463B4600F0E7FE00222B4600F06C
:102330001BFC834602913046394600F0BDFB8046C7
:1023400043480D46504517DCDDE900015A46029B23
:1023500000F0C6FC42462B4600F0CEFE42462B461D
:1023600000F002FC012201F0D2FC304A304B01F0B7
:10237000B3F8304A304B4CE04FF0000A52460B465F
:10238000404600F0F1FBCDE9031052462B461046C3
:10239000194600F0B1FE32463B4600F0ABFFDDE9E6
:1023A000033200F09DFC06460F46DDE900015A4667
:1023B000029B00F095FC834600910122304639468D
:1023C00001F0A5FC194A1A4B00F094FF06460F468F
:1023D00001224046294601F09AFC5A46009B00F033
:1023E0008BFE32463B4601F077F806460F46012247
:1023F0005046294601F08BFC0E4DDFF858802A46E6
:10240000434600F077FF32463B4600F073FF2A4612
:10241000434600F06FFF002CD8BF81F0004106B0AA
:10242000BDE8F08D0000F03F0000F07F075C143342
:1024300026A6913C182D4454FB21F93F0000E03FB3
:10244000581B00006E1B0000E21A0000F81A000082
:102450003333EF3FFB21E93F2DE9F84F04460D46AA
:1024600021F0004000917349814211DC7249884299
:1024700001DC06D12CB120462946BDE8F84FFFF714
:1024800097BE6E48002DCCBF6D496E49BDE8F88FF0
:102490006D49814211DD6D498142D8BF4FF0FF3651
:1024A0006DDD20462946FFF707FE042808BFFFF729
:1024B0008BFE20462946BDE8F88F6549654F25F01B
:1024C0000045814233DD6449814219DD00263246F0
:1024D0004FF080432046294600F046FB80468A465E
:1024E00001222046294601F012FC00223B4600F062
:1024F000F3FF4246534600F0F3FB04460D463EE030
:1025000001260022BA463B462046294600F02CFB15
:1025100080460F46002253462046294600F0DCFF45
:1025200042463B4600F0DCFB04460D4627E04B49A3
:1025300081421BDDDFF828A10226002253462046F7
:10254000294600F0D9FD00223B4600F00DFB8046F5
:102550000F46002253462046294600F0BDFF424662
:102560003B4600F0BDFB04460D4608E0032622462C
:102570002B4600203B4900F0B3FB04460D462246A3
:102580002B461046194600F0B7FD8B4682460246A0
:102590000B4600F0B1FD07460246334888460B461D
:1025A00006217844FFF7AFFD52465B4600F0A4FDDC
:1025B00082462E488B463A46434605217844FFF72B
:1025C000A2FD3A46434600F097FD02460B46002E18
:1025D000504659460CDA00F0C7FA22462B4600F066
:1025E0008BFD01B022462B46BDE8F04F00F082BEC5
:1025F00000F0BAFA22462B4600F07EFD1C4A7A44CF
:1026000002EBC603D3E9002300F066FF22462B4607
:1026100000F062FF174A7A4402EBC603D3E90023B5
:1026200000F068FE009A002AB8BF81F00041BDE8C2
:10263000F88F0000000010440000F07F182D445473
:10264000FB21F93FFB21F9BF0000DC3F0000203EE9
:102650000000F33F0000F03F0000E63F0080034031
:102660000000F83F0000F0BFFA180000B8180000A2
:10267000561800001E1800002DE9F04D9446CCF1CC
:10268000000423F000464CEA0404594F46EAD4748F
:102690009A46884621F00042BC4206D8454240EAAC
:1026A000050442EAD474BC4204D9BDE8F04D624648
:1026B000FFF781BDAAF14055A5F17F6555EA0C04ED
:1026C0000BD0022404EAAA744A4DDFF82CE144EA54
:1026D000D87452EA000B04D00CE0BDE8F04DFFF7CF
:1026E000BBBE002C14BF012CBDE8F08D022C30D0F5
:1026F000032C32D056EA0C0B0AD0BE4220D1BA428B
:1027000009D126F0804622F080423346114617E078
:1027100000291ADB25E0DFF8E4B0FB44002C04BFFD
:10272000DBE90001BDE8F08D012C02BFDBE900010F
:1027300081F00041BDE8F08D022C0AD0032C0CD0B2
:10274000BA4212D1B8F1000F0BDA2A482C49BDE881
:10275000F08D28462B49BDE8F08D28467146BDE82E
:10276000F08D24482849BDE8F08D921B12153C2AB3
:10277000C4BF204F244E10DCBAF1000FBEBF12F1CF
:102780003C0F00273E4608DB624600F0A9FA21F024
:102790000041FFF761FE07460E4694B1012C08BFC9
:1027A00086F000460DD0194A194B022C38463146A6
:1027B00015D000F091FE2A46BDE8F04D114B00F017
:1027C0008BBE002213463846314600F0E1FB04BFC1
:1027D0000220FDF728FD38463146BDE8F08D00F0B7
:1027E0007BFE2A46BDE8F04D064B00F083BD00009D
:1027F0000000F07F182D4454FB2109C0B2170000DF
:10280000FB21F9BFFB210940FB21F93F075C143391
:1028100026A6A13C2DE9F0474FF0684202EB4003A9
:102820000C460546B3F1654F3CBF02EB4102B2F1E5
:10283000654F80F0CD8000BFC0F3C752C1F3C753CE
:10284000D21A1B2A06DD10F0004F14BF87488848B3
:10285000BDE8F08712F11A0F2FDA11F0004F06D001
:1028600010F0004F0CBF83488348BDE8F087214635
:10287000284600F0D9FF0646FFF732FC042808BFBF
:10288000FFF7ACFC2846FFF72BFC05462046FFF778
:1028900027FC04463046FFF723FC042D18BF052D06
:1028A00008D1042C18BF052C04D1002804BF022035
:1028B000FDF7B9FC3046BDE8F0874200B2EB410FAE
:1028C00025D910F0004F19BF6C4F6D4E6D4F6E4EF5
:1028D000224685F0004415460A4680F00041104625
:1028E0000A1A5200B2F1807F3ED248406749DFF8B1
:1028F000A0A110F0004F18D04FF03F48384601F02B
:102900005FF907465146304601F05AF917E011F0D9
:10291000004F04BF00263746E2D010F0004F19BF29
:102920005C4F5D4E5D4F5E4EDAE74FF07C583846A7
:1029300000F0E8FE07465146304600F0E3FE06464A
:102940004146284601F066F8214600F0DBFE82464B
:102950002146404601F05EF8294601F027F951462C
:1029600000F062FF044604E02146284600F05CFFC8
:102970000446014601F04EF880464A4901F04AF803
:10298000494900F0BFFE414601F044F8474900F0D4
:10299000B9FE414601F03EF8454900F0B3FE41461C
:1029A00001F038F8434900F0ADFE054641462046A7
:1029B00001F030F8294601F02DF8314600F0A2FE72
:1029C000214600F09FFE3946BDE8F04700F09ABE70
:1029D0004FF07F42B2EB400F28BFB2EB410F03D262
:1029E000BDE8F047FFF7F8BB40EA01035B0008BF12
:1029F00044F0FF410AD0B2EB400F08BFB2EB410FE9
:102A000006D125F0804024F0804105460C4613E7AE
:102A1000B2EB400F12BF5FEA410345F0FF4004F004
:102A200000413FF409AFB2EB410F12BF5FEA400231
:102A300005F0004044F0FF413FF4FEAE4A0092EA48
:102A400040033FF5F9AE002AACBF4FF09F464FF070
:102A50003E56314600F0DEFF05463146204600F086
:102A6000D9FF044628462146E6E60000DB0FC9BF31
:102A7000DB0FC93FDB0F4940DB0F49C00000C9BF76
:102A800022AAFDB90000C93F22AAFD390060ED3E2F
:102A9000C30ACE37000049C022AA7DBA00004940CF
:102AA00022AA7D3A2DAD65BD8FB8D53D0FB511BEBB
:102AB00061C84C3EA8AAAABE2DE9F04106460F46C1
:102AC00000F024FC041E0D4618BF0120284320F00E
:102AD0000040C0F17F6000F1E040C00F0ED0301C1C
:102AE00018BF0120384320F00040C0F17F6000F1A2
:102AF000E040C00F04BF0120FDF795FB20462946AA
:102B0000BDE8F08121F0004201F00043A2F16052E3
:102B1000B2F5801F28BFD2F17F6C0BD95FEA001C91
:102B200043EAC20242EB507018BF704728BF20F042
:102B300001007047B2F5801FBCBF184670474FEACE
:102B4000410C1CF5001F02D2084601F02AB870B5EE
:102B500000F07CFB00000089FFF7F6BF4FF000405B
:102B6000A0F580007047000010B591EA030F48BF40
:102B700083F0004300F1B884841A71EB030C05D292
:102B8000121943EB0C03001B61EB0C014FEA1154CB
:102B9000A4EB135CDFF81CE11EEA430F18BF9EEAAA
:102BA000445F73D021EA045123EA0E0343F48013F7
:102BB000DCF1200E32D322FA0CFE10EB0E0023FAC9
:102BC0000CFE41EB0E01CCF1200E03FA0EFE10EBD1
:102BD0000E00CCF1200E51F10001B1F5801F32D270
:102BE00001EB045112FA0EF2BDE8104058BF7047D5
:102BF000401C38BF5FEA420218BF7047002814BF6C
:102C000020F0010041F100014FEA410313F5001FDC
:102C100038BF7047A1F1C04100F066BB012A43EB09
:102C20000302ACF1200CDCF11F0E32BF4FF0000E9E
:102C300023FA0CF310EB030041EB0451B4EB115FEA
:102C4000D0D0A1EB045101F58011490801EB0451EA
:102C50005FEA30000ED350F1000038BF12FA0EFECA
:102C600008D1BDE81040C9E7401C38BF5FEA420206
:102C7000CAD1C3E7BDE810404FEA410313F5001F76
:102C800038BF7047A1F1C04100F02EBB9EEA445FFF
:102C900008D011EA5E0FBDE8104004BF01F000410A
:102CA00000207047BDE8104070B500F0CFFA00BFBB
:102CB00064FBBE3E0000E0FF02494FF0000000F060
:102CC000F4BF00BF0000F87F491058BFC1F1404178
:102CD0005B1058BFC3F140438B42EFF30080704755
:102CE0002DE9C04130B4DFF8A0C23CEA111418BF8E
:102CF0003CEA131400F0EC801CEA111481EA03058D
:102D000044EAD57418BF1CEA131500F0C780A4EB81
:102D1000050404F17F7404F500344FF0004545EAE2
:102D2000C12145EAC32341EA505143EA52534FEAD5
:102D3000C0204FEAC222994208BF904200F09C8016
:102D40004FEA13650FF24016765D4FEA134506FB16
:102D500005F7C7F1807706FB07F74FEAD737A7FBE0
:102D600003687642A7FB06CEC8F5803838BFA8F1C5
:102D7000010807FB08E6A6FB028C4FF0000EE6FBFD
:102D800003CEDCF1000CCEF1004E38BFAEF1010EE7
:102D9000A6FB0C584FF00007E6FB0E87A1FB08C608
:102DA000A0FB07CE16EB0E064FF0000545F100051F
:102DB000E1FB076515F1E04E7EBFA4F580345FEAC4
:102DC00046066D4116F1800745F100054FEA1727C9
:102DD00047EA05674FEA15254FEA0666A6F1DE4683
:102DE000B6F1805F1FD9384605EBC47124F0010CA1
:102DF00001EB0C11BCF1FE6F02D8F0BCBDE8008104
:102E000024425CBF01F5801E9EEAC47F02D4F0BC60
:102E1000BDE80081244238D4A1F1C041F0BCBDE836
:102E2000004100F061BA4FEAD02040EA41504FEA39
:102E3000D1214FEAD22242EA43524FEAD323A7FBE1
:102E4000028607FB036605FB02661EEA0E0F58BFEB
:102E5000A6EB0056B6EB00564FEA520E4EEAC37E82
:102E600018EB0E0E56EB530EBDD518EB02085E4163
:102E70007F1C55F10005B6E74FF480154FF00007B1
:102E80004FF000064FF00008ADE701F1C04101F03E
:102E900000414FF00000F0BCBDE800810CEA1315C2
:102EA00011EA0C1F00D00CE013EA0C1F00F0258083
:102EB0004FF0000081EA030101F00041F0BCBDE8E1
:102EC0000081F0BCBDE8004181EA030100F00CBACA
:102ED000F0BCBDE8004170B500F0B8F9097EFC3ED9
:102EE00000F007B84FF0000081EA030101F0004153
:102EF000704781EA030100F0F7B9F0BCBDE800417A
:102F000022494FF000007047FFFDFBF9F7F5F4F29E
:102F1000F0EEEDEBE9E8E6E4E3E1E0DEDDDBDAD874
:102F2000D7D5D4D3D1D0CFCDCCCBCAC8C7C6C5C4D2
:102F3000C2C1C0BFBEBDBCBBBAB9B8B7B6B5B4B3E9
:102F4000B2B1B0AFAEADACABAAA9A8A8A7A6A5A4D4
:102F5000A3A3A2A1A09F9F9E9D9C9C9B9A99999898
:102F60009797969595949393929191908F8F8E8E3B
:102F70008D8C8C8B8B8A89898888878786858584C8
:102F800084838382828181800000FF070000F87FB4
:102F900051EA030C17D41CF5801F58BFBCF5801FE5
:102FA00000F10680994218BF704708BF90427047F1
:102FB00007D711F5801F58BF13F5801F19D4994208
:102FC0007047894270471CF5801F08D5BCF5801FEB
:102FD000F7D58B4218BF704708BF824270474FF445
:102FE000001C1CEB410F38BF1CEB430F01D28B427E
:102FF000704770B500F02AF9922449004FF0005153
:103000004FF08053FFF760BE51EA030C17D41CF554
:10301000801F58BFBCF5801F00F10680994218BF81
:10302000704708BF9042704707D711F5801F58BFFF
:1030300013F5801F19D499427047894270471CF5D7
:10304000801F08D5BCF5801FF7D58B4218BF70478D
:1030500008BF824270474FF4001C1CEB410F38BF81
:103060001CEB430F01D28B42704770B500F0EEF8B5
:10307000922449004FF080514FF00053FFF724BED7
:1030800051EA030C17D41CF5801F58BFBCF5801FF4
:1030900000F10680994218BF704708BF9042704700
:1030A00007D711F5801F58BF13F5801F19D4994217
:1030B0007047894270471CF5801F08D5BCF5801FFA
:1030C000F7D58B4218BF704708BF824270474FF454
:1030D000001C1CEB410F38BF1CEB430F01D28B428D
:1030E000704770B500F0B2F8922449004FF00051DB
:1030F0004FF08053FFF7E8BD70B5DFF848C11CEA18
:10310000111E1EBF1CEA13159EEA0C0F95EA0C0F48
:1031100000F06F8081EA03044EEAD47EAE4421EAD7
:103120004C1123EA4C1341F4801143F48013AEF1A7
:103130007F7EA1FB024CA0FB0365361955EB0C0505
:10314000A1FB034C4CF10003A0FB021C16EB0C0688
:10315000654153F10003094218BF46F0010613F41C
:10316000007F0BD14FEA03314FEA053041EA155198
:1031700040EA165034036FF003020AE04FEAC3211D
:103180004FEAC52041EA555140EA5650F4026FF02B
:10319000020202EB2E4201EB025585EACE710AD003
:1031A0005FEA440C18BF24F0004450F1000041F1E4
:1031B000000120EAD47040F2FE7C624500D270BD6E
:1031C000A84214BF4FF080444FF04044002E08BF87
:1031D0000024BEF1806FA8BFA1F1C041BDE87040DE
:1031E00080F2828001F1C04101F000414FF0000007
:1031F00070470CEA13159EEA0C0F18BF95EA0C0FE6
:1032000006D081EA030E4FF000000EF0004170BDC1
:1032100000F01CF88900013E00F007B800F009B882
:103220004FEA430C5FEA5C5C08D081EA030100F0DE
:103230005BB84FEA410C5FEA5C5CF6D102494FF0A3
:10324000000070470000FF070000F87F0EF1020E3B
:103250002EF0030E5EF8046B364205D4012A43EBD0
:10326000030515F5001F12D8012841EB010C1CF5D0
:10327000001F0CD80ED14FEAD17C0CEB4C0C0CF19A
:10328000020C15F5001F08BF4CEBD37C04E04FF097
:10329000080C01E04FEAD37C0CEB4C0526FA05F64E
:1032A00006F00706B6F1040C06D20EEB860CBDE85C
:1032B00070404CF0010C6047DFE80CF0090B020293
:1032C0004FF00041A1F500214FF0000070BD1946FC
:1032D0001046012851EB010418BFD4F5001484BF37
:1032E000002001F0004170BD0808A0F500114FEA70
:1032F0003101704710B591EA030F81F000413FF5AD
:103300003BAC83F0004300F0EFB800002DE9F04142
:1033100001F5801CBCF5001FC0F2C3804FEA115CB0
:1033200021EA0C5141F480110CF1FD0C5FEA5C0CB8
:103330000CF5C07C01D340004941890241EA90511B
:1033400087023BA48E0EA45D0A0C04FB04F602FB6C
:1033500006F6C6F14046A4FB0662F60D46EA422692
:1033600006FB06F4A4FB01235242C3F1404338BFDD
:103370005B1EA6FB02420024E6FB0324D20B42EABA
:103380004446A6FB0623A1FB02E2A3FB07E4A41824
:103390004FF0000252F10002E3FB01426442C2F12D
:1033A000404E38BFAEF1010EA6FB04234FF00002E1
:1033B000E6FB0E32A2FB0346B6194FF0000454F1AF
:1033C0000004E2FB0264A1FB06E6A4FB07E816EB9F
:1033D00008064FF0000858F10008E4FB0168764247
:1033E000C8F1405838BFA8F10108A2FB06E4A3FBCE
:1033F00008E52D194FF0000454F10004E2FB0854D5
:10340000A1FB05E6A7FB04E818EB06084FF0000651
:1034100056F10006E1FB048618F1200556F100067E
:10342000A80940EA8660B109A8F11B0808F03F0826
:10343000B8F10A0F1CD901EB0C51BDE8F08100BFB7
:10344000FCF5EEE8E2DDD8D3CFCBC7C3C0BDB9B63B
:10345000B4B1AEACA9A7A5A3A19F9D9B9A98969540
:103460009392908F8D8C8B898887868584838281C7
:10347000A0FB006800FB01F208EB4208B8EB8728CC
:1034800007D5341858EB0104D5D5401C51F1000183
:10349000D1E7341A78EB0104CDD4401E71F100015C
:1034A000C9E75FEA4C0C5FEA9C5C0DD105D301F0E3
:1034B00000414FF00000BDE8F081BDE8F04170B57B
:1034C000FFF7C4FE6DDBFFBEBDE8F04101494FF0E0
:1034D000000070470000F87F10B591EA030F48BF65
:1034E00083F000433FF548AB841A71EB030C07D21D
:1034F0008CF0004C121943EB0C03001B61EB0C0128
:103500004FEA1154A4EB135CDFF89CE11EEA430F71
:1035100018BF9EEA445F00F0B08021EA045123EA1C
:103520006E035242C3EB6E0338BF5B1EDCF1200E0C
:1035300025D322FA0CFE10EB0E0043FA0CFE41EBF1
:103540000E01CCF1200E03FA0EFE10EB0E00CCF1B2
:10355000200E51F1000129D401EB045112FA0EF2B0
:10356000BDE8104058BF7047401C1CBFB2F1004F6F
:10357000704700280CBF491C20F00100704712EB77
:10358000020E43EB030218BF4FF0010E4EEA420257
:10359000ACF1200CDCF11E0E54D943FA0CFE10EBFA
:1035A0000E00CCF11E0E51F1FF31D5D50EF1010EFA
:1035B00012FA0EFE404141EB010101EB445C5FEA6F
:1035C0005C5C10D901EB045110EBDE7038BFBEF12A
:1035D000004FBDE8104018BF704700280CBF491CC1
:1035E00020F00100704730D24FEAD42C24F400645C
:1035F00011F500111BD0B1FA81F20B3AA41AA41EE6
:10360000D2F12003914030FA03F31943904001EBCB
:10361000CC7101EB0451002CBDE81040A8BF7047ED
:1036200001F1C04101F000414FF000007047B0FAD5
:1036300080F310FA03F100D110BDE41A173C4805DD
:10364000C90AE4E701EB045110BD49104FEA30000C
:1036500001EB0451BDE8104002E04FF0000170475B
:103660004A0008BF0042F8D0B2F5001F28BF7047DB
:1036700001F000414FF0000070479EEA445F07D020
:1036800011EA5E0FBDE8104004BF00210020704722
:10369000BDE8104070B5FFF7D9FD00BF40DFF63E32
:1036A000104683F0004170470000E0FF43004FEAFE
:1036B000D30C4FEA3C0C43401FBF40070CF1605154
:1036C00013F0FE4F70471CF0006F03D10CF0004167
:1036D000002070470CF0004343EA507040EACC00F1
:1036E00010B500F018FA00BF000000924FEA000188
:1036F000FFF7FABD4FF00041A1F500214FF00000A7
:103700007047000090EA010F48BF81F0004100F1CE
:103710005E82421A3CBF801A89184FEAD052A2EB4F
:10372000D1534FF07F4C1CEA410F18BF9CEA026F47
:1037300000F03B804FF0004C4CEA00204CEA0121A5
:1037400021FA03FC10EB0C0C1ED202F1FF325FEAEF
:103750001C2040EBC25038BF70471CF07F0F4FEA6F
:10376000400C18BFBCF17F4F38BF7047C3F1200336
:10377000994008BF20F00100BCF17F4F38BF70476F
:10378000A0F1C04000F00DBA4FEA3C00000A40EB47
:10379000C25028BF1CF0FF0F4FEA400CE6D018BF04
:1037A000BCF17F4F38BF7047EAE79CEA026F05D053
:1037B00010EA5C0F08BF00F00040704710B500F041
:1037C000AAF900BF64FBBE3E014800F06EBA00BF1C
:1037D0000000C07F10B5FFF7DBFB0CBF012000200D
:1037E00010BD10B5FFF7D4FB14BF0120002010BDA1
:1037F00010B5FFF709FC8CBF0120002010BD10B5EB
:10380000FFF702FC2CBF0120002010BD10B5FFF710
:1038100037FC94BF0120002010BD10B5FFF730FC2D
:1038200034BF0120002010BD4FF47F0C1CEAD012E1
:103830001EBF1CEAD11392EA0C0F93EA0C0F00F0A2
:10384000858090EA010F48BF42F4807240F4000C7A
:1038500041F400002CF07F4120F07F4000B5A2EB46
:10386000030281420FF2081CACEB504E9EF800E0C0
:10387000C0F100004FEA4E0E00FB0EFC38BF4900BD
:103880004FEA2C1C0CFB0EF34FEACE1E0EEB635ED0
:103890004FEA112C0EFB0CFC4FEAC1214FEA1C53DE
:1038A00000FB031102F5FA024FEA112C0EFB0CFC8F
:1038B0004FEA01314FEADC4C00FB0C1142EB224293
:1038C000C14228BF09184CEB03335DF804EB10EB41
:1038D000410143EBC250B2F57C0F38BF704729D588
:1038E00012F0F00F1CBF00F1C04000F00040704724
:1038F000008182838485868788898B8C8D8E8F91C9
:103900009293959697999A9C9D9FA0A2A3A5A7A8EC
:10391000AAACAEB0B2B3B5B7B9BCBEC0C2C5C7C918
:10392000CCCED1D4D7D9DCDFE2E6E9ECF0F3F7FA7C
:10393000FE0000004FEA400C0CF1807CBCF17E4F91
:1039400028BF7047B0F1C04000F02BB90CEAD1138A
:1039500090EA010F48BF42F48072624538BF634568
:1039600007D213F47F0F16D080EA010000F0004068
:10397000704710B500F0CFF8097EFC3E00F005B8A6
:1039800080EA010000F00040704780EA010000F08A
:10399000004000F006B912F47F0F04BF02487047E0
:1039A00080EA010000F0FDB80000C07F41000B0E6E
:1039B000D3F19E0208D950F400034FEA032323FAFF
:1039C00002F048BF4042704710B500F0A4F800BFB5
:1039D00049922480002070476FF0004282EA200064
:1039E0007047000010F0004148BF4042B0FA80F339
:1039F00010FA03F2C3F19D030BD051EAC35101EB5E
:103A00001220530638BF704700F1010008BF20F0B4
:103A1000010070474FF47F0C1CEAD0121EBF1CEA55
:103A2000D11392EA0C0F93EA0C0F00F0478090EA52
:103A3000010F48BF42F480724FF0004C4CEA002066
:103A40004CEA012102EB0302A0FB0113A2F50002E4
:103A5000002918BF43F001035B0028BF4FEA33037E
:103A600042EB22425FEA132C4CEBC2502EBFBCEB60
:103A7000436FB2F57C0F70474FEA036CBCF1004F07
:103A800008BF20F00100B2F57C0F38BF70470BD59E
:103A900082F0FF0212F5803FC8BF704700F1C040BE
:103AA000D8BF00F00040704700F5000C5FEA4C0CF6
:103AB00048BF7047B0F1C04000F073B80CEAD113B2
:103AC00090EA010F48BF42F48072624538BF6345F7
:103AD00004D280EA010000F00040704710B500F009
:103AE0001AF800BF8900013E00F007B800F009B8DD
:103AF0005FEA410C5FEA1C6C08D080EA010000F02C
:103B000050B85FEA400C5FEA1C6CF6D14FF0004001
:103B1000A0F5800070470EF1020E2EF0030E5EF845
:103B2000044B244204D44FEA4102B2F17F4F11D832
:103B30004FEA4003B3F17F4F0CD80ED14FEAD07C4F
:103B40000CEB4C0C0CF1020CB2F17F4F08BF4CEBAC
:103B5000D17C04E04FF0080C01E04FEAD17C0CEB83
:103B60004C0324FA03F404F00704B4F1040C06D265
:103B70000EEB840CBDE810404CF0010C6047DFE810
:103B80000CF0070802024FF00040A0F5800010BDC5
:103B90000846420018BFD2F1807288BF00F0004092
:103BA00010BDFF2141EAD050C005704780F00040B1
:103BB00090EA010F7FF5ADAD81F0004100F007B84C
:103BC00090EA010F48BF81F000413FF5A2AD421AD3
:103BD00004D882F00042A0EB020011444FEAD05218
:103BE000A2EBD1534FF07F4C1CEA410F18BF9CEA67
:103BF000026F4AD04FF0004C4CEA00204CEA012101
:103C000021FA03FCB0EB0C0C0FD412F0FE0F36D0EF
:103C10005FEA4C001DD5001240EBC25038BF704720
:103C20001CF03F0F18BF70470BE05FEA1C20A2F1A9
:103C3000010240EBC25038BF70471CF07F0F18BF25
:103C40007047C3F12003994014BF401E20F00100CB
:103C500070474FEA1223800808BF7047B0FA80FC13
:103C6000A2EB0C02CCF1280C60FA0CF093EA122FB4
:103C700004BF00EBC25070474FEAC3707047130A8D
:103C80005FEADC1008BF7047F6E79CEA026F04D0D9
:103C900010EA5C0F08BF0020704710B5FFF73BFF2C
:103CA00040DFF63E81F0004070470CF00F03092B17
:103CB00008BF082000F07F800A2B0BD0082B18BF0C
:103CC000704708BF1CF0400F0AD04FF000004FF0C3
:103CD000000170471CF0400F18BF4FF000407047C4
:103CE0001CF0100F08D000F07F4220F0704342EA31
:103CF000D3014FEA4370704700F0604021F07F42EB
:103D000042EA000201F07F4040EA727070474FF0D3
:103D1000FF0C4CF4E06C1CEA11531CBF9CEA030C32
:103D20009445C2BFDA4201EB02517047002B0DD01F
:103D3000BCF1000F0FD001F00041002AA4BF41F0F8
:103D4000E04141F07F614FF00000704701F0004119
:103D50004FF00000704750EA01334FF09B0C18BF42
:103D60004CF0806C7EF4A8AF70474FF0FF0212EA6F
:103D7000D0521CBF92F0FF038B42C2BFD14200EB76
:103D8000C1507047002A0AD0002B0BD000F0004031
:103D90000029A4BF40F0FE4040F40000704700F04E
:103DA0000040704743024FF00B0C18BF4CF0806C82
:103DB0007FF40AAD70471CF4801F11D01CF4E02F73
:103DC00003D06FEACC31490070474FF04050EFF319
:103DD000008222F0704242EA000282F300887047BB
:103DE0004FF0000070470000555555555555C53FDB
:103DF0007D6FEB0312D6D4BF5544880E55C1C93F21
:103E00003B8F68B52882A4BF88B20175E0EF493FB7
:103E100009F7FD0DE13D023F4B2D8A1C273A03C0F7
:103E2000C88A599CE52A004059018D1B6C06E6BFE3
:103E300082922EB1C5B8B33F4FBB610567ACDD3F81
:103E4000182D4454FB21E93F9BF681D20B73EF3FC1
:103E5000182D4454FB21F93FE2652F227F2B7A3C39
:103E6000075C143326A6813CBDCBF07A8807703CF2
:103E7000075C143326A6913CC4EB98999999C9BF65
:103E8000711623FEC671BCBF6D9A74AFF2B0B3BF9A
:103E90009AFDDE522DDEADBF2F6C6A2C44B4A2BF5A
:103EA0000D5555555555D53FFF8300922449C23FC6
:103EB0006E204CC5CD45B73F513DD0A0660DB13FFA
:103EC000EB0D76244B7BA93F11DA22E33AAD903F0C
:103ED00000000000000000000000000000000000E2
:103EE00001020304060708090000000001020304A0
:103EF000103F0008000000202000000028010008FA
:103F0000303F00082000002078070000440100082E
:103F100001000000100000000000803F00000000D1
:103F2000000000000000000000127A000000000005
:04000005080000ED02
:00000001FF
