:020000040800F2
:10000000980700205501000879290008CD23000831
:1000100000000000000000000000000000000000E0
:100020000000000000000000000000007D29000822
:1000300000000000000000007B2900087F29000864
:100040006701000800000000670100086701000860
:1000500067010008670100086701000867010008E0
:100060000000000067010008670100086701000840
:100070006701000867010008670100080000000030
:100080006701000800000000000000006701000890
:100090000000000067010008670100086701000810
:1000A0000000000067010008000000006701000870
:1000B00000F002F800F03EF80CA030C80838241810
:1000C0002D18671EA246AB4654465D46AC4201D190
:1000D00000F030F87E460F3EB6460FCC0126334284
:1000E00000D0FB1A3343A246AB461847943E0000AB
:1000F000B43E0000103A02D378C878C1FAD852074B
:1001000001D330C830C101D504680C6070470000CD
:100110000023002400250026103A01D378C1FBD823
:10012000520700D330C100D50B6070471FB51FBD0B
:1001300010B510BD01F09AF81146FFF7F7FF02F075
:1001400005FF01F0B2F803B4FFF7F2FF03BC01F0C2
:1001500005F900000748804707480047FEE7FEE72B
:10016000FEE7FEE7FEE7FEE704480549054A064BC1
:10017000704700000B2A0008B10000089801002019
:1001800098070020980300209803002001E004C095
:10019000091F0429FBD28B0701D50280801CC907E7
:1001A00000D00270704700290BD0C30702D0027044
:1001B000401C491E022904D3830702D50280801CFB
:1001C000891EE3E70022EEE70022DFE700220309B1
:1001D0008B422CD3030A8B4211D300239C464EE062
:1001E00003460B433CD4002243088B4231D303091E
:1001F0008B421CD3030A8B4201D394463FE0C309D0
:100200008B4201D3CB01C01A524183098B4201D3E7
:100210008B01C01A524143098B4201D34B01C01AD2
:10022000524103098B4201D30B01C01A5241C3084A
:100230008B4201D3CB00C01A524183088B4201D3B9
:100240008B00C01A524143088B4201D34B00C01AA5
:100250005241411A00D201465241104670475DE0BA
:10026000CA0F00D04942031000D3404253409C467D
:10027000002203098B422DD3030A8B4212D389013A
:10028000FC2212BA030A8B420CD3890192118B42D1
:1002900008D3890192118B4204D389013AD092117B
:1002A00000E08909C3098B4201D3CB01C01A524136
:1002B00083098B4201D38B01C01A524143098B42FF
:1002C00001D34B01C01A524103098B4201D30B01E8
:1002D000C01A5241C3088B4201D3CB00C01A52410D
:1002E00083088B4201D38B00C01A5241D9D24308F4
:1002F0008B4201D34B00C01A5241411A00D2014631
:100300005241104663465B1001D34042002B00D59A
:100310004942704763465B1000D3404201B505492E
:10032000002802DC491C084000E00846C046C046E0
:1003300002BD00BFFFFFFF7F70477047704700009E
:100340000246C80FC00781434B0030B54B405B00ED
:100350009B0D20D01923DB06C91801231B059942E8
:1003600020DB0324A40704251346AB400BD3002B4A
:1003700004D1EB0613409B00E34204D4012464073C
:10038000002312195941FF231B0599420BD2C900C2
:100390000143500F09E0CB0204D501430803024397
:1003A00005D0054830BDFF21C905084330BD0846CA
:1003B00007210905884330BD0000C07FF0B50C4619
:1003C000871A9C410D46861A9D4103D2C01BA1414C
:1003D000D21963410D0D1F0DC94EEC1BAE435CD00D
:1003E0007F057F0D0026002F51D02D05AC46A94377
:1003F000DD020123ED0A1B051D4320231B1B24D412
:100400001746E740381871412F46E740CC199D4008
:100410002818314661410C0D27D161449A4013D50B
:100420000023401C594152000ED1400840000122D7
:100430004B005205D34207D305204007C14201D5E6
:10044000B04900E0B0493046F0BD6B00002A00D052
:1004500001229A181F23203C1B1B01D5002302E018
:10046000E540281871410C0DD7D001242405091945
:10047000C407CD0740084908E40F28436144002C15
:10048000D5D00024401C61419A40D0D1CDE76A0507
:10049000520DD9D1C90FC907D5E79C4D4E00002890
:1004A00001D0012400E0002434195F00002A01D0AB
:1004B000012600E00026BE19954FAC420CD8AE4292
:1004C0000AD8B44206D001256D05EC42BCD01046D6
:1004D0001946F0BD9942FCD000203946F0BDF0B578
:1004E0001FB40C460F46811A9F412546861A9D412E
:1004F00006D20125ED076F40401ABC4152187B41DE
:10050000210D1E0D8D1BAC467D4D8D437ED0750596
:100510006D0D7CD00D05AE46AC431B031B0B794D16
:1005200052429D41202366469B1B14D31746F74039
:10053000381800260090744160462F460741E419A0
:1005400000989D402818664116D4714671189A404B
:1005500025D5012320E093182A466A415200002B3A
:1005600000D0521C1E23203E9B1B002B61DD354119
:10057000EE1728186641E8D5001876415B1C9A40B2
:1005800000D3401C4B05F3181524E34010D3002B77
:1005900052D071467118D30FC01802D3491C05B050
:1005A000F0BD0123DB079A42F9D140084000F6E78D
:1005B00001225205B21801D1002853D00123CC0AE0
:1005C000DB029943891E002A08D1020C03D0020CD9
:1005D0000004103902E00246002020390023550BA8
:1005E00005D112020823550B01D152010D23550CE0
:1005F00001D112011B1DD50C01D192009B1C150DC0
:1006000001D152005B1C2025EE1A01E02CE022E013
:100610000546F54015439840CA1AE10769181305C5
:10062000C918002ABBDA032040070818C10FC90700
:100630000FE071466118B2E7F107400808437110F6
:1006400071444A000CD001235B059A42A7D2C90F1E
:10065000C9070020A3E74905490D26D1002001E084
:100660000028F4D100219AE7284D6600002801D027
:10067000012100E0002171185F00002A01D001264D
:1006800000E00026BE19224FA94210D8AE420ED873
:10069000B14208D001256D05E94206D01946A802ED
:1006A000414010467BE79C4201D0214677E700207D
:1006B000394674E710B50C465C4005D50124E407C3
:1006C0006340FFF70CFF10BDFFF778FE10BD30B49C
:1006D0000C465C4004D50124E407634030BC6DE661
:1006E00030BCFCE670B50124E40761400D465D4076
:1006F00002D4FFF763FE70BD6340FFF7F0FE70BDEC
:10070000FF0700000000F0FF0000F07F0000E0FFA6
:100710000000F87FF0B5F94D0C091E092C402E4061
:100720002F468BB0A7437DD0B543FCD0002E7AD0A6
:10073000002CFCD00D465D40ED0F2543AC1BFF2582
:10074000AD0464190894C502440DC9022143500D3B
:10075000DC0204430120C00701430443D20201919B
:10076000200C110C00958C46010423468B430A9102
:1007700061460904E24D8A430991010A7D44491901
:100780008039097805464D4301266D18F605751B1D
:100790006943C90C640B891C4C436418B5012C1BBC
:1007A000250C2E04B4434C434D43210C6918890990
:1007B0000591009DE90701D00121C90704912C464C
:1007C00001996708CD072F434C08059DE10B4D4368
:1007D0002D0C29466646754302950D4645432E4627
:1007E000029D7D1BB44100950D465D4301942C0C88
:1007F0002F040D465543AE462D0C3D430295039400
:100800007546049C2D04641B049406D2029C039D2F
:10081000641C002675410395029401AC70CC009FC6
:100820007D1B01E03EE162E1B441090400950791BE
:1008300001940599A4086143090C0C464443650BD7
:10084000E7040C4666467443A646640B3C43039596
:1008500002947446049DE4042C1B049406D2029C6A
:10086000039D641C002675410395029401AC70CC75
:10087000009F7D1BB44101940C465C430095650FBD
:10088000E7000C465443A646640F3C43039502948C
:100890007446049DE4002C1B049406D2029C039D24
:1008A000641C002675410395029401AC70CC009F36
:1008B0007D1BB441AE09AF06049DC900AD092F43AD
:1008C000049DA406AD060495079D3443691807915D
:1008D000059DE10B4D432D0C294666467543029557
:1008E0000D4645432E46029D7D1BB44100950D46A5
:1008F0005D4301942C0C2F040D465543AE462D0C40
:100900003D43029503947546049C2D04641B049496
:1009100006D2029C039D641C002675410395029437
:1009200001AC70CC009F7D1BB44101948C050694F2
:10093000079C890A611800950791019C0599A408F4
:100940006143090C0D464543680BEF040D466446B0
:1009500065436C0B3C43049FED047D1BAC4602D207
:100960000025641C6841009E019D371B8541084697
:10097000584301950C46460FC5005443600F284369
:100980006546E4002C1B02D20025401C6E41019DEF
:100990003F1AB5412846BD09800628438446A00970
:1009A000BF064E020699A40676180743079D00204D
:1009B00068410A99079019430020099B00906046FE
:1009C000FF1913434041E20F64003A43A446044632
:1009D000D71A8C41A04203D90120009020463A4604
:1009E000C70F941840416246D20F22436446640008
:1009F0000494009CBE466400D71AA446044602979D
:100A00008C417746002F01D1A04204D96046401C9A
:100A10008446029A2046C40FA64694184041049A80
:100A20000546D20F224364466400D31A8D417146B5
:100A3000002901D1A84202D928461A46641C104355
:100A40000122002800D0164361020020079B89196B
:100A500004465C410223002C02DB49181346644122
:100A6000089DCE0A2D145D194B056705E10A2C057A
:100A70000D1908993E43C9076940002B08D09340DF
:100A800006D30022761C5141002B01D17608760056
:100A90001C4A002D43DB154241D0AA433FD03046CB
:100AA0000BB0F0BD06180D464D41174C7642AC41D7
:100AB0001AD395181C465C41134A6D42A24113D3C8
:100AC000012252054C00D4420AD15C00D4420BD022
:100AD0004B4002D592021143E2E749004908DFE7A3
:100AE0005940C90FC90718E000200849D8E7054850
:100AF00001420DD10342F7D0F2E700000000FF07EA
:100B0000403600000000F07F0000E0FF0000F87FAA
:100B1000114859400143C01241400020C0E7012361
:100B2000089A9B069A4205DC032252078918C90FCE
:100B3000C907B5E7052252078918074A1143D2129F
:100B40005140ADE770B515461C4602460B46284697
:100B50002146FFF7DFFD70BDFFFFFF7FF0B58B4C37
:100B60000F09254689B0BD437BD01D092646AE43FB
:100B7000FAD00E465E402740F60F3E43254071D026
:100B800024012142FBD0FF24AD19A4042D1B0395A1
:100B900001252D05DB02DB0AC9022B43C90A2943C3
:100BA0001E010901040F130F050121431701880BD2
:100BB000820391432D098C46A90B1E438A0395435A
:100BC000B30B9A0396433F09BA0B9403A7430296CB
:100BD0002E467E430497B6464E19D7190C46019609
:100BE000544305977E43371B7646BF1B3601B646F6
:100BF000BE0B361900967646BC043719009C01D30B
:100C0000641C00946400002F01D001263443029E2E
:100C1000049F754366467E430496760034196E0041
:100C200034190094029C019E1C196643751BAE4644
:100C3000069465464519059C05956C4359437546D0
:100C40000891691A0191049E01465143A41B049125
:100C5000611A009C0791E10605D061090122114348
:100C600002E072E06EE06109089D00272C0A2D0663
:100C70006918049D7C412A0A2D066918019D62416C
:100C8000AC0DAD026D185441079A910D92025519A1
:100C90006141029A644658435443069B059A5A435D
:100CA000121A131B9A0E9B015B187A41010B000567
:100CB000C3185141220A200644195A419A4200D2CF
:100CC000491C01204002814203D315230226F6432A
:100CD00002E014230326F6432020C51AA940174634
:100CE000AF40DA400A4320460399D84009147318EC
:100CF00019055118039A3843D2075140AC4009D026
:100D00000122944006D30022401C5141002C01D105
:100D1000400840001E4A934212D3012203989206D3
:100D2000904207DB0520400709181A480143C0120A
:100D3000414004E0032040070818C10FC907002004
:100D400009B0F0BD0020F107FAE705180C464C4148
:100D500011486D42A04115D394181A465A410E48C5
:100D6000644290410ED301204A004005824209D3DB
:100D70005A00824206D35940C90F084AC9070020C9
:100D80001143DDE700200649DAE700000000FF0715
:100D9000FE070000FFFFFF7F0000E0FF0000F07F84
:100DA0000000F87F0121C9050123411842001B06FC
:100DB000D3185B0E0AD0C1100722D206891840074B
:100DC0005242D14201D5520089187047090208D514
:100DD0000146002A03D0C10FC90700207047104602
:100DE0007047420202D000200249704707210905DE
:100DF0000143F4E70000F87FF0B5FF252D04C60994
:100E0000C209FF2704462E400137CB093E43484024
:100E10002A402B400746002A6BD0002B69D0AA42FB
:100E200067D0AB4265D0002800DA32460125ED05D7
:100E300029432C4309022002090AD21A4B0C7F24B1
:100E4000E31A434C000A7C44E35C7D242404121919
:100E500014145B00A218884201D3521C00E0400029
:100E600049420C465C4324115C43DB016415E318E2
:100E7000040A5C43C502200D0C4644436419250A4C
:100E80005D432303EC0C0D46654300030019EB188A
:100E90004C42A34201D35B18401CD4052018002B00
:100EA00007D05B00C91804D3401C002901D14008B9
:100EB00040003F2189048A4209D3002A08DC110638
:100EC000090F04D0032149074018C00FC007F0BD27
:100ED00001224100120689187F2252069142F6D261
:100EE00005214907C84201D59010F0BDFF20C0057B
:100EF000F0BD002F00DA32461648AA4207D2AB42B4
:100F000005D21902090E17D0F80FC007F0BDFF2552
:100F100063002D06AB42F9D84900A942F6D8AB428E
:100F200001D1A942F2D0A94201D1002101E0610022
:100F30004908D0050843F0BD1102090EFBD0FF207F
:100F40000243D005F0BD0A460146104654E70000B2
:100F5000F62F00000000C07F10B501469E2400025D
:100F6000CA15A307002A02D01843002A04DBA21ADC
:100F7000002A0CDDD04010BD1206120E01D1400037
:100F80004008A21A03D4D04040420028F3DDFF22DB
:100F900048001206904201D9002010BDC817C04376
:100FA000584010BD1F22030C02D10F2200041CD098
:100FB000030E01D10002083A030F01D10001121FF4
:100FC000830F01D18000921E002801DB4000521ED9
:100FD000D2055118021251181922904004D3491C0D
:100FE000002801D14908490008467047C10FC907C8
:100FF00000D04042012292071143D3E70121890723
:10100000D0E710B500F0B8F8006810BD10B5044680
:1010100000F0B2F8046010BD70B505464800440DFC
:10102000124B0020002C0AD0634008D09A4206DA06
:101030006642B24203DD12054019514170BD002CD9
:1010400008D0002B09D0C90FC907002AF6DB084ACF
:10105000114370BDC90FC90770BD28460A0310436C
:1010600002D00020034970BD284670BDFF07000074
:101070000000F07F0000F87FF0B53D4B02460C46C3
:101080001C400020002C63D03A4D8B4366D00029D1
:101090006BDB0B0D1D05A94301252D0529430124FB
:1010A000FD33E34001D392184941FF3381339C461D
:1010B0008B02940D0121234389074C4292020027A1
:1010C0001B198C105D1A04D42D1B02D42B4665000D
:1010D000491992185B416408F4D15C1A08D40125BF
:1010E000ED07EE175519744102D42A462346491CD0
:1010F00094185B41012292071D46E61B8D4106D4E0
:10110000B61A854103D42B46550034467F1924195D
:101110005B415208802AEFD1234300D00223384696
:101120000A22D04001D3012213438A0510436246AC
:10113000890A12058918002B09D00122D34002D355
:101140000022401C5141002B01D140084000F0BD5D
:101150000B03134307D0C90FC907F0BD08031043A1
:1011600003D1002901DB1046F0BD00202946F0BD67
:101170000000F07F0000F87F00487047200000204A
:10118000F8B5264C4E00069DA6420AD8A64201D1CB
:10119000002806D15E00A64203D8A6420AD1002A42
:1011A00008D00D242404254233D02946002000F025
:1011B00084F8F8BD0C461C4311D4994207D0C81AD4
:1011C00002D3EFF30080F8BDEFF30080F8BD801A82
:1011D00002D3EFF30080F8BDEFF30080F8BD0924DF
:1011E0002407E5008B4207D0581A02D3EFF30080A2
:1011F00006E0EFF3008007E0101A03D3EFF300805E
:10120000A04303E0EFF30080A043284380F300886D
:10121000F8BD009500F068F8F8BD00000000E0FFA0
:1012200010B5FF22C30D134009D05A4007D0914298
:1012300005DA5C42A14202DDC905081810BDC40FE1
:10124000E407002B06D0002A06D0002902DBFF208D
:10125000C0050443204610BD4102FCD0004810BD2B
:101260000000C07F00487047200000207546FFF74F
:10127000F9FFAE46050069465346C008C0008546E2
:1012800018B020B5FEF770FF60BCB64600260027F8
:10129000C0C5C0C5C0C5C0C5C0C5C0C5C0C5C0C526
:1012A000403D490849008D46704710B50446C04688
:1012B000C0462046FEF747FF10BDC80212D54803BE
:1012C000400F002804D0C803C04301218840704764
:1012D000EFF300800001000903210907084380F3B0
:1012E000008870470020704710B500200249029A1C
:1012F00000F004F810BD00000000F87F10B50C46A7
:101300001107090F092904D00A290AD008290CD18C
:1013100004E011460820FFF7D0FF06E0510606D58D
:1013200001E0510601D50120C007214610BDD106BC
:1013300007D501010909CC084907000E000604433E
:1013400009E0410F20024907000A0143200E000670
:101350001D22D14101430846E7E70000014918205A
:10136000ABBEFEE7260002007047000070B50446E1
:1013700001F06AF9274D2870002600280FD0042EAE
:1013800012D8C82000F04AF8761C2878F5E72946DC
:101390001A31204601F072FA642000F03FF86868C4
:1013A0000928F4DD002070BD012070BD70B5044631
:1013B000184D6E6829461A3101F060FA2946143139
:1013C000204601F03FFA29462031204601F094FAE8
:1013D0000A2E1EDB1420285EFFF708FE0E4C20604C
:1013E0001620285EFFF702FE60601820285EFFF7D7
:1013F000FDFDA0601A20285EFFF7F8FDE0601C20CC
:10140000285EFFF7F3FD20611E20285EFFF7EEFD4A
:10141000606170BD8000002008010020B0B5044666
:1014200000F0DCF80546601C02D00448007804197E
:1014300000F0D4F8401BA042FAD3B0BD0000002059
:10144000F0B588B007465F48874201D0052000E02C
:101450000320009000220692144605970E6830463D
:10146000E04000D1ACE001250295A5402E4000D11E
:10147000A0E0049403924A68032314461C40601EB3
:1014800001281AD803230192069A9340B86898431A
:10149000CF6897400743059887600198C006C00F42
:1014A000049A9040059F7F68AF43074305984760C3
:1014B000059FD8435500019A08E01846069DA840AC
:1014C000C043032C02D1069D1C461CE0FB68034070
:1014D0008F68AF401F43059BDF60059F022C12D130
:1014E0001C22039B1A400F239340049CE408A40091
:1014F0003C19276A9F430B6993403B43059F236236
:101500004A6803241440AC403B68034023433B60DB
:101510009003800F039A049C4CD02C48034600682B
:10152000029D2843186018682840079023460C2421
:1015300014400F20A04003229343079A244A1546E3
:101540009A5882435B190920C006874208D0214877
:10155000874207D020488742009804D1022002E049
:10156000002000E00298A0401043186016488068F0
:101570004B68DA0201D5304300E0B043049C124AC4
:101580009060D0689A0201D5304300E0B0430E4A23
:10159000D06050689A0301D5304300E0B0430A4A56
:1015A00050601068DA0301D5304300E0B043039A7D
:1015B000054B1860121D0698801C0690641C4DE7B0
:1015C00008B0F0BD000C00480004014018100240B3
:1015D0000800014000040048000800480148006875
:1015E0007047C04694010020B0B502464120135C0C
:1015F0000220202B19D1134640331C78012C14D023
:1016000024205870106802680124A243026022035B
:1016100005689543056002680A430260016821433A
:1016200001600020187020215970B0BDB0B502468D
:101630004120135C0220202B19D1134640331C7823
:10164000012C14D024205870106802680124A24391
:1016500002600F22120205689543090229430160C6
:101660000168214301600020187020215970B0BD2D
:10167000F8B5002824D0044605464035687800288F
:1016800004D100202870204600F0F8F9242068706A
:101690002068026801218A4302600F2212066368F3
:1016A0009343036183681C4A13408360A368E7681F
:1016B000012F07D1CE0333438360031D46680CE03E
:1016C0000120F8BD2126B60233438360031D46681E
:1016D000022F02D1CF023E4301E0CF02BE431E6083
:1016E00043680E4E1E434660C3681340C3602269C0
:1016F00063691343A26912021A43C260E269236A52
:101700001343036002680A430260002060642021E2
:1017100069702063A870F8BDFF7FFFFF00800002A2
:10172000F0B589B005464120285C022420285BD111
:101730000E9F002F55D00F9E002E52D008932B469F
:101740004033187801284FD00392069101241C7071
:101750000793FFF743FF05900090E1031923284604
:10176000224600F0E1FE00283ED110992220079A7F
:1017700050704020907000236B646F620F466B6363
:101780006E85BC480090089EF2B2284606990293E6
:1017900000F0B2FE284604973946059F3A4600F00D
:1017A00027FF002819D1012E0AD028680399090AB9
:1017B0008162284604993A4600F01AFF00280CD1AD
:1017C00028680399C9B28162009740210022284607
:1017D000049B00F0A9FE002809D007980299017027
:1017E00002E0012460026864204609B0F0BD3E4674
:1017F000012427066306688D000A32480897039380
:1018000006D001222A850090284606993B4605E02D
:10181000698D29850090CAB22846069900F06CFEB1
:1018200000960421002728463A46049B00F07CFEDF
:101830000028D9D12868406A696A0870688D401EFE
:101840006885686A401C6862288D411E2985688DFC
:1018500009041FD100281DD00096802100262846AB
:101860003246049B00F060FE0028BDD1688D000A5E
:1018700006D001222A85009628460699089B06E094
:10188000688D28850096C2B228460699039B00F011
:1018900033FE059E688D0028C2D128460499324641
:1018A00000F07CFE002807999ED128680C46202174
:1018B000C1614268704B1340436061702770A7702C
:1018C0003C4691E700240080F0B589B004464120F1
:1018D000205C022520285FD10E9F002F59D00F9E3B
:1018E000002E56D0089305922246403210780128E7
:1018F00052D00125157007920691FFF76FFE0490F4
:101900000090E903192320462A4600F00DFE0699AF
:10191000079A002840D1109B2120507040209070E1
:101920000020606467620390606366851F465148CB
:101930000090089EF2B201252B062046019300F08C
:10194000DBFD204602973946049F3A4600F050FEE0
:1019500000281AD1012E0AD020680599090A81624F
:10196000204602993A4600F043FE00280DD1206837
:101970000599C9B28162009780210026204632462F
:10198000029B00F0D1FD002809D00798039901704F
:1019900002E0012568026064284609B0F0BD3046C7
:1019A000029E059001256B06608D000A089307D002
:1019B000FF2222850020009020460699019B06E028
:1019C000608D208505990091C2B22046069900F0ED
:1019D00093FD204631463A4600F00AFE0028DBD14E
:1019E0002068616A0A788262608D401E6085481CAA
:1019F0006062208D411E2185608D090421D100285F
:101A00001FD00097802133460026204632461F46CD
:101A100000F08AFD0028BFD1608D000A06D0FF22A9
:101A20002285009620460699019B06E0608D208560
:101A30000096C2B220460699089B00F05DFD3E4626
:101A4000049F608D0028C4D1204631463A4600F0FC
:101A5000A5FD002807999FD120680C462021C1616F
:101A60004268054B134043606170059D2570A57069
:101A700092E7C0460020008000E800FEB0B586B0C6
:101A8000044601A81421FEF79FFB206812498842F2
:101A900020D101256804114C21680143216021688F
:101AA0000140009104200590002003901220029034
:101AB000032004904002019000980920C00601A96B
:101AC000FFF7BEFC6805A1680143A160A168014061
:101AD0000091009806B0B0BD0054004014100240C0
:101AE0001A48007802490A68101808607047C04612
:101AF0009401002080B5A348016810220A430260C7
:101B0000032000F005F800F023F8002080BDC04657
:101B100070B504467D20C0000C4E3178FEF756FBB0
:101B200001469B480068FEF751FB00F053FB01257E
:101B3000032C08D8002806D10025E84321462A4670
:101B400000F01CF87460284670BDC04600000020FC
:101B500082B0094801680122114301600168114007
:101B600001910199110742680A43426040680840A8
:101B70000090009802B070471810024080B500F045
:101B800045FF80BDF0B585B004468078C007394B6D
:101B90005BD0012211071868C0000191029202D5A2
:101BA0000020039007E01868084318601868084090
:101BB000049004980392304E3068C00511D4029806
:101BC0000702306838433060FFF708FD054630688B
:101BD000384206D1FFF702FD401B6428F7D90325E0
:101BE00045E003252802234B5968014020D0626854
:101BF000024091421CD00298000459685A6802437E
:101C00005A605A6882435A6008461C4A104058601D
:101C1000C8070DD0FFF7E2FC06465B4F154B58682E
:101C2000800705D4FFF7DAFC801BB842F6D91EE026
:101C300058681249084061680143596003980028B8
:101C400003D018680199884318602068C10705D03F
:101C5000596903229143A2680A435A61002580060C
:101C600005D5586910218843E16801435961284628
:101C700005B0F0BD1C10024000700040FFFCFFFFEB
:101C8000F8B500282ED004463E4B1A6801200240C9
:101C90008A4208D21A680126B2430A431A601A68B7
:101CA00032408A426BD1009121688A0710D54A07D9
:101CB00006D507221202454B1D461B6813432B60B5
:101CC000424A15461268F0239A43A36813432B60D7
:101CD000C9072AD061683D4A121F012904D1126840
:101CE000920307E001264AE01268022901D192011D
:101CF00000E09207064642D53448024600680326B3
:101D0000B04308431060FFF769FC07461E4D2F489B
:101D100000680C21014060688000814205D0FFF717
:101D20005DFCC01BA842F2D929E0164A10680126C2
:101D300030400099884207D91068B04308431060CA
:101D40001068304088421AD12078400708D5072013
:101D500000021E490A4609688143E0680843106092
:101D600000F018F8194909680906090F074A515C7B
:101D7000C840074908600320FFF7CAFE0026304626
:101D8000F8BDC0460020024088130000703F0008E4
:101D90001800002010B50D490A680C2313400C48A8
:101DA000082B08D193021B0F0AA4E45C896AD203B2
:101DB00003D4104807E0044606E00F22114009A2B0
:101DC000515CFEF703FA4443204610BD0410024064
:101DD00000127A0002030405060708090A0B0C0D1D
:101DE0000E0F10100102030405060708090A0B0C68
:101DF0000D0E0F1000093D00F0B587B00746012019
:101E0000002F00D1DDE104903878C007EE4E059731
:101E100053D071680C200140042906D0716801403C
:101E2000082909D17068C00306D53068800344D5FD
:101E30007868002841D16FE07968002904D0012931
:101E40001AD1012001041FE00120010432688A43F5
:101E50003260810432688A4332604404FFF7BEFB7B
:101E60000546059F3068204227D0FFF7B7FB411B8E
:101E700003206429F6D9A4E13068052907D101219E
:101E80008A041043306009043068084306E00121E9
:101E90000A04904330608904306888433060012030
:101EA0004404FFF79BFB05463068204205D1FFF74D
:101EB00095FB401B6428F7D956E13878800744D554
:101EC00070680007800F1BD070680C210140082942
:101ED00002D17068C00313D5059CE1683068002901
:101EE0001CD0012108433060FFF778FB05463068BD
:101EF000800723D4FFF772FB401B0228F7D933E198
:101F000030688007059A02D5D068012804D130686E
:101F1000F8218843116915E0049852E101218843B2
:101F20003060FFF75BFB0546306880070DD5FFF793
:101F300055FB411B03200229F6D942E13068F82104
:101F400088432169C90001433160059C207800075E
:101F500021D5E169706A00290ED001210843706221
:101F6000FFF73CFB0546706A800714D4FFF736FB89
:101F7000401B0228F7D9F7E0012188437062FFF780
:101F80002DFB0546706A800705D5FFF727FB401B30
:101F90000228F7D9E8E0207840071BD42078C00653
:101FA0007AD5059A516901294ED1706B04210143FC
:101FB0007163706B012101437163FFF70FFB0546ED
:101FC000706B800760D4FFF709FB411B03200229D7
:101FD000F6D9F6E001221107F069C00001910392E1
:101FE00002D50020029007E0F0690843F061F06933
:101FF0000840069006980292744F3868C00511D4C4
:1020000003980402386820433860FFF7E7FA054672
:102010003868204206D1FFF7E1FA411B032064290A
:10202000F6D9CEE005988168694F002917D00129BB
:10203000039A06D0306A052900D084E004210843C1
:102040003062306A104383E0706B491D67D1042110
:1020500088437063706BF8218843916919E0306A96
:10206000039988433062306A042188433062FFF765
:10207000B5FA0546306A800778D5FFF7AFFA411BFD
:102080000320B942F6D99CE0706BF821884305998A
:102090008969C900014371630598046A002C00D165
:1020A0008EE070680C210140082917D1012C04989A
:1020B00000D186E00120030471680B40F26A059D9F
:1020C0006C6AA3427DD10F231A40EC6AA24278D1F8
:1020D0009A041140AA6A914272D072E0012002066D
:1020E00031680492914331604706FFF777FA05465D
:1020F000022C0AD1049C3068384241D0FFF76EFAB6
:10210000411B03200229F6D95BE03068384257D0E2
:10211000FFF764FA411B03200229F6D951E004219C
:1021200008437063706B012188437063FFF756FAB0
:102130000546706B8007AFD5FFF750FA411B0320AF
:102140000229F6D93DE090433062306A0421884389
:102150003062FFF743FA0546306A800706D4FFF77E
:102160003DFA401BB842F7D903202AE00298002824
:10217000059C00D112E7F06901998843F0610DE7F1
:10218000F06A0F218843059AD16A0143F1623D202C
:10219000000471688143906A0843516A0143716089
:1021A000306820433060FFF719FA0446306838423F
:1021B00006D1FFF713FA011B03200229F6D900E02C
:1021C000002007B0F0BDC046001002400070004083
:1021D00088130000401E010E01D0012070470749FE
:1021E000074A5060074803680B40032189075918C4
:1021F000016000209060072111607047FFFFFF0021
:1022000010E000E020ED00E0F0B587B0049006A8F3
:102210000022059202700846FEF7C4FD07460D46EF
:10222000534A544BFEF746FA0126F407A143524A9B
:10223000524B00F0BCFF002804D106A90020087012
:10224000604982E04E4A4F4B38462946FEF732FA43
:10225000A143494A494B00F0AAFF002804D106A82F
:1022600006702020564970E0474A484B38462946B8
:10227000FEF720FAA143404A404B00F098FF0028A7
:1022800005D106A80221017040204C495DE00022E2
:102290003F4B38462946FEF70DFAA143364A374BE5
:1022A00000F085FF002805D106A8032101706020F9
:1022B00041494AE00022374B38462946FEF7FAF9F1
:1022C000A1432D4A2D4B00F072FF002805D106A82E
:1022D000042101708020374937E0294A2E4B3846C7
:1022E0002946FEF7E7F9A143234A244B00F05FFF9C
:1022F000002805D106A805210170A0202C4924E062
:10230000214A264B38462946FEF7D4F9A1431A4AFA
:102310001A4B00F04CFF002805D106A806210170D9
:10232000C020224911E01E4A1E4B38462946FEF7BE
:10233000C1F9A143104A114B00F039FF002815D113
:1023400006A807210170E020174906AA10701E4850
:10235000016064200092019602903C21049832466C
:102360003346FFF7B1FA059807B0F0BD0420FBE74C
:10237000295C8FC2F528ECBFFCA9F1D24D62503F19
:10238000CDCCCCCCCCCCF4BF666666666666FEBFB0
:10239000000004C0000010C0CCCC12C0666616C09D
:1023A00033333333333320C033338B4085EB4140F9
:1023B0000AD72340AE4711405C8FC23FF6289C3FAE
:1023C0001F856B3F48E13A3F8C010020FEE7006823
:1023D0008169890701D5002181628169C90703D11B
:1023E000816901220A43826170470000F0B587B01D
:1023F000164604464030049020688269D20602D412
:102400000026374646E01022C26101220192920363
:102410000392002702970691826920252A403A43B9
:1024200031D10027481C2CD0FFF7D8F80699002995
:1024300002D0801B884224D90597206842680499FD
:102440008B7801278169202B0CD0039B1A4009D17E
:10245000FA03114006D04168039A11434160FFF727
:10246000BDF8064620688069800608D4FFF7B6F8F4
:10247000801B1A28F6D302982843029000E0059F9B
:1024800006992068C8E7002F00D1C5610421029E8B
:102490000E43019F01228169CB0503D51302C3615D
:1024A000164317464B0504D59202C2610822164313
:1024B00001270125890504D56902C161022006436F
:1024C00001E0002F13D02046FFF781FF206841680C
:1024D000084A0A404260606C3043606420200499DE
:1024E0004870002008708870284607B0F0BD0025AD
:1024F000FAE7C04600E800FE70B5049C650D006870
:102500004668AE43064D3540064E0E401E4311044C
:10251000314321430122D20791432943416070BDD9
:10252000009C00FCFF030000FEB51D4601920F4613
:102530000446403000900898029020688069384036
:10254000C01B414241410198814224D12046294685
:10255000029AFFF74BFF012600281DD1681CECD022
:10256000FFF73CF8002D03D00299401AA842E4D9A5
:10257000206880693840C01B414241410198814236
:10258000DBD1606C202108436064009A5170002008
:102590001070907000E000263046FEBDF8B516467B
:1025A0000F460446403000902068806980061CD4A5
:1025B000204639463246FFF719FF0125002815D17C
:1025C000FFF70CF8002F02D0801BB842ECD920682E
:1025D00080698006E8D4606C202108436064009A1A
:1025E000517000201070907000E000252846F8BD62
:1025F000F8B516460F4604464030009020688069C2
:1026000080071ED4204639463246FFF7EFFE0125EB
:10261000002817D1781CF1D0FEF7E0FF002F02D080
:10262000801BB842EAD9206880698007E6D4606CD4
:10263000202108436064009A51700020107090704F
:1026400000E000252846F8BDF0B589B004466425B1
:10265000029501270197764E0096D02175223B46C0
:10266000FFF75EF83078682800D0DDE07149284631
:102670008847079408AC01262670009401960295BD
:10268000D02106916B22079833466B4FB8472846F6
:1026900068498847002005902070009401960295B3
:1026A0006C22079806993346634FB847284661491C
:1026B0008847082020700094019602951B220798F5
:1026C000069933465C4FB84728465A4988470598CB
:1026D00020700094019602951C22079806993346B3
:1026E000554FB84728465349884704202070009426
:1026F000019602951A220798069933464E4FB8471D
:1027000028464C4988471320207000940196029572
:102710001922079806993346474FB8472846454F30
:10272000B847059F277000940196029538220798B4
:10273000069933460495404DA84704983D4DA84757
:10274000277000940196049802906A220798069FC9
:1027500039463346384DA847049D284635498847B1
:102760000598207000940196029523220798394617
:102770003346314FB84728462E498847822020707B
:102780000094079C0196029537222046069933460D
:10279000294FB847264807460090019602952748DA
:1027A0003C210A223346FEF7BBFF387848283AD14D
:1027B0001F48074600900196029520483C210B22B5
:1027C0003346FEF7ADFF3878032734282CD118485C
:1027D00000900196029519483C210C223346FEF7E1
:1027E0009FFF1348007833281ED1274608AC50219C
:1027F00021700094019602953C2106913846059A75
:102800003346FFF761F80E493846FFF7FDFC059F98
:102810002770009401960295022207980699334684
:10282000FFF752F800E00227384609B0F0BDC04675
:10283000900100201D140008C9180008380100206C
:102840006666A63F10B586B00C466421029106214B
:10285000019104A90091D0213B220123FEF760FFE2
:10286000002809D1049949BA218004A9498849BAA4
:102870006180059949BAA18006B010BD10B586B037
:102880000C46642102910621019104A90091D021F6
:1028900043220123FEF744FF002827D11548416851
:1028A00009290CDC491C4160049949BA0181059948
:1028B00049BA818104A9498849BA418116E004993D
:1028C0004ABAC281059A52BA428204AA528852BABE
:1028D0000282028909BA090C891A21804189028A77
:1028E000511A61808189408A401AA080002006B078
:1028F00010BDC04680000020F0B585B00C466421B4
:1029000002910621019103A900913C210322012398
:10291000FEF706FF0546002829D103AF78783978FD
:1029200009020818FEF762FB0146124806683046A5
:1029300001F07AF9FEF710FB2080F878B9780902E7
:102940000818FEF753FB0146304601F06DF9FEF71B
:1029500003FB60807879397909020818FEF746FB95
:102960000146304601F060F9FEF7F6FAA0802846ED
:1029700005B0F0BD8C010020FEE77047704780B5C0
:10298000FFF7AEF880BD70B594B008AC201D1C21D7
:10299000FDF71AFC002507950695059504951395F6
:1029A0000520C004129011950226109610200C905C
:1029B00001200B90089603950295019500952046FD
:1029C000FFF71AFA002803D0EFF3108072B6FEE783
:1029D0000795069505960720049004A80121FFF7A6
:1029E0004FF9002803D0EFF3108072B6FEE703958D
:1029F000202000906846FFF7C5F8002803D0EFF3C9
:102A0000108072B6FEE714B070BD7047002805D480
:102A10000322034693430C4A9A1806E00F22024011
:102A2000083A03239A43074BD2188007C00E890146
:102A3000C9B28140FF238340106898430843106067
:102A40007047C0461CED00E000E400E0F0B58FB038
:102A5000049209910B90FC4DC0CD38463146079643
:102A6000083D01F0E1F80446A9680E91ED6828469A
:102A70000D9501F0D9F80146204601F08FF8014686
:102A800001F08CF80C90F149C8613846294601F0F4
:102A9000CBF8044630460E9E314601F0C5F801469B
:102AA000204601F025F9014601F078F80A90E74D3B
:102AB000A86108973846394601F0B6F80446304612
:102AC000314601F0B1F80146204601F067F80146B1
:102AD00001F064F801467F20C00501F009F9039078
:102AE00028620B9F38680690014601F09DF8064663
:102AF0007D682846294601F097F80146304601F0E6
:102B00004DF80446BE683046314601F08DF8014666
:102B1000204601F043F800F081FA07463046394676
:102B200001F082F80290C94EF0622846394601F061
:102B30007BF80546B06201900698394601F074F8BA
:102B4000044670620C98214601F06EF807460A9E12
:102B50003046294601F068F80146384601F0C8F8C9
:102B60000690F74988633046029D294601F05CF8DB
:102B70000746039E3046214601F056F80146384686
:102B800001F0B6F80590EE4F78633046019901F0F8
:102B90004BF804460C98294601F046F801462046B9
:102BA00001F0A6F806463863E64C214601F03CF8F1
:102BB000F96800F0F3FF0546F8600598214601F03A
:102BC00033F8396900F0EAFF0C9038610698214625
:102BD00001F02AF8796900F0E1FF039078617D2027
:102BE000C7053046394601F01FF806460B9CE068E1
:102BF000D54901F019F80146304600F0CFFF0146F3
:102C0000284600F0CBFF0A90CD49C86305983946A5
:102C100001F00AF8054620692646CB4901F004F880
:102C20000146284600F0BAFF01460C9800F0B6FFB6
:102C30000546C34908640C900698394600F0F4FF35
:102C400004467069C04900F0EFFF0146204600F0DD
:102C5000A5FF0146039800F0A1FF0646B849486465
:102C600006900120C107089841400A9F384600F0AD
:102C7000DBFF04460E98294600F0D6FF01462046A9
:102C800001F036F804460D9D2846314600F0CCFF91
:102C90000146204601F02CF806463F200106049824
:102CA00000F0C2FF0B90314600F0BEFF0646079CC5
:102CB0002046394600F0B8FF074628460C9900F038
:102CC000B3FF0146384601F013F807460E980699FF
:102CD00000F0AAFF0146384600F060FF01460B985D
:102CE00000F0A2FF074625462046314600F056FF79
:102CF0000646089C2046394600F050FF07460596D8
:102D00003046314600F090FF064604973846394673
:102D100000F08AFF0146304600F040FF03900D9816
:102D20000A9900F081FF064628460C9900F07CFFC6
:102D30000146304600F032FF064627462046069CF4
:102D4000214600F071FF0146304600F0D1FF0146F8
:102D50000B9800F069FF01460E9D284600F01EFF0B
:102D60000646014600F060FF039900F017FF03904C
:102D700038460C9900F058FF074628460A9900F09B
:102D800053FF0146384600F0B3FF07460798214637
:102D900000F04AFF0146384600F000FF01460B985C
:102DA00000F042FF01460D9800F0F8FE044601468F
:102DB00000F03AFF039900F0F1FE00F02FF907460A
:102DC000214600F031FF0D90A64CE06038463146B8
:102DD00000F02AFF0546A0603846049900F024FF61
:102DE000064660603846059900F01EFF07462060E1
:102DF0000E952846294600F0D1FE01460D9D284635
:102E000000F012FF0C903846394600F0C7FE044629
:102E10003046214600F008FF01460C9800F0BEFE47
:102E2000474948600E98214600F0FEFE04463046B1
:102E3000314600F0B3FE0146284600F0F5FE01469B
:102E4000204600F055FF03E008000020B4000020F9
:102E50000C903B4908600D463846394600F0E4FEC8
:102E600004463046314600F0DFFE0146204600F0C1
:102E70003FFF04460E98014600F0D6FE014620466C
:102E800000F036FF04460D98014600F0CDFE2146C5
:102E900000F084FEA8600C98FDF784FF00F092F922
:102EA000FDF74EFA099C60606868A96800F0A0FC14
:102EB00020606C484668856807463046294600F021
:102EC000B3FE044638463F68C1680E91384600F0AC
:102ED000ABFE0146204600F061FE014600F05EFEBA
:102EE000FDF760FF0D900C913846394600F09CFECE
:102EF00004463046314600F097FE214600F04EFE73
:102F000004462846294600F08FFE0146204600F080
:102F1000EFFE04460E98014600F086FE014620466C
:102F200000F0E6FEFDF73EFF02460B460D980C99B9
:102F300000F090FBFDF704FA099988600FB0F0BD2E
:102F4000B4000020BD378635A8B38B3982B0FEF7B8
:102F5000D1FDFFF718FD01208105294A13680B43B5
:102F6000136013680B4001930199410413680B43EC
:102F700013601268234C0023234D244E26606560A5
:102F8000A360E0600A4000920098204610301421AF
:102F9000FDF71AF92046FEF76BFB002803D0EFF38C
:102FA000108072B6FEE717480021FEF71DFB0028CF
:102FB00003D0EFF3108072B6FEE712480021FEF74F
:102FC00035FB002803D0EFF3108072B6FEE70D4CFE
:102FD0002046FEF7CBF92046FEF7C8F900F038F896
:102FE0000B4D0C4E0C4F2046FEF7E0F928463146BB
:102FF0003A46FFF72BFD0A20FEF710FAF3E7C0462A
:1030000014100240380100202B1D20000054004005
:1030100008010020FC0000200AD7233C10B504461C
:10302000BF200106204600F0FFFD6110074A541A38
:10303000214600F0F9FD214600F0F6FDFF2189054B
:1030400000F0ACFD214600F0EFFD10BDDF59375F09
:10305000044800217F22D205026041608160C16086
:103060007047C046080000204900CA020243100011
:1030700000D004204A0D01D001221043044A490D1A
:10308000914201D102210843012800D10520704757
:10309000FF0700004100080200D004200A0E01D002
:1030A00001221043090EFF2901D102210843012802
:1030B00000D105207047F8B504464F1EC8000838F7
:1030C000211815461E46086849683A4606239A4361
:1030D00010D02A463346FDF741FD3A46D200083A61
:1030E000A3181A687F1E5B68FDF7E4FA06223B46C8
:1030F0009343EED1022F23D0042F11D0062F2FD1CE
:103100002A463346FDF72AFDE36AA26AFDF7D2FAA2
:103110002A463346FDF722FD636A226AFDF7CAFAA2
:103120002A463346FDF71AFDE369A269FDF7C2FAA4
:103130002A463346FDF712FD63692269FDF7BAFAA4
:103140002A463346FDF70AFDE368A268FDF7B2FAA6
:103150002A463346FDF702FD63682268FDF7AAFAA6
:10316000F8BD10B50122FDF757FF10BD10B5FDF7F2
:10317000A1FA10BD002210B5134610461146FDF706
:10318000C9FA10BD034A10B500201107FDF744FF2E
:1031900010BD000001FDFFFF10B500F0FFFC10BDE9
:1031A0005E2110B5C9430807FEF73AF810BD10B507
:1031B00000F0C2FCEFF30080800001D5012010BDBB
:1031C000002010BDF0B504464F008E488FB07F0838
:1031D0000D460D91874228DB4042381820430CD021
:1031E0008948874203DC874218D1002C16D020463C
:1031F0002946FFF7B6FF0FB0F0BD844A844B204646
:103200002946FDF7ABFC07460E46824A824B204614
:103210002946FDF7A3FC3A46334649E00120FDF775
:10322000F5FEFFF7A7FF0FB0F0BD7C48874243DAF9
:10323000F920800587420BDA20462946FFF714FF64
:10324000042801D1FFF79EFF204629460FB0F0BDAC
:1032500022462B4610462946FDF780FC06460246CC
:103260006F480F460B4606217844FFF724FF32468D
:103270003B46FDF773FC06906A48079132463B4691
:1032800004217844FFF717FF32463B46FDF766FC02
:1032900000225C4BFDF70EFA02460B460799069892
:1032A000FDF738FA22462B46FDF758FC22462B46FE
:1032B000FDF700FA0FB0F0BD2046524C69004908F6
:1032C00000222346FDF70EFA0022D243FDF7A4FEAA
:1032D0000546024654480E460B4606217844FFF741
:1032E000EAFE2A463346FDF739FC06904F4807911F
:1032F0002A46334604217844FFF7DDFE2A4633464A
:10330000FDF72CFC00222346FDF7D4F9059104902B
:103310002846314600F0BAFB089045480C468742E3
:1033200019DB059B049A07990698FDF7F3F9024605
:103330000B4621460898FDF711FC2346089AFDF735
:10334000B9F90122FDF768FE304A314BFDF7BFF9AC
:10335000304A314B4AE000273A460B460898FDF7C1
:10336000A9F93A4623460A910E9010461946FDF7F0
:10337000F5FB2A463346FDF7B5F90A9B0E9AFDF791
:10338000C9F905460E46059B049A07990698FDF76C
:10339000C1F900910490012228463146FDF73CFE18
:1033A0001A4A1B4BFDF79EF90E460546012221469F
:1033B0000898FDF731FE009B049AFDF7CFFB2A46E3
:1033C0003346FDF784F905460E460122384621466C
:1033D000FDF722FE0F4C174F22463B46FDF782F9C0
:1033E0002A463346FDF77EF922463B46FDF77AF939
:1033F0000D9A002A00DD5DE70122D20751400FB08F
:10340000F0BD00000000F03F0000F07F075C1433C7
:1034100026A6913C182D4454FB21F93F0000E03FC3
:10342000140C00002A0C0000A00B0000B60B0000DA
:103430003333EF3FFB21E93FF0B589B004460D4639
:103440004800069172494008884215DB714988425C
:1034500003DC884207D1002C05D020462946FFF71F
:1034600080FE09B0F0BD6C48002D02DD6B4909B04B
:10347000F0BD6B4909B0F0BD6A49884211DA6A496A
:1034800088420BDA20462946FFF7EEFD042801D1D9
:10349000FFF778FE2046294609B0F0BD0026F64326
:1034A0005DE06D0061496D08884232DA604988420A
:1034B00019DA0026012332469B0720462946FDF7EC
:1034C000F9F807460191012220462946FDF7A4FD9F
:1034D0000022584BFDF7FBF83A46019BFDF71AF91D
:1034E00004460D463BE001260022524B2046294669
:1034F000FDF7E0F80746009100224E4B2046294692
:10350000FDF7E5F83A46009BFDF704F904460D4641
:1035100025E04949884219DA02260022474B204615
:103520002946FDF71BFB0022424BFDF7C3F8074677
:1035300002910022414B20462946FDF7C8F83A4641
:10354000029BFDF7E7F804460D4608E003262246F5
:103550002B4600203A49FDF7DDF804460D46224689
:103560002B4610461946FDF7F9FA07460B46024668
:103570000191FDF7F3FA0246029032480B4603919F
:1035800006217844FFF797FD3A46019BFDF7E6FADE
:1035900000902D48019105217844039B029AFFF782
:1035A0008AFD039B029AFDF7D9FA02460B46019960
:1035B0000098002E0BDAFDF77DF822462B46FDF72A
:1035C000CDFA22462B46FDF78DF809B0F0BDFDF788
:1035D00071F822462B46FDF7C1FA1C4AF6007A44E0
:1035E00093191A685B68FDF772F822462B46FDF7BF
:1035F0006EF8174A7A4493191A685B68FDF772F8F7
:10360000069A002AE1DA0122D207514009B0F0BD42
:10361000000010440000F07F182D4454FB21F93FB6
:10362000FB21F9BF0000DC3F0000203E0000F33F1B
:103630000000E63F0000F03F008003400000F83F3C
:103640000000F0BFB2090000740900000E0900007C
:10365000D8080000F0B51FB4039A029D53006E42D3
:103660002E439446F40F5B084A00574E52081C4301
:103670008E46B44205D847420743FC0F1443B44278
:1036800005D92A466346FFF771FD05B0F0BD4F4EE0
:1036900066442E430AD0CC0F6646B61702273E403A
:1036A000264304464A4F144304D00BE0FFF7C4FE00
:1036B00005B0F0BD002EFBD0012EF9D0022E32D085
:1036C000032E34D01C462C430BD03F4CA34216D1C2
:1036D000A2420AD1012189078B438A4311460393F1
:1036E0000DE0704600280FDB25E03A4D7D44002EAA
:1036F0000ED0012E10D0022E15D0032E17D0A242CC
:103700001DD17046002816DA3148334905B0F0BDA6
:103710006968286805B0F0BD01226968D207286889
:10372000514005B0F0BD38462C4905B0F0BD3846D3
:103730002B4905B0F0BD26482A4905B0F0BDD21A84
:1037400012153C2A02DD224D264C12E06346002B66
:1037500005DA3C23DA4202DA00252C4609E0039B15
:10376000029AFCF7D7FF49004908FFF765FE0546B6
:103770000C46002E12D0012E0DD01B4A1B4B022EE0
:103780002846214618D0FCF7A2FF3A46134BFCF717
:103790009EFF05B0F0BD0120C00744400022134643
:1037A0002846214600F096F902D10220FDF72EFCB2
:1037B0002846214605B0F0BDFCF789FF3A46074B85
:1037C000FCF790FF05B0F0BD0000F07F000010C0D6
:1037D000182D445478080000FB21F9BFFB21094053
:1037E000FB2109C0FB21F93F075C143326A6A13C4D
:1037F000F0B50C4601461D224B00D2069F18E52667
:1038000005463606620087B02046B7427BD21D27A8
:10381000FF06D719B74276D24F0043003E0E1A0E6C
:10382000B21A1B2A07DD002902DA854807B0F0BD6D
:10383000844807B0F0BD1A26F2422FDA002807DAD2
:10384000002902DA804807B0F0BD804807B0F0BD1B
:1038500021462846FDF7D0FA0646FFF71BFC042850
:1038600001D1FFF79DFC2846FFF714FC05462046D2
:10387000FFF710FC04463046FFF70CFC042D01D086
:10388000052D08D1042C01D0052C04D1002802D12B
:103890000220FDF7BBFB304607B0F0BD9F4211D9B7
:1038A000002902DA6A4F6B4E01E06B4F6B4E2346E4
:1038B0002C461D4601220346D2070846544050407C
:1038C00019460BE0002807DA002902DA644F654E3A
:1038D00004E0654F654E01E000263746421A012399
:1038E00052001B069A422FD2484061490CD5BF2096
:1038F00000060290384600F0FBF907465D49304665
:1039000000F0F6F90BE053E03F2000060290384645
:1039100000F044F907465749304600F03FF90646A3
:103920002846029900F080F9214600F037F900900E
:103930002146029800F078F9294600F0CDF9009967
:10394000FDF75AFA044604E021462846FDF754FAEA
:103950000446014600F068F94749009000F064F918
:10396000464900F01BF9009900F05EF9444900F067
:1039700015F9009900F058F9424900F00FF9009943
:1039800000F052F9404900F009F905462046009937
:1039900000F04AF9294600F047F9314600F0FEF8F8
:1039A000214600F0FBF8394600F0F8F807B0F0BD0A
:1039B000FF263606B34201D8B24205D90146284651
:1039C000FFF7EAFB07B0F0BD2F4607437F000AD0A0
:1039D000B3420CD1B2420AD10122920790439143E3
:1039E0000D46044618E7FF22D2051043F9E7B3421B
:1039F0000CD047000AD0B2420ED04E000CD053403B
:103A0000F0D4002A0EDB9F26F6050DE0FF22D2053A
:103A10001143E00FC007FFE6C90FC907FF22D20517
:103A20001043F9E65F26F6053146284600F0FCF81B
:103A300005463146204600F0F7F804462946EBE6F5
:103A4000DB0FC9BFDB0FC93FDB0F49C0DB0F4940AC
:103A50000000C9BF22AAFDB90000C93F22AAFD3952
:103A6000000049C022AA7DBA0000494022AA7D3A3E
:103A70000060ED3EC30ACE372DAD65BD8FB8D53D94
:103A80000FB511BE61C84C3EA8AAAABEF8B506463D
:103A90000C46FDF7F1FA051E0F4600D00120014348
:103AA00049000B484908411AC90F0DD0002E01D01A
:103AB000012100E000210C4361004908401AC00FB9
:103AC00002D10120FDF7A2FA28463946F8BD0000D0
:103AD0000000F07F70B501252D050C001C4310D4AB
:103AE000EC4206D4AC420AD4994200D070BD904258
:103AF00070BDE94217D4EB4215D4994270BD89429A
:103B000070BDEC4206D5AC42F9D58B4200D070BDF9
:103B1000824270BD6D004C00EC4204D25C00EC426D
:103B200001D28B4270BD034C30B4FDF729FB30BC91
:103B300070BD00BF1900120470B501252D050C00E1
:103B40001C4310D4EC4206D4AC420AD4994200D0B3
:103B500070BD904270BDE94217D4EB4215D4994232
:103B600070BD894270BDEC4206D5AC42F9D58B429E
:103B700000D070BD824270BD6D004C00EC4204D29A
:103B80005C00EC4201D28B4270BD034C30B4FDF7B7
:103B9000F7FA30BC70BD00BF1900130470B50125E1
:103BA000ED0704004C4020D4441A01D2001B09192F
:103BB000C60D4B00F2B2FF2A29D01B0E2CD00002FA
:103BC0000C0228432C43D31ADC40051910D2280AD2
:103BD00002D3401C6D0611D0761EF6058019FF2A0F
:103BE00000DA70BDC00DC00570BD694000F086F8F8
:103BF00001200543C541521C761CE8E764089C403F
:103C0000C90161408900E7D10124A043E4E71B0E0C
:103C1000440200D0034870BD002AFCD1C00FC00789
:103C200070BD00BF0000C07F70B5420064414B0012
:103C30005C41120E39D01B0E38D0FF2A3CD0FF2B2E
:103C40003AD0D2187F3A40024902400A490A451840
:103C5000ED0106004E43000A090A48430104731AA5
:103C60004019190C4318990F04D05B08012149072A
:103C70005B1A521CD80904D3401CF50301D19D06E0
:103C800007D0FF2A08D2D50506D0E4072043401903
:103C900070BD0125A843F4E7002A01DCE00770BDF0
:103CA0002402FF202043C00570BD1B0EFF2A03D055
:103CB000FF2B01D0E00770BDFF2636064500B54258
:103CC00006D84D00B54203D8D218FF2A00D0E7E746
:103CD000004870BD0000C07F70B50125ED07684049
:103CE00004004C4002D5694000F008F8FFF75CFF83
:103CF00070B50125ED0704004C4022D4441A02D2CD
:103D00006C40001B0919C60D4B00F2B2FF2A4BD0C4
:103D10001B0E50D000020C02A8432C43D31ADC40E7
:103D2000051B05D5AD0019D36D08761E521E37D080
:103D3000F605280A01D2801970BD70416D0603D0C6
:103D400070BD6940FFF730FF9C40090261404900A7
:103D500001D0401E70BD0124A04370BD6D081DD070
:103D600001202B0C01D12D0410302B0E01D12D027E
:103D700008302B0F01D12D01001DAB0F01D1AD007B
:103D8000801CEB0F01D16D00401C361A121A6D0019
:103D9000680AF5054019012A02DB70BD002070BDDC
:103DA000C036300AC00770BD1B0E440201D1FF2B84
:103DB00000D1024870BD002AF0D070BD0000C07F65
:103DC00080807F7E7D7C7B7A797877767675747358
:103DD000727171706F6E6E6D6C6C6B6A6A69686817
:103DE000676666656464636362616160605F5F5EAD
:103DF0005E5D5D5C5C5B5B5A5A5959585857575623
:103E00005655555554545353525252515150505087
:103E10004F4F4F4E4E4D4D4D4C4C4C4B4B4B4A4AD9
:103E20004A4949494848484747474746464645451D
:103E30004544444444434343434242424241414156
:103E40008182838485868788898B8C8D8E8F9192E1
:103E500093959697999A9C9D9FA0A2A3A5A7A8AA7F
:103E6000ACAEB0B2B3B5B7B9BCBEC0C2C5C7C9CCA1
:103E7000CED1D4D7D9DCDFE2E6E9ECF0F3F7FAFEF5
:103E8000555555555555C53F7D6FEB0312D6D4BFDB
:103E90005544880E55C1C93F3B8F68B52882A4BFE1
:103EA00088B20175E0EF493F09F7FD0DE13D023FA2
:103EB0004B2D8A1C273A03C0C88A599CE52A00402A
:103EC00059018D1B6C06E6BF82922EB1C5B8B33F77
:103ED0004FBB610567ACDD3F182D4454FB21E93F22
:103EE0009BF681D20B73EF3F182D4454FB21F93F11
:103EF000E2652F227F2B7A3C075C143326A6813C97
:103F0000BDCBF07A8807703C075C143326A6913C41
:103F1000C4EB98999999C9BF711623FEC671BCBFAD
:103F20006D9A74AFF2B0B3BF9AFDDE522DDEADBF15
:103F30002F6C6A2C44B4A2BF0D5555555555D53F2D
:103F4000FF8300922449C23F6E204CC5CD45B73F48
:103F5000513DD0A0660DB13FEB0D76244B7BA93FC0
:103F600011DA22E33AAD903F0000000000000000AB
:103F70000000000000000000010203040607080919
:103F8000A03F00080000002020000000F40000080E
:103F9000C03F000820000020780700001001000842
:103FA00001000000040000000000803F000000004D
:103FB000000000000000000000127A000000000075
:04000005080000B13E
:00000001FF
