:020000040800F2
:10000000B8070020550100086D2700082D200008C2
:1000100000000000000000000000000000000000E0
:100020000000000000000000000000007127000830
:1000300000000000000000006F2700087327000880
:100040006701000800000000670100086701000860
:1000500067010008670100086701000867010008E0
:100060000000000067010008670100086701000840
:100070006701000867010008670100080000000030
:100080006701000800000000000000006701000890
:100090000000000067010008670100086701000810
:1000A0000000000067010008000000006701000870
:1000B00000F002F800F03EF80CA030C80838241810
:1000C0002D18671EA246AB4654465D46AC4201D190
:1000D00000F030F87E460F3EB6460FCC0126334284
:1000E00000D0FB1A3343A246AB46184754310000F8
:1000F00074310000103A02D378C878C1FAD8520798
:1001000001D330C830C101D504680C6070470000CD
:100110000023002400250026103A01D378C1FBD823
:10012000520700D330C100D50B6070471FB51FBD0B
:1001300010B510BD01F016F81146FFF7F7FF02F0F9
:100140007FFB01F02EF803B4FFF7F2FF03BC01F0D0
:1001500081F800000748804707480047FEE7FEE7B0
:10016000FEE7FEE7FEE7FEE704480549054A064BC1
:1001700070470000FF270008B1000008B801002008
:10018000B8070020B8030020B803002001E004C035
:10019000091F0429FBD28B0701D50280801CC907E7
:1001A00000D00270704700290BD0C30702D0027044
:1001B000401C491E022904D3830702D50280801CFB
:1001C000891EE3E70022EEE70022DFE700220309B1
:1001D0008B422CD3030A8B4211D300239C464EE062
:1001E00003460B433CD4002243088B4231D303091E
:1001F0008B421CD3030A8B4201D394463FE0C309D0
:100200008B4201D3CB01C01A524183098B4201D3E7
:100210008B01C01A524143098B4201D34B01C01AD2
:10022000524103098B4201D30B01C01A5241C3084A
:100230008B4201D3CB00C01A524183088B4201D3B9
:100240008B00C01A524143088B4201D34B00C01AA5
:100250005241411A00D201465241104670475DE0BA
:10026000CA0F00D04942031000D3404253409C467D
:10027000002203098B422DD3030A8B4212D389013A
:10028000FC2212BA030A8B420CD3890192118B42D1
:1002900008D3890192118B4204D389013AD092117B
:1002A00000E08909C3098B4201D3CB01C01A524136
:1002B00083098B4201D38B01C01A524143098B42FF
:1002C00001D34B01C01A524103098B4201D30B01E8
:1002D000C01A5241C3088B4201D3CB00C01A52410D
:1002E00083088B4201D38B00C01A5241D9D24308F4
:1002F0008B4201D34B00C01A5241411A00D2014631
:100300005241104663465B1001D34042002B00D59A
:100310004942704763465B1000D3404201B505492E
:10032000002802DC491C084000E00846C046C046E0
:1003300002BD00BFFFFFFF7F70477047704700009E
:10034000F0B50C46871A9C410D46861A9D4103D292
:10035000C01BA141D21963410D0D1F0DC94EEC1BED
:10036000AE435CD07F057F0D0026002F51D02D05B8
:10037000AC46A943DD020123ED0A1B051D432023E2
:100380001B1B24D41746E740381871412F46E7401D
:10039000CC199D402818314661410C0D27D161448C
:1003A0009A4013D50023401C594152000ED14008F9
:1003B000400001224B005205D34207D305204007DD
:1003C000C14201D5B04900E0B0493046F0BD6B00F4
:1003D000002A00D001229A181F23203C1B1B01D5A4
:1003E000002302E0E540281871410C0DD7D001240C
:1003F00024050919C407CD0740084908E40F28431C
:100400006144002CD5D00024401C61419A40D0D1D9
:10041000CDE76A05520DD9D1C90FC907D5E79C4D63
:100420004E00002801D0012400E0002434195F00B0
:10043000002A01D0012600E00026BE19954FAC42EB
:100440000CD8AE420AD8B44206D001256D05EC4264
:10045000BCD010461946F0BD9942FCD00020394668
:10046000F0BDF0B51FB40C460F46811A9F412546DA
:10047000861A9D4106D20125ED076F40401ABC4106
:1004800052187B41210D1E0D8D1BAC467D4D8D43B9
:100490007ED075056D0D7CD00D05AE46AC431B03BB
:1004A0001B0B794D52429D41202366469B1B14D362
:1004B0001746F740381800260090744160462F46D2
:1004C0000741E41900989D402818664116D47146EA
:1004D00071189A4025D5012320E093182A466A41D5
:1004E0005200002B00D0521C1E23203E9B1B002BD1
:1004F00061DD3541EE1728186641E8D500187641D0
:100500005B1C9A4000D3401C4B05F3181524E340B4
:1005100010D3002B52D071467118D30FC01802D3DC
:10052000491C05B0F0BD0123DB079A42F9D1400810
:100530004000F6E701225205B21801D1002853D03D
:100540000123CC0ADB029943891E002A08D1020C40
:1005500003D0020C0004103902E0024600202039CA
:100560000023550B05D112020823550B01D152016E
:100570000D23550C01D112011B1DD50C01D1920088
:100580009B1C150D01D152005B1C2025EE1A01E0C9
:100590002CE022E00546F54015439840CA1AE107D1
:1005A00069181305C918002ABBDA03204007081888
:1005B000C10FC9070FE071466118B2E7F1074008A3
:1005C0000843711071444A000CD001235B059A4224
:1005D000A7D2C90FC9070020A3E74905490D26D1B5
:1005E000002001E00028F4D100219AE7284D6600A0
:1005F000002801D0012100E0002171185F00002ACD
:1006000001D0012600E00026BE19224FA94210D8D1
:10061000AE420ED8B14208D001256D05E94206D0A0
:100620001946A802414010467BE79C4201D0214672
:1006300077E70020394674E710B50C465C4005D5D5
:100640000124E4076340FFF70CFF10BDFFF778FEBD
:1006500010BD30B40C465C4004D50124E40763406F
:1006600030BC6DE630BCFCE670B50124E4076140A7
:100670000D465D4002D4FFF763FE70BD6340FFF797
:10068000F0FE70BDFF0700000000F0FF0000F07FEB
:100690000000E0FF0000F87FF0B5F94D0C091E09DD
:1006A0002C402E402F468BB0A7437DD0B543FCD0C5
:1006B000002E7AD0002CFCD00D465D40ED0F254376
:1006C000AC1BFF25AD0464190894C502440DC90292
:1006D0002143500DDC0204430120C00701430443C1
:1006E000D2020191200C110C00958C460104234686
:1006F0008B430A9161460904E24D8A430991010A3C
:100700007D4449198039097805464D4301266D1805
:10071000F605751B6943C90C640B891C4C436418AE
:10072000B5012C1B250C2E04B4434C434D43210C26
:10073000691889090591009DE90701D00121C907C0
:1007400004912C4601996708CD072F434C08059D5D
:10075000E10B4D432D0C29466646754302950D4627
:1007600045432E46029D7D1BB44100950D465D43D9
:1007700001942C0C2F040D465543AE462D0C3D43E1
:10078000029503947546049C2D04641B049406D2C0
:10079000029C039D641C002675410395029401ACE4
:1007A00070CC009F7D1B01E03EE162E1B441090491
:1007B0000095079101940599A4086143090C0C4622
:1007C0004443650BE7040C4666467443A646640B37
:1007D0003C43039502947446049DE4042C1B04944A
:1007E00006D2029C039D641C002675410395029469
:1007F00001AC70CC009F7D1BB44101940C465C435E
:100800000095650FE7000C465443A646640F3C4331
:10081000039502947446049DE4002C1B049406D2B4
:10082000029C039D641C002675410395029401AC53
:1008300070CC009F7D1BB441AE09AF06049DC9007A
:10084000AD092F43049DA406AD060495079D3443CE
:1008500069180791059DE10B4D432D0C294666460D
:10086000754302950D4645432E46029D7D1BB441BE
:1008700000950D465D4301942C0C2F040D46554305
:10088000AE462D0C3D43029503947546049C2D0401
:10089000641B049406D2029C039D641C00267541CF
:1008A0000395029401AC70CC009F7D1BB441019470
:1008B0008C050694079C890A611800950791019C94
:1008C0000599A4086143090C0D464543680BEF04E4
:1008D0000D46644665436C0B3C43049FED047D1B51
:1008E000AC4602D20025641C6841009E019D371B66
:1008F00085410846584301950C46460FC5005443B0
:10090000600F28436546E4002C1B02D20025401CE2
:100910006E41019D3F1AB5412846BD098006284316
:100920008446A009BF064E020699A406761807431E
:10093000079D002068410A99079019430020099BF0
:1009400000906046FF1913434041E20F64003A43B0
:10095000A4460446D71A8C41A04203D90120009036
:1009600020463A46C70F941840416246D20F2243B0
:10097000644664000494009CBE466400D71AA446F2
:10098000044602978C417746002F01D1A04204D93A
:100990006046401C8446029A2046C40FA64694181E
:1009A0004041049A0546D20F224364466400D31A9C
:1009B0008D417146002901D1A84202D928461A4624
:1009C000641C10430122002800D01643610200205D
:1009D000079B891904465C410223002C02DB49185D
:1009E00013466441089DCE0A2D145D194B05670519
:1009F000E10A2C050D1908993E43C9076940002BEF
:100A000008D0934006D30022761C5141002B01D11F
:100A1000760876001C4A002D43DB154241D0AA43DC
:100A20003FD030460BB0F0BD06180D464D41174C77
:100A30007642AC411AD395181C465C41134A6D426C
:100A4000A24113D3012252054C00D4420AD15C00CA
:100A5000D4420BD04B4002D592021143E2E7490049
:100A60004908DFE75940C90FC90718E000200849C5
:100A7000D8E7054801420DD10342F7D0F2E7000064
:100A80000000FF07CC2900000000F07F0000E0FF1D
:100A90000000F87F114859400143C0124140002036
:100AA000C0E70123089A9B069A4205DC03225207FD
:100AB0008918C90FC907B5E7052252078918074ADF
:100AC0001143D2125140ADE770B515461C4602469F
:100AD0000B4628462146FFF7DFFD70BDFFFFFF7F75
:100AE0001F22030C02D10F22000402D0030E03D0F8
:100AF00004E00020014670470002083A030F01D1CC
:100B00000001121F830F01D18000921E002801DB1B
:100B10004000521E120551184205C01241181046DD
:100B20007047C10FC90700D040420122920711430C
:100B3000D6E701218907D3E7F0B58B4C0F0925468D
:100B400089B0BD437BD01D092646AE43FAD00E4680
:100B50005E402740F60F3E43254071D024012142DC
:100B6000FBD0FF24AD19A4042D1B039501252D05F1
:100B7000DB02DB0AC9022B43C90A29431E01090112
:100B8000040F130F050121431701880B82039143C2
:100B90002D098C46A90B1E438A039543B30B9A0378
:100BA00096433F09BA0B9403A74302962E467E4311
:100BB0000497B6464E19D7190C460196544305972B
:100BC0007E43371B7646BF1B3601B646BE0B361931
:100BD00000967646BC043719009C01D3641C00942F
:100BE0006400002F01D001263443029E049F754308
:100BF00066467E430496760034196E0034190094DC
:100C0000029C019E1C196643751BAE460694654600
:100C10004519059C05956C43594375460891691A19
:100C20000191049E01465143A41B0491611A009C4A
:100C30000791E10605D061090122114302E072E04B
:100C40006EE06109089D00272C0A2D066918049D95
:100C50007C412A0A2D066918019D6241AC0DAD0246
:100C60006D185441079A910D920255196141029AEB
:100C7000644658435443069B059A5A43121A131B61
:100C80009A0E9B015B187A41010B0005C318514174
:100C9000220A200644195A419A4200D2491C0120D6
:100CA0004002814203D315230226F64302E01423B7
:100CB0000326F6432020C51AA9401746AF40DA4064
:100CC0000A4320460399D84009147318190551188E
:100CD000039A3843D2075140AC4009D001229440D6
:100CE00006D30022401C5141002C01D14008400095
:100CF0001E4A934212D3012203989206904207DBC8
:100D00000520400709181A480143C012414004E079
:100D1000032040070818C10FC907002009B0F0BD23
:100D20000020F107FAE705180C464C4111486D42C6
:100D3000A04115D394181A465A410E486442904176
:100D40000ED301204A004005824209D35A00824254
:100D500006D35940C90F084AC90700201143DDE7EF
:100D600000200649DAE700000000FF07FE07000048
:100D7000FFFFFF7F0000E0FF0000F07F0000F87F32
:100D8000F0B5FF252D04C609C209FF2704462E40F1
:100D90000137CB093E4348402A402B400746002AF2
:100DA0006BD0002B69D0AA4267D0AB4265D0002837
:100DB00000DA32460125ED0529432C4309022002C1
:100DC000090AD21A4B0C7F24E31A434C000A7C44D4
:100DD000E35C7D242404121914145B00A2188842D9
:100DE00001D3521C00E0400049420C465C432411F0
:100DF0005C43DB016415E318040A5C43C502200D63
:100E00000C4644436419250A5D432303EC0C0D464C
:100E1000654300030019EB184C42A34201D35B1851
:100E2000401CD4052018002B07D05B00C91804D340
:100E3000401C002901D1400840003F2189048A421A
:100E400009D3002A08DC1106090F04D00321490741
:100E50004018C00FC007F0BD0122410012068918DA
:100E60007F2252069142F6D205214907C84201D598
:100E70009010F0BDFF20C005F0BD002F00DA324613
:100E80001648AA4207D2AB4205D21902090E17D062
:100E9000F80FC007F0BDFF2563002D06AB42F9D85F
:100EA0004900A942F6D8AB4201D1A942F2D0A942E9
:100EB00001D1002101E061004908D0050843F0BDDF
:100EC0001102090EFBD0FF200243D005F0BD0A46F7
:100ED0000146104654E700007E2300000000C07F5A
:100EE0001F22030C02D10F2200041CD0030E01D1DB
:100EF0000002083A030F01D10001121F830F01D134
:100F00008000921E002801DB4000521ED2055118BD
:100F1000021251181922904004D3491C002801D113
:100F20004908490008467047C10FC90700D0404230
:100F3000012292071143D3E701218907D0E710B5B9
:100F400000F0B8F8006810BD10B5044600F0B2F823
:100F5000046010BD70B505464800440D124B0020DA
:100F6000002C0AD0634008D09A4206DA6642B242A8
:100F700003DD12054019514170BD002C08D0002B33
:100F800009D0C90FC907002AF6DB084A114370BD12
:100F9000C90FC90770BD28460A03104302D00020BC
:100FA000034970BD284670BDFF0700000000F07FB8
:100FB0000000F87FF0B53D4B02460C461C40002077
:100FC000002C63D03A4D8B4366D000296BDB0B0DB0
:100FD0001D05A94301252D0529430124FD33E340C7
:100FE00001D392184941FF3381339C468B02940D03
:100FF0000121234389074C42920200271B198C10C0
:101000005D1A04D42D1B02D42B4665004919921891
:101010005B416408F4D15C1A08D40125ED07EE1792
:101020005519744102D42A462346491C94185B4141
:10103000012292071D46E61B8D4106D4B61A854152
:1010400003D42B46550034467F1924195B415208BE
:10105000802AEFD1234300D0022338460A22D04011
:1010600001D3012213438A0510436246890A1205FF
:101070008918002B09D00122D34002D30022401C42
:101080005141002B01D140084000F0BD0B03134338
:1010900007D0C90FC907F0BD0803104303D10029C9
:1010A00001DB1046F0BD00202946F0BD0000F07FB6
:1010B0000000F87F00487047A0000020F8B5264CDB
:1010C0004E00069DA6420AD8A64201D1002806D1AC
:1010D0005E00A64203D8A6420AD1002A08D00D24F9
:1010E0002404254233D02946002000F062F8F8BDE0
:1010F0000C461C4311D4994207D0C81A02D3EFF30F
:101100000080F8BDEFF30080F8BD801A02D3EFF342
:101110000080F8BDEFF30080F8BD09242407E50046
:101120008B4207D0581A02D3EFF3008006E0EFF3AA
:10113000008007E0101A03D3EFF30080A04303E020
:10114000EFF30080A043284380F30088F8BD0095AA
:1011500000F046F8F8BD00000000E0FF00487047CE
:10116000A00000207546FFF7F9FFAE46050069466E
:101170005346C008C000854618B020B5FEF7F4FFFE
:1011800060BCB64600260027C0C5C0C5C0C5C0C5E6
:10119000C0C5C0C5C0C5C0C5403D490849008D4651
:1011A000704710B50446C046C0462046FEF7CBFF48
:1011B00010BDC80212D54803400F002804D0C80350
:1011C000C043012188407047EFF30080000100090F
:1011D00003210907084380F3008870470020704707
:1011E00010B500200249029A00F004F810BD00007A
:1011F0000000F87F10B50C461107090F092904D02B
:101200000A290AD008290CD104E011460820FFF76A
:10121000D0FF06E0510606D501E0510601D50120B8
:10122000C007214610BDD10607D501010909CC0828
:101230004907000E0006044309E0410F2002490758
:10124000000A0143200E00061D22D1410143084639
:10125000E7E7000001491820ABBEFEE726000200C8
:1012600070470000F0B588B007465F48874201D05C
:10127000052000E003200090002206921446059706
:101280000E683046E04000D1ACE001250295A54053
:101290002E4000D1A0E0049403924A680323144630
:1012A0001C40601E01281AD803230192069A93401D
:1012B000B8689843CF6897400743059887600198BE
:1012C000C006C00F049A9040059F7F68AF43074354
:1012D00005984760059FD8435500019A08E01846D5
:1012E000069DA840C043032C02D1069D1C461CE06D
:1012F000FB6803408F68AF401F43059BDF60059F7D
:10130000022C12D11C22039B1A400F239340049CF1
:10131000E408A4003C19276A9F430B6993403B43B0
:10132000059F23624A6803241440AC403B68034095
:1013300023433B609003800F039A049C4CD02C48BD
:1013400003460068029D28431860186828400790EB
:1013500023460C2414400F20A04003229343079AF5
:10136000244A15469A5882435B190920C0068742D1
:1013700008D02148874207D020488742009804D1EE
:10138000022002E0002000E00298A0401043186014
:10139000164880684B68DA0201D5304300E0B0435C
:1013A000049C124A9060D0689A0201D5304300E054
:1013B000B0430E4AD06050689A0301D5304300E034
:1013C000B0430A4A50601068DA0301D5304300E0A8
:1013D000B043039A054B1860121D0698801C0690B6
:1013E000641C4DE708B0F0BD000C0048000401404B
:1013F000181002400800014000040048000800489E
:10140000014800687047C046B0010020B0B50246F0
:101410004120135C0220202B19D1134640331C7845
:10142000012C14D024205870106802680124A243B3
:101430000260220305689543056002680A43026062
:101440000168214301600020187020215970B0BD4F
:10145000B0B502464120135C0220202B19D113465F
:1014600040331C78012C14D0242058701068026876
:101470000124A24302600F2212020568954309026B
:101480002943016001682143016000201870202178
:101490005970B0BDF8B5002824D004460546403543
:1014A0006878002804D100202870204600F0F8F960
:1014B000242068702068026801218A4302600F229C
:1014C000120663689343036183681C4A1340836078
:1014D000A368E768012F07D1CE0333438360031D60
:1014E00046680CE00120F8BD2126B6023343836034
:1014F000031D4668022F02D1CF023E4301E0CF0216
:10150000BE431E6043680E4E1E434660C3681340D0
:10151000C360226963691343A26912021A43C2605D
:10152000E269236A1343036002680A4302600020F1
:101530006064202169702063A870F8BDFF7FFFFF01
:1015400000800002F0B589B005464120285C0224E5
:1015500020285BD10E9F002F55D00F9E002E52D019
:1015600008932B464033187801284FD003920691F8
:1015700001241C700793FFF743FF05900090E103DF
:1015800019232846224600F0FFFD00283ED110997D
:101590002220079A50704020907000236B646F6285
:1015A0000F466B636E85BC480090089EF2B22846D9
:1015B0000699029300F0D0FD284604973946059F0E
:1015C0003A4600F045FE002819D1012E0AD02868BD
:1015D0000399090A8162284604993A4600F038FEC8
:1015E00000280CD128680399C9B281620097402174
:1015F00000222846049B00F0C7FD002809D0079868
:101600000299017002E0012460026864204609B07A
:10161000F0BD3E46012427066306688D000A324865
:101620000897039306D001222A8500902846069940
:101630003B4605E0698D29850090CAB22846069987
:1016400000F08AFD00960421002728463A46049BB4
:1016500000F09AFD0028D9D12868406A696A0870AC
:10166000688D401E6885686A401C6862288D411E2E
:101670002985688D09041FD100281DD0009680217E
:10168000002628463246049B00F07EFD0028BDD18E
:10169000688D000A06D001222A8500962846069900
:1016A000089B06E0688D28850096C2B228460699F8
:1016B000039B00F051FD059E688D0028C2D128468D
:1016C0000499324600F09AFD002807999ED12868B7
:1016D0000C462021C1614268704B13404360617029
:1016E0002770A7703C4691E700240080F0B589B0D0
:1016F00004464120205C022520285FD10E9F002F48
:1017000059D00F9E002E56D00893059222464032A3
:101710001078012852D00125157007920691FFF725
:101720006FFE04900090E903192320462A4600F03A
:101730002BFD0699079A002840D1109B212050705C
:10174000402090700020606467620390606366854B
:101750001F4651480090089EF2B201252B062046F4
:10176000019300F0F9FC204602973946049F3A465F
:1017700000F06EFD00281AD1012E0AD020680599CC
:10178000090A8162204602993A4600F061FD00286C
:101790000DD120680599C9B2816200978021002689
:1017A00020463246029B00F0EFFC002809D0079843
:1017B0000399017002E0012568026064284609B0BF
:1017C000F0BD3046029E059001256B06608D000A33
:1017D000089307D0FF22228500200090204606991A
:1017E000019B06E0608D208505990091C2B22046DC
:1017F000069900F0B1FC204631463A4600F028FD3B
:101800000028DBD12068616A0A788262608D401E00
:101810006085481C6062208D411E2185608D090411
:1018200021D100281FD00097802133460026204672
:1018300032461F4600F0A8FC0028BFD1608D000A88
:1018400006D0FF222285009620460699019B06E0DD
:10185000608D20850096C2B220460699089B00F054
:101860007BFC3E46049F608D0028C4D12046314653
:101870003A4600F0C3FC002807999FD120680C4627
:101880002021C1614268054B134043606170059D92
:101890002570A57092E7C0460020008000E800FE99
:1018A000B0B586B0044601A81421FEF78DFC20686F
:1018B0001249884220D101256804114C2168014356
:1018C00021602168014000910420059000200390D0
:1018D00012200290032004904002019000980920F9
:1018E000C00601A9FFF7BEFC6805A1680143A1601D
:1018F000A16801400091009806B0B0BD00540040BE
:10190000141002401A48007802490A68101808604A
:101910007047C046B001002080B5A348016810227E
:101920000A430260032000F005F800F023F80020CD
:1019300080BDC04670B504467D20C0000C4E317895
:10194000FEF744FC01469B480068FEF73FFC00F0B0
:1019500053FB0125032C08D8002806D10025E843B5
:1019600021462A4600F01CF87460284670BDC04627
:101970000000002082B00948016801221143016083
:101980000168114001910199110742680A434260C0
:10199000406808400090009802B07047181002405C
:1019A00080B500F02DFF80BDF0B585B0044680788D
:1019B000C007394B5BD0012211071868C0000191A4
:1019C000029202D50020039007E0186808431860CF
:1019D00018680840049004980392304E3068C0059F
:1019E00011D402980702306838433060FFF708FDD1
:1019F00005463068384206D1FFF702FD401B6428D7
:101A0000F7D9032545E003252802234B59680140F7
:101A100020D06268024091421CD0029800045968AC
:101A20005A6802435A605A6882435A6008461C4A00
:101A300010405860C8070DD0FFF7E2FC06465B4F28
:101A4000154B5868800705D4FFF7DAFC801BB842B5
:101A5000F6D91EE058681249084061680143596090
:101A60000398002803D018680199884318602068FB
:101A7000C10705D0596903229143A2680A435A61FC
:101A80000025800605D5586910218843E168014387
:101A90005961284605B0F0BD1C100240007000409E
:101AA000FFFCFFFFF8B500282ED004463E4B1A6815
:101AB000012002408A4208D21A680126B2430A4332
:101AC0001A601A6832408A426BD1009121688A07F5
:101AD00010D54A0706D507221202454B1D461B6842
:101AE00013432B60424A15461268F0239A43A368B9
:101AF00013432B60C9072AD061683D4A121F012990
:101B000004D11268920307E001264AE01268022914
:101B100001D1920100E09207064642D534480246C0
:101B200000680326B04308431060FFF769FC0746CE
:101B30001E4D2F4800680C210140606880008142E2
:101B400005D0FFF75DFCC01BA842F2D929E0164A78
:101B50001068012630400099884207D91068B043C8
:101B6000084310601068304088421AD1207840073E
:101B700008D5072000021E490A4609688143E0682B
:101B80000843106000F018F8194909680906090FA0
:101B9000074A515CC840074908600320FFF7CAFEA6
:101BA00000263046F8BDC0460020024088130000E1
:101BB000303200089800002010B50D490A680C2347
:101BC00013400C48082B08D193021B0F0AA4E45CB5
:101BD000896AD20303D4104807E0044606E00F22C6
:101BE000114009A2515CFEF7F1FA4443204610BDB2
:101BF0000410024000127A000203040506070809D7
:101C00000A0B0C0D0E0F1010010203040506070845
:101C1000090A0B0C0D0E0F1000093D00F0B587B03E
:101C200007460120002F00D1DDE104903878C0077D
:101C3000EE4E059753D071680C200140042906D060
:101C400071680140082909D17068C00306D5306861
:101C5000800344D57868002841D16FE07968002975
:101C600004D001291AD1012001041FE00120010440
:101C700032688A433260810432688A4332604404A5
:101C8000FFF7BEFB0546059F3068204227D0FFF7CF
:101C9000B7FB411B03206429F6D9A4E1306805296C
:101CA00007D101218A0410433060090430680843D9
:101CB00006E001210A0490433060890430688843BB
:101CC000306001204404FFF79BFB0546306820424A
:101CD00005D1FFF795FB401B6428F7D956E138780A
:101CE000800744D570680007800F1BD070680C21F6
:101CF0000140082902D17068C00313D5059CE16832
:101D0000306800291CD0012108433060FFF778FBC0
:101D100005463068800723D4FFF772FB401B02287A
:101D2000F7D933E130688007059A02D5D0680128D9
:101D300004D13068F8218843116915E0049852E114
:101D4000012188433060FFF75BFB05463068800760
:101D50000DD5FFF755FB411B03200229F6D942E1BF
:101D60003068F82188432169C90001433160059C2E
:101D70002078000721D5E169706A00290ED0012181
:101D800008437062FFF73CFB0546706A800714D475
:101D9000FFF736FB401B0228F7D9F7E00121884303
:101DA0007062FFF72DFB0546706A800705D5FFF7C7
:101DB00027FB401B0228F7D9E8E0207840071BD416
:101DC0002078C0067AD5059A516901294ED1706BE9
:101DD000042101437163706B012101437163FFF7BB
:101DE0000FFB0546706B800760D4FFF709FB411BB2
:101DF00003200229F6D9F6E001221107F069C0009C
:101E00000191039202D50020029007E0F069084397
:101E1000F061F0690840069006980292744F3868A5
:101E2000C00511D403980402386820433860FFF7D6
:101E3000E7FA05463868204206D1FFF7E1FA411B70
:101E400003206429F6D9CEE005988168694F0029FE
:101E500017D00129039A06D0306A052900D084E002
:101E6000042108433062306A104383E0706B491DDF
:101E700067D1042188437063706BF82188439169AE
:101E800019E0306A039988433062306A042188433C
:101E90003062FFF7B5FA0546306A800778D5FFF75C
:101EA000AFFA411B0320B942F6D99CE0706BF821D0
:101EB000884305998969C900014371630598046ADB
:101EC000002C00D18EE070680C210140082917D148
:101ED000012C049800D186E00120030471680B40B6
:101EE000F26A059D6C6AA3427DD10F231A40EC6A09
:101EF000A24278D19A041140AA6A914272D072E04B
:101F00000120020631680492914331604706FFF7D1
:101F100077FA0546022C0AD1049C3068384241D039
:101F2000FFF76EFA411B03200229F6D95BE0306807
:101F3000384257D0FFF764FA411B03200229F6D933
:101F400051E0042108437063706B01218843706382
:101F5000FFF756FA0546706B8007AFD5FFF750FACA
:101F6000411B03200229F6D93DE090433062306ADC
:101F7000042188433062FFF743FA0546306A800740
:101F800006D4FFF73DFA401BB842F7D903202AE0F8
:101F900002980028059C00D112E7F0690199884356
:101FA000F0610DE7F06A0F218843059AD16A014379
:101FB000F1623D20000471688143906A0843516AD0
:101FC00001437160306820433060FFF719FA04461E
:101FD0003068384206D1FFF713FA011B03200229AB
:101FE000F6D900E0002007B0F0BDC0460010024066
:101FF0000070004088130000401E010E01D0012037
:1020000070470749074A5060074803680B4003219F
:1020100089075918016000209060072111607047FE
:10202000FFFFFF0010E000E020ED00E0FEE70068A9
:102030008169890701D5002181628169C90703D1BE
:10204000816901220A43826170470000F0B587B0C0
:10205000164604464030049020688269D20602D4B5
:102060000026374646E01022C26101220192920307
:102070000392002702970691826920252A403A435D
:1020800031D10027481C2CD0FFF7BAF90699002956
:1020900002D0801B884224D90597206842680499A1
:1020A0008B7801278169202B0CD0039B1A4009D122
:1020B000FA03114006D04168039A11434160FFF7CB
:1020C0009FF9064620688069800608D4FFF798F9D2
:1020D000801B1A28F6D302982843029000E0059F3F
:1020E00006992068C8E7002F00D1C5610421029E2F
:1020F0000E43019F01228169CB0503D51302C36101
:10210000164317464B0504D59202C26108221643B6
:1021100001270125890504D56902C1610220064312
:1021200001E0002F13D02046FFF781FF20684168AF
:10213000084A0A404260606C304360642020049981
:102140004870002008708870284607B0F0BD002550
:10215000FAE7C04600E800FE70B5049C650D006813
:102160004668AE43064D3540064E0E401E431104F0
:10217000314321430122D20791432943416070BD7D
:10218000009C00FCFF030000FEB51D4601920F46B7
:1021900004464030009008980290206880693840DA
:1021A000C01B414241410198814224D12046294629
:1021B000029AFFF74BFF012600281DD1681CECD0C6
:1021C000FFF71EF9002D03D00299401AA842E4D966
:1021D000206880693840C01B4142414101988142DA
:1021E000DBD1606C202108436064009A51700020AC
:1021F0001070907000E000263046FEBDF8B516461F
:102200000F460446403000902068806980061CD448
:10221000204639463246FFF719FF0125002815D11F
:10222000FFF7EEF8002F02D0801BB842ECD92068EF
:1022300080698006E8D4606C202108436064009ABD
:10224000517000201070907000E000252846F8BD05
:10225000F8B516460F460446403000902068806965
:1022600080071ED4204639463246FFF7EFFE01258F
:10227000002817D1781CF1D0FFF7C2F8002F02D048
:10228000801BB842EAD9206880698007E6D4606C78
:10229000202108436064009A5170002010709070F3
:1022A00000E000252846F8BDF0B593B00C930B92E2
:1022B0000446006C0A90616C09911A9F1B9B3A4678
:1022C00011971D46FEF738FC0D900E91226B05927A
:1022D000636B0493FEF7BDF9A26B0F92E66B334676
:1022E000FEF7B7F90CCC083CFEF7A6F93A462B46A8
:1022F0001095FEF721FC02460B46A06AE16AFEF744
:102300009BF912900D4601910F9831460D9A0E9B44
:10231000FEF79FF9064603900F4602912269636912
:1023200012982946FEF788F9024607900B46069157
:1023300030463946FEF7B0F905460E460F9105982E
:1023400004990D9A0E9BFEF784F9059004912A4694
:1023500008953346FEF7F0FB06460F46A068E16895
:10236000119A109BFEF7E8FB02460B460A98099962
:10237000FEF762F932463B46FEF76BF92064616472
:10238000129F3846019E31462A460F9BFEF7D4FB2A
:1023900002460B4603980299FEF75BF9A063E163DE
:1023A000384637463146079A069BFEF775F90246CE
:1023B0000E900B460D91059D2846049E3146FEF772
:1023C000BBFB02460B4628463146FEF742F9206326
:1023D0006163129D284639460E9A0D9BFEF7ACFBB1
:1023E00002460B4628463946FEF733F9A062E16201
:1023F000226A1292636A0A9318981999FEF729F9CA
:10240000119A109BFEF798FB02460B46A069E16902
:10241000FEF712F907460B4611910B980C993A46B4
:10242000FEF717F906460D46089A0F9BFEF784FB48
:1024300002460B4612980A99FEF7FEF82062616286
:10244000304629460E9A0D9BFEF776FB02460B4658
:1024500038461199FEF7F0F8A061E16113B0F0BDC4
:10246000F0B589B00646642702970124019408ADAF
:102470000095D02175222346FFF764F82878682854
:102480002FD107AD00200390287030460596012615
:1024900000A9E0C1D02106916B2204973346124C6B
:1024A000A047039C0720287000A8E0C019220598C7
:1024B000069933460C4FB8472C7000950196049846
:1024C00002901C22059806993346074FB8472C7096
:1024D00000950196049802901B22059806993346B0
:1024E000B847204609B0F0BDED160008F0B591B030
:1024F0000C46642102910E2101910DAD0095D02171
:102500003B2201230993FFF71DF868780D99090212
:10251000081804902080E878A97809020F186780CD
:1025200068790E9909020818A080697A0F9A120238
:1025300052180592E9790791A97906912284E97ADE
:10254000AA7A120251180A91618400B2FEF7E9FAE0
:102550000026794B3246FEF79FF86A7B0B92109A61
:102560000892A061E16138B2FEF7DBFA734D3246A2
:102570002B46FEF7E1FA20616161049800B2FEF794
:10258000D0FA32462B46FEF7D7FAA060E1600598F4
:1025900000B2FEF7C6FA6A4D32460C962B46FEF79D
:1025A0007BF8A062E162069800020799401800B229
:1025B000FEF7BAFC6349FEF7E3FB634900F0DAFC7F
:1025C00020640A9800B2FEF7ACFA32462B46FEF7BA
:1025D00063F820636163089800020B994018A08497
:1025E00000B2FEF79EFA32462B46FEF755F8A0637E
:1025F000E163FEF705FF0546544E3768FEF700FF1E
:1026000030600C9EE81BFEF794FA514B3246FEF701
:1026100043F80B900A9104200890205E40432188E3
:1026200009B249434018FEF77CFA00F0E9FB054681
:102630000F463246334600F0D9F9002810D1022067
:10264000205EFEF76EFA2A463B46FEF725F800F0BC
:10265000FBF9404A404BFEF76FFA0646079100E04F
:102660000796208800B24042FEF75BFA05460F4607
:102670000898205EFEF755FA02460B462846394672
:1026800000F0F0FA334A344BFEF756FA07460D468F
:102690000022324B00F0B5F900280C9607D1206DCE
:1026A000616D00222E4B00F0B7F900280FD10022F7
:1026B0002B4B3846294600F0BAF900280BD1206D83
:1026C000616D0022254B00F09CF9002803D12548BC
:1026D0008761C5610EE0206B616B009001910B98E2
:1026E00002900A9803901F483A462B46FFF7DCFDFC
:1026F00007460D46276565650998C607B54300225C
:10270000174B3846294600F092F9A16AE56A00287D
:1027100002D17540A162E5620C9A079B0091019578
:102720000B9802900A9803900F48FFF7BDFDA06434
:10273000E16411B0F0BDC0460029CC400000103F5C
:10274000006050400000AA43B81E1242AC010020B5
:1027500000408F40F8C1631ADCA54C40008056C091
:10276000008056405000002008000020FEE770471F
:10277000704780B5FFF7C6F880BD70B594B008AC5F
:10278000201D1C21FDF720FD0025079506950595C8
:10279000049513950520C0041290119502261096F9
:1027A00010200C9001200B9008960395029501953E
:1027B00000952046FFF732FA002803D0EFF310808F
:1027C00072B6FEE70795069505960720049004A8C3
:1027D0000121FFF767F9002803D0EFF3108072B6EC
:1027E000FEE70395202000906846FFF7DDF80028FB
:1027F00003D0EFF3108072B6FEE714B070BD7047DF
:10280000002805D40322034693430C4A9A1806E095
:102810000F220240083A03239A43074BD21880073D
:10282000C00E8901C9B28140FF23834010689843DC
:10283000084310607047C0461CED00E000E400E073
:1028400082B0FFF769F8FFF798FF01208105224A5F
:1028500013680B43136013680B4001930199410403
:1028600013680B43136012681C4C00231C4D1D4E53
:1028700026606560A360E0600A40009200982046F0
:1028800010301421FDF7A0FC2046FEF703FE0028BF
:1028900003D0EFF3108072B6FEE710480021FEF778
:1028A000B5FD002803D0EFF3108072B6FEE70B48A9
:1028B0000021FEF7CDFD002803D0EFF3108072B6A3
:1028C000FEE7064C2046FFF7CBFD074D2046294684
:1028D000FFF70CFEFAE7C046141002405801002032
:1028E0002B1D200000540040000100204900CA02B6
:1028F0000243100000D004204A0D01D001221043F1
:10290000044A490D914201D102210843012800D116
:1029100005207047FF070000F8B504464F1EC800A9
:102920000838211815461E46086849683A460623A5
:102930009A4310D02A463346FEF7FEF83A46D200B4
:10294000083AA3181A687F1E5B68FDF775FE062219
:102950003B469343EED1022F23D0042F11D0062FF4
:102960002FD12A463346FEF7E7F8E36AA26AFDF75D
:1029700063FE2A463346FEF7DFF8636A226AFDF7F4
:102980005BFE2A463346FEF7D7F8E369A269FDF7F6
:1029900053FE2A463346FEF7CFF863692269FDF7F6
:1029A0004BFE2A463346FEF7C7F8E368A268FDF7F8
:1029B00043FE2A463346FEF7BFF863682268FDF7F8
:1029C0003BFEF8BD10B50122FEF7C4FA10BD10B5EC
:1029D000FDF732FE10BD0000034A10B500201107BC
:1029E000FEF7B8FA10BD000001FDFFFF10B500F0C2
:1029F0002BFAEFF30080400001D5012010BD00202C
:102A000010BD10B500F052FAEFF30080800001D540
:102A1000012010BD002010BD10B500F047FAEFF303
:102A200000804000800F012800D0002010BD10B5AC
:102A300000F06EFAEFF300804000800F012801D013
:102A4000012010BD002010BDF0B589B004460D4630
:102A50004800069172494008884215DB7149884256
:102A600003DC884207D1002C05D020462946FFF719
:102A7000A9FF09B0F0BD6C48002D02DD6B4909B01B
:102A8000F0BD6B4909B0F0BD6A49884211DA6A4964
:102A900088420BDA20462946FFF728FF042801D197
:102AA000FFF79AFF2046294609B0F0BD0026F643FD
:102AB0005DE06D0061496D08884232DA6049884204
:102AC00019DA0026012332469B0720462946FDF7E6
:102AD000B3FD07460191012220462946FEF73AFA46
:102AE0000022584BFDF7B5FD3A46019BFDF7D4FD9A
:102AF00004460D463BE001260022524B2046294663
:102B0000FDF79AFD0746009100224E4B20462946CC
:102B1000FDF79FFD3A46009BFDF7BEFD04460D46BE
:102B200025E04949884219DA02260022474B20460F
:102B30002946FEF701F80022424BFDF77DFD0746CE
:102B400002910022414B20462946FDF782FD3A467C
:102B5000029BFDF7A1FD04460D4608E00326224630
:102B60002B4600203A49FDF797FD04460D462246C4
:102B70002B4610461946FDF7DFFF07460B46024677
:102B80000191FDF7D9FF0246029032480B460391AE
:102B900006217844FFF7C0FE3A46019BFDF7CCFFC3
:102BA00000902D48019105217844039B029AFFF77C
:102BB000B3FE039B029AFDF7BFFF02460B46019945
:102BC0000098002E0BDAFDF737FD22462B46FDF765
:102BD000B3FF22462B46FDF747FD09B0F0BDFDF7D8
:102BE0002BFD22462B46FDF7A7FF1C4AF6007A4430
:102BF00093191A685B68FDF72CFD22462B46FDF7FA
:102C000028FD174A7A4493191A685B68FDF72CFD72
:102C1000069A002AE1DA0122D207514009B0F0BD3C
:102C2000000010440000F07F182D4454FB21F93FB0
:102C3000FB21F9BF0000DC3F0000203E0000F33F15
:102C40000000E63F0000F03F008003400000F83F36
:102C50000000F0BF6206000024060000BE05000070
:102C600088050000F0B51FB4039A029D53006E4220
:102C70002E439446F40F5B084A00574E52081C43FB
:102C80008E46B44205D847420743FC0F1443B44272
:102C900005D92A466346FFF79AFE05B0F0BD4F4EB0
:102CA00066442E430AD0CC0F6646B61702273E4034
:102CB000264304464A4F144304D00BE0FFF7C4FEFA
:102CC00005B0F0BD002EFBD0012EF9D0022E32D07F
:102CD000032E34D01C462C430BD03F4CA34216D1BC
:102CE000A2420AD1012189078B438A4311460393EB
:102CF0000DE0704600280FDB25E03A4D7D44002EA4
:102D00000ED0012E10D0022E15D0032E17D0A242C5
:102D10001DD17046002816DA3148334905B0F0BDA0
:102D20006968286805B0F0BD01226968D207286883
:102D3000514005B0F0BD38462C4905B0F0BD3846CD
:102D40002B4905B0F0BD26482A4905B0F0BDD21A7E
:102D500012153C2A02DD224D264C12E06346002B60
:102D600005DA3C23DA4202DA00252C4609E0039B0F
:102D7000029AFDF791FC49004908FFF765FE0546F8
:102D80000C46002E12D0012E0DD01B4A1B4B022EDA
:102D90002846214618D0FDF75CFC3A46134BFDF758
:102DA00058FC05B0F0BD0120C00744400022134686
:102DB0002846214600F048F802D10220FEF7C4F868
:102DC0002846214605B0F0BDFDF743FC3A46074BC7
:102DD000FDF74AFC05B0F0BD0000F07F000010C018
:102DE000182D445428050000FB21F9BFFB210940A0
:102DF000FB2109C0FB21F93F075C143326A6A13C47
:102E0000F8B506460C46FEF7D5F8051E0F4600D06D
:102E10000120014349000B484908411AC90F0DD050
:102E2000002E01D0012100E000210C43610049087F
:102E3000401AC00F02D10120FEF786F82846394615
:102E4000F8BD00000000F07F70B501252D050C00D5
:102E50001C4310D4EC4206D4AC420AD4994200D0B0
:102E600070BD904270BDE94217D4EB4215D499422F
:102E700070BD894270BDEC4206D5AC42F9D58B429B
:102E800000D070BD824270BD6D004C00EC4204D297
:102E90005C00EC4201D28B4270BD034C30B4FEF7B3
:102EA0000DF930BC70BD00BF1900120470B50125CA
:102EB0002D050C001C4310D4EC4206D4AC420AD4BD
:102EC000994200D070BD904270BDE94217D4EB42E8
:102ED00015D4994270BD894270BDEC4206D5AC4212
:102EE000F9D58B4200D070BD824270BD6D004C00A0
:102EF000EC4204D25C00EC4201D28B4270BD034C28
:102F000030B4FEF7DBF830BC70BD00BF190013040D
:102F100070B501252D050C001C4310D4EC4206D4DD
:102F2000AC420AD4994200D070BD904270BDE942D3
:102F300017D4EB4215D4994270BD894270BDEC4262
:102F400006D5AC42F9D58B4200D070BD824270BD2F
:102F50006D004C00EC4204D25C00EC4201D28B428A
:102F600070BD034C30B4FEF7A9F830BC70BD00BF93
:102F70001900160470B50125ED0704004C4020D45B
:102F8000441A01D2001B0919C60D4B00F2B2FF2AE8
:102F900029D01B0E2CD000020C0228432C43D31A3C
:102FA000DC40051910D2280A02D3401C6D0611D04E
:102FB000761EF6058019FF2A00DA70BDC00DC00527
:102FC00070BD694000F022F801200543C541521C44
:102FD000761CE8E764089C40C90161408900E7D19C
:102FE0000124A043E4E71B0E440200D0034870BD57
:102FF000002AFCD1C00FC00770BD00BF0000C07F19
:1030000070B50125ED0704004C4022D4441A02D2C9
:103010006C40001B0919C60D4B00F2B2FF2A4BD0C1
:103020001B0E50D000020C02A8432C43D31ADC40E4
:10303000051B05D5AD0019D36D08761E521E37D07D
:10304000F605280A01D2801970BD70416D0603D0C3
:1030500070BD6940FFF794FF9C4009026140490040
:1030600001D0401E70BD0124A04370BD6D081DD06D
:1030700001202B0C01D12D0410302B0E01D12D027B
:1030800008302B0F01D12D01001DAB0F01D1AD0078
:10309000801CEB0F01D16D00401C361A121A6D0016
:1030A000680AF5054019012A02DB70BD002070BDD9
:1030B000C036300AC00770BD1B0E440201D1FF2B81
:1030C00000D1024870BD002AF0D070BD0000C07F62
:1030D00080807F7E7D7C7B7A797877767675747355
:1030E000727171706F6E6E6D6C6C6B6A6A69686814
:1030F000676666656464636362616160605F5F5EAA
:103100005E5D5D5C5C5B5B5A5A595958585757561F
:103110005655555554545353525252515150505084
:103120004F4F4F4E4E4D4D4D4C4C4C4B4B4B4A4AD6
:103130004A4949494848484747474746464645451A
:103140004544444444434343434242424241414153
:103150008182838485868788898B8C8D8E8F9192DE
:1031600093959697999A9C9D9FA0A2A3A5A7A8AA7C
:10317000ACAEB0B2B3B5B7B9BCBEC0C2C5C7C9CC9E
:10318000CED1D4D7D9DCDFE2E6E9ECF0F3F7FAFEF2
:103190004FBB610567ACDD3F182D4454FB21E93F6F
:1031A0009BF681D20B73EF3F182D4454FB21F93F5E
:1031B000E2652F227F2B7A3C075C143326A6813CE4
:1031C000BDCBF07A8807703C075C143326A6913C8F
:1031D000C4EB98999999C9BF711623FEC671BCBFFB
:1031E0006D9A74AFF2B0B3BF9AFDDE522DDEADBF63
:1031F0002F6C6A2C44B4A2BF0D5555555555D53F7B
:10320000FF8300922449C23F6E204CC5CD45B73F95
:10321000513DD0A0660DB13FEB0D76244B7BA93F0D
:1032200011DA22E33AAD903F0000000000000000F8
:103230000000000000000000010203040607080966
:103240006032000800000020A0000000F400000828
:1032500000330008A000002018070000100100083B
:103260000100000004000000000000E04D62503F3B
:10327000000000C07493683F000000E051B89E3F1A
:10328000000000000000000000000000000000003E
:10329000000000000000000000000000000000002E
:1032A000000000000000000000000000000000001E
:1032B000000000E04D62503F000000C07493683F82
:1032C000000000E051B89E3F000000000000000038
:1032D00000000000000000000000000000000000EE
:1032E00000000000000000000000000000000000DE
:1032F000000000000000000000127A000000000042
:04000005080000B13E
:00000001FF
