:020000040800F2
:10000000F0060020890100089516000891160008E6
:10001000931600087D0300083F1900080000000047
:10002000000000000000000000000000AB16000807
:100030007F03000800000000A9160008AD160008A4
:10004000A3010008A3010008A3010008A301000800
:10005000A3010008A3010008A3010008A3010008F0
:10006000A3010008A3010008A3010008A3010008E0
:10007000A3010008A3010008A3010008A3010008D0
:10008000A3010008A3010008A3010008A3010008C0
:10009000A3010008A3010008A3010008A3010008B0
:1000A000A3010008A3010008A3010008A3010008A0
:1000B000A3010008A3010008A3010008A301000890
:1000C000A3010008A3010008A3010008A301000880
:1000D000A3010008A3010008A3010008A301000870
:1000E000A3010008A3010008A301000800F002F822
:1000F00000F03AF80AA090E8000C82448344AAF188
:100100000107DA4501D100F02FF8AFF2090EBAE885
:100110000F0013F0010F18BFFB1A43F0010318473B
:100120009C190000BC190000103A24BF78C878C19F
:10013000FAD8520724BF30C830C144BF04680C60ED
:10014000704700000023002400250026103A28BF35
:1001500078C1FBD8520728BF30C148BF0B60704739
:100160001FB51FBD10B510BD00F058F81146FFF7C0
:10017000F7FF01F0F7FB00F076F803B4FFF7F2FFAA
:1001800003BC00F07DF8000009488047094800479B
:10019000FEE7FEE7FEE7FEE7FEE7FEE7FEE7FEE737
:1001A000FEE7FEE704480549054A064B7047000094
:1001B00023170008ED000008F0000020F0060020E2
:1001C000F0020020F00200204FF0000200B51346BC
:1001D00094469646203922BFA0E80C50A0E80C5067
:1001E000B1F12001BFF4F7AF090728BFA0E80C5018
:1001F00048BF0CC05DF804EB890028BF40F8042B11
:1002000008BF704748BF20F8022B11F0804F18BF7D
:1002100000F8012B7047704770477047754600F033
:100220002BF8AE4605006946534620F00700854688
:1002300018B020B5FFF7B6FFBDE820404FF000062C
:100240004FF000074FF000084FF0000BAC46ACE851
:10025000C009ACE8C009ACE8C009ACE8C00921F0AD
:1002600007018D46704710B50446AFF30080204665
:10027000BDE81040FFF781BF004870471000002024
:1002800001491820ABBEFEE7260002007047B0B55A
:10029000044600688168C9071DD0816821F001010A
:1002A000816000F017FC054620688068C00712D006
:1002B00000F010FC401B0328F6D320688068C007BC
:1002C000F2D0A06A40F01000A062E06A40F00100A5
:1002D000E0620120B0BD0020B0BD0000BCB5044606
:1002E0000020019021688A68D2072AD1886840F0EE
:1002F000010088609B489C490068B0FBF1F00190C8
:10030000019810B101980138F9E700F0E3FB0546C8
:1003100020688068C00715D100F0DCFB401B032873
:10032000F6D320688068C007F2D1A06A40F01000C0
:10033000A062002084F82400E06A40F00100E0623E
:100340000120BCBD0020BCBDB0B50B4D2C1D20460E
:1003500000F01AF8204600F069FA20464FF47A714E
:1003600000F0BEF9204600F001F928802046BDE8E3
:10037000B04000F0B7BA00BF70000020FEE7704741
:10038000EFF3108072B6FEE77CB5044600200190C2
:1003900094F82400012801D1022558E0012084F8B6
:1003A00024002046FFF773FF2046FFF797FF05461E
:1003B000002849D1A06A41F2021188430230A062AC
:1003C00068480668022000F00DFCB6FBF0F0400023
:1003D0000190019810B101980138F9E7206881680F
:1003E00041F00801816000F075FB064620688168D5
:1003F000090709D500F06EFB801B0B28F6D3206897
:1004000080680007F2D513E0816841F00401816043
:1004100000F060FB06462068806840070DD500F0BC
:1004200059FB801B0B28F6D3206880684007F2D563
:10043000012510206FF0120102E001206FF003018E
:10044000A26A11400843A062002084F824002846D4
:100450007CBD00BFF8B50022009290F82420012A4C
:1004600001D1022161E0012280F824204C68062C91
:100470000DD80A6804EB8403053B1F2502FA03F438
:1004800005FA03F603681D4655F8347F1BE0036840
:100490000C2C0CD80A6804EB8404A4F123051F2655
:1004A00002FA05F4AE401D4655F8307F0BE00A68AD
:1004B00004EB8404A4F141051F2602FA05F4AE40C2
:1004C0001D4655F82C7F27EA06063443092A2C607E
:1004D0001BD9896802EB42041E3C0725A14005FA9E
:1004E00004F4DD6825EA04042143D96022F0010107
:1004F000102916D11A49A1F10804A34217D0816A24
:1005000041F02001816201210CE0896802EB420286
:100510000724914004FA02F21C6924EA0202114302
:1005200019610021002280F824200846F8BD0B68DC
:100530001B02F6D40B68102A43F400030B60F0D1C1
:10054000B449094A0968B1FBF2F101EB81014900A4
:10055000009100990029E4D000990139F8E700BF23
:10056000082401400800002040420F000068C06CD1
:1005700070470000C0B370B50546044655F8280F13
:1005800030B9002084F82400E062204600F07AF8B8
:100590002046FFF77CFEA26AA16A38BB12F0100069
:1005A00024D141F2021021EA00000230A062D4E915
:1005B0000101E269237B10434A1EB2FA82F2560916
:1005C0000A46B1F5807F18BF3202267D40EA43001B
:1005D000012E16D173B1A36A43F02003A362E36A2C
:1005E00043F00103E3620CE00120704741F0100189
:1005F00001203CE0A3691F4E06EB43331A4342F44B
:1006000000622368B1F5807F5E6826F4694642EA9D
:1006100006025A609A68184E02EA060242EA00028E
:100620009A6001D0012904D12169144A02EB0151D9
:1006300000E00021DA6A22F470021143D96299685D
:100640000F4A1140814206D10020E062A16A0122D6
:1006500062F301010BE0A06A40F0100020F00200FC
:10066000A06254F82C0F40F00101012025462960BA
:1006700070BD00BF00E0FFFFFDF7E1FF0000F0FFED
:10068000FE0E1FFFFEB501460020CDE90400CDE9B6
:1006900002001148096800F5E052914219D10F4952
:1006A0000A6842F400720A600A6802F40072019259
:1006B000019A0A6842F004020A60096801F0040124
:1006C00001910321039101210291019902A900F0F6
:1006D00033F906B080BD00BF000801401810024089
:1006E0002DE9FC4100260D460446019600F0F2F982
:1006F000804620688168C90528D44168C90503D4AB
:10070000C16A11F4700F2AD042480668022000F036
:1007100069FA2168404B0A69B6FBF0F01A4203D12E
:10072000CA683E4B1A422CD00A693D4B1A4203D18B
:10073000CA683C4B1A422FD00E693B4BFC221E422A
:100740002BD1C968194208BF542226E084F82460DE
:10075000A06A40F02000A0620120BDE8FC816F1C6F
:10076000016889072FD4002FFAD035B100F0B2F913
:10077000A0EB08012068A942F2D901688907EFD4EB
:100780003EE00B69264E2922334206D1C968254B2B
:10079000194208BF142200E0542202FB00F76E1C2D
:1007A0000198B8420ED24EB12DB100F093F9A0EBF2
:1007B0000800A84202D90198B84221D3019801301B
:1007C0000190EDE720686FF012010160A16A41F429
:1007D0000071A162806800F46020B0F5602F0CD138
:1007E000207B50B9A06A20F48070A062A06AC00487
:1007F00003D4A06A40F00100A0620020BDE8FC81A3
:10080000002084F82400A06A40F00400A0620320C5
:10081000BDE8FC810800002024499224244992006C
:10082000922449129224490049922400B0B504460A
:1008300090F82400012804BF0220B0BD012084F8F4
:1008400024002046FFF74AFD18B1002184F8241047
:10085000B0BD2068A16A40F20132914301F5807178
:10086000A1621F4901F57F72904205D0A36A23F46B
:100870008013A362436808E00B6813F4702FF5D06F
:10088000A36A43F48013A3620B685B0504D5A36AD3
:10089000012565F30D33A362A36A0025DB0444BF81
:1008A000E56A25F006050023E5626FF002050560A4
:1008B00084F82430836803F46023B3F5602F05D1F6
:1008C000904207D1096811F4702F03D0816841F478
:1008D000801102E0816841F4A00181600020B0BD78
:1008E0000424014010B5044690F82400012804BFF8
:1008F000022010BD012084F824002046FFF7C7FC29
:1009000028B9A16A41F2011291430131A16200218B
:1009100084F8241010BD0000B0B5044600F0DAF8E9
:1009200005468948611C007818BF044400F0D2F8DD
:10093000401BA042FAD3B0BD2DE9FC4F594A042315
:100940004FF0000B4FF001084FF00F0E4FF0000971
:100950000025904208BF032300930B6833FA05F289
:1009600008BFBDE8FC8F08FA05F2134200F096803C
:100970004F68032F16D9112F24D0122F26D04C4B9D
:100980009F4213D04B4B9F4210D04B4B9F420DD0F8
:100990004A4B9F420AD04A4B9F4207D0494B9F4245
:1009A00004D020E0DFE807F00216191D8B6833B190
:1009B000012B14BF426102614FF0080913E04FF0B0
:1009C000040910E0CB6803F104090CE0CB6803F1E3
:1009D0000C0908E0D1F80C9005E0CB6803F1080998
:1009E00001E04FF000095B460646082D28BF203B7A
:1009F00028BF043637680EFA03F427EA040409FA1C
:100A000003F323433360CB79DB0647D55D4B264E9A
:100A10001C461B68A6F57E7643F00103236023681D
:100A20000BF00C0C03F001030193019CAC0856F889
:100A300024700EFA0CF327EA030A234B984208D0DD
:100A4000224B984207D0224B9842009B08BF0223BA
:100A500002E0002300E0012303FA0CF343EA0A0357
:100A600046F824304F68104CFB02A36854BF9343F0
:100A700013430E4EA360BB02336854BF934313432A
:100A80003360BB03636854BF934313436360FB034A
:100A9000236854BF23EA02021A4322600BF1040BBD
:100AA00001355AE700140140000401400C040140E4
:100AB0000000111000001210000021100000221090
:100AC000000031100000321000080140000C01400D
:100AD0000010014005480068704700BF1A480349EC
:100AE00000780A6810440860704700BFEC000020DE
:100AF00080B5F348016841F010010160032000F067
:100B000061F80F2000F004F800F020F8002080BD0C
:100B100070B50D4E044630784FF47A71B1FBF0F0A9
:100B2000EF490968B1FBF0F000F0A0FB01250F2CA4
:100B300008D838B94FF0FF3021460022002500F0D8
:100B400025F87460284670BD0000002082B00D4872
:100B50000222016841F001010160016801F0010118
:100B600001910199416841F080514160406800F075
:100B70008050009000980448016862F31A61016097
:100B800002B070471810024004000140B0B5134B8A
:100B90004FF0FF351B68C3F30223DC1E83F007030D
:100BA00038BF0024042B28BF042305FA03F399431C
:100BB00005FA04F3A1409A431143BDE8B04000F0A8
:100BC000BFBE00BF05494FF6FF030A681A4060F335
:100BD0000A22034810430860704700BF0CED00E094
:100BE0000000FA0580B5012811D0022829D010286C
:100BF00025D125494A680868C00120D5C2F3834041
:100C000022A3185CD2032DD4CB4A504333E01E48B4
:100C100040F20232016A0A40B2F5817F04BF4FF40C
:100C2000004080BD01F44071B1F5407F13D0B1F5B3
:100C3000007F04D1406A49F6404180070FE0002060
:100C400080BD00F043F9104902224968C1F38131A7
:100C500002EB410114E000684FF22441800301EAF5
:100C6000E07080BD4A680DA3C2F340429A5CAC4B71
:100C7000B3FBF2F250434968490203D44000032118
:100C8000B0FBF1F080BD00BF00100240020304057C
:100C9000060708090A0B0C0D0E0F101001020000C8
:100CA0002DE9FC41044600789C4EC00758D0B0693D
:100CB000C0000BD4B0694FF0010840F08050B06123
:100CC000B06900F080500190019801E04FF00008F9
:100CD0002D4F3868C00511D4386840F480703860F2
:100CE000FFF7F8FE05463868C00507D4FFF7F2FEA7
:100CF000401B6428F7D90320BDE8FC81F06910F49B
:100D000040701FD0616801F4407188421AD01F49B9
:100D1000F06901220A6000220A6020F44071C007D5
:100D2000F1610FD0FFF7D6FE054641F28837F06932
:100D3000800707D4FFF7CEFE411B0320B942F6D946
:100D4000BDE8FC816068F169B8F1000F21F44071E1
:100D500040EA0100F06103D0B06920F08050B0613A
:100D60002068810705D5A168326822F4404211430A
:100D70003160C00605D5E068316821F48001084380
:100D800030600020BDE8FC81007000404004424219
:100D90002DE9F843002800F0908088464849044631
:100DA000086800F0070040450AD2086820F00700F4
:100DB00040EA08000860086800F0070040457CD160
:100DC0002068564B8946810711D5410703D519681C
:100DD00041F4E0611960010703D5196841F46051DD
:100DE0001960A1681A6822F0F00211431960C00767
:100DF0002BD06068012804D153F8041C890309D45E
:100E00005BE053F8041C022802D1890102D454E0AB
:100E1000890752D519681D4621F00301084318605F
:100E2000FFF758FE064641F28837606829682B466E
:100E300001F00C01B1EB800F07D0FFF74BFE801BD8
:100E4000B842F2D90320BDE8F883D9F8000000F0D9
:100E5000070040450DD9D9F8000020F0070040EA0E
:100E60000800C9F80000D9F8000000F0070040456C
:100E700023D12068410705D5E1681A6822F4E062B1
:100E800011431960000706D52069196821F46051E3
:100E900041EAC00018601C4600F026F82168094AA3
:100EA000C1F30311515CC840EE4908600648006870
:100EB000FFF72EFE0020BDE8F8830120BDE8F8838F
:100EC00000200240A41A000804000020E54813494D
:100ED00000680968034AC1F3C221515CC8407047E9
:100EE00008000020B41A000810B50C490C480A6824
:100EF00002F00C03082B07D1C2F3834309A4E35C7F
:100F0000D20302D40C48584310BD096809A2C1F3AA
:100F10004041515C5843B0FBF1F010BD0410024059
:100F200000127A0002030405060708090A0B0C0DDB
:100F30000E0F10100102000000093D002DE9FC41D8
:100F4000002800F0CC8004460078C44EC0074AD088
:100F5000706800F00C00042817D0706800F00C00D6
:100F6000082802D17068C0030FD4606898B1B0F54A
:100F7000803F06D03168B0F5A02F21D141F4802008
:100F80003060306840F4803020E0306880032AD53B
:100F9000606840BBA3E0306820F480303060306887
:100FA00020F480203060FFF795FD0546306880030F
:100FB00019D5FFF78FFD411B03206429F6D94AE1BB
:100FC00021F480303060306820F480203060FFF7FA
:100FD00081FD05463068800305D4FFF77BFD401B8B
:100FE0006428F7D90AE1207880072CD5706810F0C2
:100FF0000C0F07D0706800F00C00082809D1706849
:10100000C00306D43068800716D52069012813D0A4
:1010100065E021699248002900F0B5800121016056
:10102000FFF758FD05463068800705D4FFF752FDED
:10103000401B0228F7D9E1E06069316821F0F8012E
:1010400041EAC0003060207800072ED5A06978B151
:1010500083480121C0F88014FFF73CFD0546706A03
:10106000800715D4FFF736FD401B0228F7D9C5E0ED
:101070007B480021C0F88014FFF72CFD0546706AFC
:10108000800712D5FFF726FD401B0228F7D9B5E0EF
:1010900074484FF4FA510068B0FBF1F0019000BFC2
:1010A0000198411E00280191F9D12078400719D4F8
:1010B000E769002F00F0CE80706800F00C0008286F
:1010C00043D1012F0BD0216A706800F480328A422C
:1010D00005D1616A00F47010884200F0BB800120E5
:1010E000BDE8FC81F069C0000BD4F0694FF0010845
:1010F00040F08050F061F06900F08050009000985E
:1011000001E04FF00008584F3868C0050FD4386828
:1011100040F480703860FFF7DDFC05463868C00594
:1011200005D4FFF7D7FC401B6428F7D966E0E068D8
:10113000C8B3012805D0316A05284BD141F004001D
:101140003062306A40F001004AE04549002088469C
:101150000866FFF7BFFC0546022F0AD147463068F4
:10116000800157D5FFF7B6FC411B03200229F6D9B1
:1011700071E0306880016DD5FFF7ACFC411B0320A6
:101180000229F6D967E000210160FFF7A3FC0546BC
:10119000306880077FF557AFFFF79CFC411B0320A9
:1011A0000229F5D957E0306A20F001003062306A38
:1011B00020F004003062FFF78DFC054641F28837CD
:1011C000306A80071DD5FFF785FC411B0320B9421B
:1011D000F6D940E021F001003062306A20F00400CE
:1011E0003062FFF777FC054641F28837306A8007A6
:1011F00007D4FFF76FFC401BB842F7D90320BDE8C6
:10120000FC81B8F1000F3FF453AFF06920F080503B
:10121000F0614DE7206AB0F5803F05D1A1687268A2
:1012200022F4003211437160616A0843716821F44D
:1012300074110843706001203866FFF74BFC0446C8
:101240003068800106D4FFF745FC011B032002290A
:10125000F6D900E00020BDE8FC8100BF001002408C
:10126000000042420800002000700040411E0020A3
:10127000B0EB116F1CBF01207047044AF02351608E
:1012800003490B70072190601160704710E000E087
:1012900023ED00E0F0B5024690F83C00012804BFC1
:1012A0000220F0BD002082F83C0001F10807E0CFE9
:1012B000D1E900C426F47C5625F47055354324F456
:1012C000F0442C432CF4E0454B692C4327F4C045F3
:1012D0002C432343C96923F48043126819435164A2
:1012E000F0BD000010B590F83C300222012B24D054
:1012F00080F83D20012280F83C2002680B68546889
:10130000B2F1804F24F0700444EA030493685460FF
:1013100008D0DD4CA24205D0DA4CA24202D0DB4C10
:10132000A24204D1496823F080031943916000224E
:10133000012180F83C2080F83D10104610BD00BF10
:1013400040B310B5044690F83D0028B9002084F859
:101350003C00204600F020F8022084F83D00206880
:10136000211D00F0DFF9012084F8460084F83E00DA
:1013700084F83F0084F8400084F8410084F842007B
:1013800084F8430084F8440084F8450084F83D0064
:10139000002010BD0120704781B00068B949884223
:1013A00009D15648016841F400610160006800F409
:1013B00000600090009801B0704700BF10B590F831
:1013C0003C2004460220012A70D084F83D00012010
:1013D00084F83C0020684FF6777382689A438260F5
:1013E0000A6812B3102A20D0202A1ED0302A1CD01E
:1013F000402A21D0502A2BD0602A35D0B2F5005F88
:101400003ED0B2F5805F4AD0702A50D1D1E9012395
:10141000C9681A4342EA0121826822F47F421143DB
:101420008160816841F0770138E0816821F07001C6
:10143000114341F0070131E04B68CA68194600F0DA
:101440005BFA2068816841F0470121F0300125E016
:101450004B68CA68194600F04FFA2068816841F06D
:10146000570121F0200119E04B68CA68194600F0C5
:1014700054FA2068816841F0670121F010010DE005
:10148000D1E90123C9681A4342EA0121826822F4A2
:101490007F4211438160816841F480418160002076
:1014A000002184F83C10012184F83D1010BD01207A
:1014B000F6E70000FEB501460020CDE90400CDE9C5
:1014C00002000D48096800F51052914212D10B49F3
:1014D0000A6842F004020A60096801F004010191FF
:1014E0000221059103914FF480710291019902A9A3
:1014F000FFF722FA06B080BD000801401810024034
:10150000B0B5044690F83C00012804BF0220B0BDED
:101510000D464FEAB2010120032984F83C0037D878
:10152000DFE801F0020A12222068294600F046F99D
:10153000206850F8181F0EE02068294600F064F972
:10154000206850F8181F16E02068294600F088F936
:10155000206850F81C1F41F008010160016821F06B
:101560000401016029690FE02068294600F0A2F912
:10157000206850F81C1F41F400610160016821F4EB
:10158000806101602969090202681143016000203D
:10159000002184F83C10B0BD40B310B5044690F86B
:1015A0003D0028B9002084F83C00204600F020F8D7
:1015B000022084F83D002068211D00F0B3F80120CE
:1015C00084F8460084F83E0084F83F0084F8400028
:1015D00084F8410084F8420084F8430084F8440011
:1015E00084F8450084F83D00002010BD01207047BC
:1015F0007047000010B5044641B1082909D00429FC
:1016000014BF04F1410004F13F0004E004F13E0086
:1016100001E004F14000007801281CBF012010BD4A
:10162000022041B1082909D0042914BF84F84100DF
:1016300084F83F0004E084F83E0001E084F84000B4
:101640002068012200F0AAF82068AA49884203D144
:101650004A6C42F400424A64B0F1804F07D04D4AD0
:10166000904204D0884202D04B49884204D181681C
:1016700001F00701062903D0016841F00101016072
:10168000002010BD002C0140000400400008004074
:10169000FEE7FEE7FEE70000024800213430FFF7D6
:1016A000A9BF00BF7000002070477047FFF716BA4F
:1016B00070B594B00AAC201D1821FEF785FD05A871
:1016C0001421FEF781FD4FF46010139000260225CF
:1016D0001020129611950F9001200E9020460A9529
:1016E000CDE90366CDE90166FFF728FCB8B94FF4F0
:1016F00080600996CDE907600F20CDE9050505A8B2
:101700000221FFF745FB50B94FF4404003900220FF
:10171000019001A8FFF7C4FA08B914B070BDFEF734
:101720002FFE704770B50368724AB0F1804F07D042
:10173000184CA04204D0904202D0174CA04203D1D2
:101740004C6823F070032343B0F1804F07D0114C55
:10175000A04204D0904202D00F4CA04203D1CC68EA
:1017600023F4407323434E690C688D6823F0800393
:10177000334390420360C562846201D109691163F9
:10178000012141610169C90703D0016921F001010B
:10179000016170BD000400400008004010B501F078
:1017A0001F010123046A8B4024EA0303036202FA47
:1017B00001F1026A1143016210BD0000F0B5026A36
:1017C000036A22F0020223F0010303628C680B68B3
:1017D00022434468856925F073052B43454DA84293
:1017E0000BD1CD68D1E9056724F44074344322F06D
:1017F0000C0225F004053C432A4344608361496898
:1018000041630262F0BD00BFF0B5026A036A22F0D4
:10181000200223F0100303628C680B6842EA041272
:101820004468856925F4E64545EA0323314DA8421D
:101830000FD1D1E90567CD6824F4406444EA8604F9
:101840006FF0400606EA051522F0C00244EA87045C
:101850002A4344608361496881630262F0BD00BF2E
:10186000F0B5026A036A22F4007223F48073036203
:101870008C680B6842EA04224468C56925F0730548
:101880002B431C4DA8420FD1CD68D1E9056724F444
:10189000405444EA06142D0240F2FF46B54322F4B8
:1018A000406244EA07142A434460C3614968C16343
:1018B0000262F0BDB0B5026A036A22F4005223F45A
:1018C000805303628B680C6842EA03324368C5693F
:1018D00025F4E64545EA0424064DA84204D14D69A5
:1018E00023F4804343EA85134360C461496801647B
:1018F0000262B0BD002C014010B5036A046A24F0F6
:1019000001040462846924F0F00444EA0212826152
:1019100023F00A021143016210BD10B5036A046A84
:1019200024F010040462846924F4704444EA02320E
:10193000826123F0A00242EA0111016210BDFEE7BC
:1019400010B5074C00F00F032344044AB0F1FF3FE9
:10195000C8BF83180801187010BD00BF00E400E084
:1019600014ED00E096B0FFF7C3F8FFF7A1FE4A4977
:101970004A4E08684A4D40F004000860304640F87E
:10198000045F4FF4602200240127C26104750473D0
:101990000761C0E90144096801F00401019101995E
:1019A0000394CDE90144FEF7E5FD002871D107203D
:1019B0000390301D01A9CDE90147FEF74BFD00283A
:1019C00067D109AC002720461C21CDE91477CDE969
:1019D0001277CDE91077FEF7F7FB01A82021FEF77B
:1019E000F3FB05F50061304640F8341F44F61F61F3
:1019F0003F22C0E90127C0E90317C0E90577FFF7D7
:101A00009FFC002845D14FF4805006F13405129018
:101A100012A92846FFF7D2FCD8BB2846FFF7BCFD29
:101A2000B8BB0020CDE9100010A92846FFF75AFCEA
:101A300078BB60200990201D1821FEF7C5FB2846C1
:101A4000214600220027FFF75BFD10BB01AC2046BA
:101A50001421FEF7B9FB4FF4005008970690284672
:101A60002146FFF717FCA0B92846FFF723FDFFF733
:101A700013FE4FF4FA644FF4FA75FEF765FC3088F4
:101A8000716B604305EB103048630A20FEF744FF9A
:101A9000F3E7FEF775FC00BF18100240700000204D
:101AA00000240140000000000000000001020304C7
:101AB000060708090000000001020304E01A0008FC
:101AC000000000201000000028010008F01A0008A3
:101AD00010000020E00600004401000800000000A3
:101AE000010000001000000000127A000000000059
:04000005080000ED02
:00000001FF
