:020000040800F2
:100000007806002089010008590B0008590A0008E9
:10001000570B00088F020008CB0B000800000000FF
:100020000000000000000000000000005D0B000860
:1000300091020008000000005B0B00085F0B000845
:10004000A3010008A3010008A3010008A301000800
:10005000A3010008A3010008A3010008A3010008F0
:10006000A3010008A3010008A3010008A3010008E0
:10007000A3010008A3010008A3010008A3010008D0
:10008000A3010008A3010008A3010008A3010008C0
:10009000A3010008A3010008A3010008A3010008B0
:1000A000A3010008A3010008A3010008A3010008A0
:1000B000A3010008A3010008A3010008A301000890
:1000C000A3010008A3010008A3010008A301000880
:1000D000A3010008A3010008A3010008A301000870
:1000E000A3010008A3010008A301000800F002F822
:1000F00000F03AF80AA090E8000C82448344AAF188
:100100000107DA4501D100F02FF8AFF2090EBAE885
:100110000F0013F0010F18BFFB1A43F0010318473B
:10012000640C0000840C0000103A24BF78C878C129
:10013000FAD8520724BF30C830C144BF04680C60ED
:10014000704700000023002400250026103A28BF35
:1001500078C1FBD8520728BF30C148BF0B60704739
:100160001FB51FBD10B510BD00F058F81146FFF7C0
:10017000F7FF00F03DFD00F076F803B4FFF7F2FF63
:1001800003BC00F07DF8000009488047094800479B
:10019000FEE7FEE7FEE7FEE7FEE7FEE7FEE7FEE737
:1001A000FEE7FEE704480549054A064B7047000094
:1001B000C90B0008ED000008780000207806002038
:1001C00078020020780200204FF0000200B51346AC
:1001D00094469646203922BFA0E80C50A0E80C5067
:1001E000B1F12001BFF4F7AF090728BFA0E80C5018
:1001F00048BF0CC05DF804EB890028BF40F8042B11
:1002000008BF704748BF20F8022B11F0804F18BF7D
:1002100000F8012B7047704770477047754600F033
:100220002BF8AE4605006946534620F00700854688
:1002300018B020B5FFF7B6FFBDE820404FF000062C
:100240004FF000074FF000084FF0000BAC46ACE851
:10025000C009ACE8C009ACE8C009ACE8C00921F0AD
:1002600007018D46704710B50446AFF30080204665
:10027000BDE81040FFF781BF004870471000002024
:1002800001491820ABBEFEE7260002007047FEE7DA
:1002900070470000B0B5044600F0E0F805468C4811
:1002A000611C007818BF044400F0D8F8401BA0423D
:1002B000FAD3B0BD2DE9FC4F594A04234FF0000B8F
:1002C0004FF001084FF00F0E4FF00009002590424B
:1002D00008BF032300930B6833FA05F208BFBDE89B
:1002E000FC8F08FA05F2134200F096804F68032F46
:1002F00016D9112F24D0122F26D04C4B9F4213D049
:100300004B4B9F4210D04B4B9F420DD04A4B9F42CC
:100310000AD04A4B9F4207D0494B9F4204D020E06D
:10032000DFE807F00216191D8B6833B1012B14BFEB
:10033000426102614FF0080913E04FF0040910E038
:10034000CB6803F104090CE0CB6803F10C0908E069
:10035000D1F80C9005E0CB6803F1080901E04FF0FB
:1003600000095B460646082D28BF203B28BF0436FF
:1003700037680EFA03F427EA040409FA03F3234367
:100380003360CB79DB0647D5604B264E1C461B6895
:10039000A6F57E7643F00103236023680BF00C0C76
:1003A00003F001030193019CAC0856F824700EFA87
:1003B0000CF327EA030A234B984208D0224B9842B9
:1003C00007D0224B9842009B08BF022302E0002383
:1003D00000E0012303FA0CF343EA0A0346F8243051
:1003E0004F68104CFB02A36854BF934313430E4E57
:1003F000A360BB02336854BF934313433360BB0312
:10040000636854BF934313436360FB03236854BF83
:1004100023EA02021A4322600BF1040B01355AE76A
:1004200000140140000401400C04014000001110C0
:1004300000001210000021100000221000003110F6
:100440000000321000080140000C01400010014083
:10045000002A08BF090401617047000005480068D0
:10046000704700BF1A48034900780A6810440860C2
:10047000704700BF7000002080B58848016841F0D7
:1004800010010160032000F061F80F2000F004F873
:1004900000F020F8002080BD70B50D4E0446307885
:1004A0004FF47A71B1FBF0F07E490968B1FBF0F0CE
:1004B00000F0BEFA01250F2C08D838B94FF0FF30F4
:1004C00021460022002500F025F87460284670BD02
:1004D0000000002082B00D480222016841F00101B5
:1004E0000160016801F0010101910199416841F049
:1004F00080514160406800F08050009000980448AE
:10050000016862F31A61016002B07047181002407E
:1005100004000140B0B5134B4FF0FF351B68C3F327
:100520000223DC1E83F0070338BF0024042B28BFFE
:10053000042305FA03F3994305FA04F3A1409A430F
:100540001143BDE8B04000F041BB00BF05494FF684
:10055000FF030A681A4060F30A2203481043086048
:10056000704700BF0CED00E00000FA052DE9F843EC
:10057000002800F09080884648490446086800F04A
:10058000070040450AD2086820F0070040EA08004A
:100590000860086800F0070040457CD12068504B97
:1005A0008946810711D5410703D5196841F4E061F7
:1005B0001960010703D5196841F460511960A168F9
:1005C0001A6822F0F00211431960C0072BD060684E
:1005D000012804D153F8041C890309D45BE053F8C3
:1005E000041C022802D1890102D454E0890752D5A3
:1005F00019681D4621F0030108431860FFF72EFF1C
:10060000064641F28837606829682B4601F00C01E4
:10061000B1EB800F07D0FFF721FF801BB842F2D962
:100620000320BDE8F883D9F8000000F0070040453A
:100630000DD9D9F8000020F0070040EA0800C9F8F9
:100640000000D9F8000000F00700404523D12068E1
:10065000410705D5E1681A6822F4E0621143196088
:10066000000706D52069196821F4605141EAC000ED
:1006700018601C4600F01AF82168094AC1F30311FA
:10068000515CC840E849086007480068FFF704FF6C
:100690000020BDE8F8830120BDE8F8830020024077
:1006A000740D0008080000200400002010B50C495B
:1006B0000C480A6802F00C03082B07D1C2F38343ED
:1006C00009A4E35CD20302D40C48584310BD096866
:1006D00009A2C1F34041515C5843B0FBF1F010BD99
:1006E0000410024000127A000203040506070809FC
:1006F0000A0B0C0D0E0F10100102000000093D0046
:100700002DE9FC41002800F0CC8004460078C44E5E
:10071000C0074AD0706800F00C00042817D0706839
:1007200000F00C00082802D17068C0030FD4606884
:1007300098B1B0F5803F06D03168B0F5A02F21D137
:1007400041F480203060306840F4803020E0306830
:1007500080032AD5606840BBA3E0306820F4803075
:100760003060306820F480203060FFF777FE054667
:100770003068800319D5FFF771FE411B03206429FF
:10078000F6D94AE121F480303060306820F48020CE
:100790003060FFF763FE05463068800305D4FFF73D
:1007A0005DFE401B6428F7D90AE1207880072CD52C
:1007B000706810F00C0F07D0706800F00C0008286B
:1007C00009D17068C00306D43068800716D5206947
:1007D000012813D065E021699248002900F0B58016
:1007E00001210160FFF73AFE05463068800705D415
:1007F000FFF734FE401B0228F7D9E1E06069316859
:1008000021F0F80141EAC0003060207800072ED5C1
:10081000A06978B183480121C0F88014FFF71EFE5B
:100820000546706A800715D4FFF718FE401B0228A2
:10083000F7D9C5E07B480021C0F88014FFF70EFE11
:100840000546706A800712D5FFF708FE401B022894
:10085000F7D9B5E074484FF4FA510068B0FBF1F0F5
:10086000019000BF0198411E00280191F9D1207824
:10087000400719D4E769002F00F0CE80706800F0BF
:100880000C00082843D1012F0BD0216A706800F4B6
:1008900080328A4205D1616A00F47010884200F00B
:1008A000BB800120BDE8FC81F069C0000BD4F06979
:1008B0004FF0010840F08050F061F06900F0805086
:1008C0000090009801E04FF00008584F3868C005CC
:1008D0000FD4386840F480703860FFF7BFFD0546DC
:1008E0003868C00505D4FFF7B9FD401B6428F7D967
:1008F00066E0E068C8B3012805D0316A05284BD10D
:1009000041F004003062306A40F001004AE045499D
:10091000002088460866FFF7A1FD0546022F0AD190
:1009200047463068800157D5FFF798FD411B0320EB
:100930000229F6D971E0306880016DD5FFF78EFD90
:10094000411B03200229F6D967E000210160FFF76F
:1009500085FD0546306880077FF557AFFFF77EFDC0
:10096000411B03200229F5D957E0306A20F001002D
:100970003062306A20F004003062FFF76FFD0546F8
:1009800041F28837306A80071DD5FFF767FD411BAC
:100990000320B942F6D940E021F001003062306A0C
:1009A00020F004003062FFF759FD054641F2883718
:1009B000306A800707D4FFF751FD401BB842F7D9D2
:1009C0000320BDE8FC81B8F1000F3FF453AFF0699C
:1009D00020F08050F0614DE7206AB0F5803F05D1EE
:1009E000A168726822F4003211437160616A0843A1
:1009F000716821F474110843706001203866FFF7B4
:100A00002DFD04463068800106D4FFF727FD011B49
:100A100003200229F6D900E00020BDE8FC8100BFD8
:100A20000010024000004242080000200070004018
:100A3000411E0020B0EB116F1CBF01207047044A1B
:100A4000F023516003490B700721906011607047DB
:100A500010E000E023ED00E0FEE70000B0B5B44D8B
:100A60003220A847AA4C3820A0470520A8470C20D0
:100A7000A0470520A8470120A0470520A847062039
:100A8000A04705202946BDE8B040084770B5284C6E
:100A90000D4618B1012807D1002200E0012204F51B
:100AA00080600121FFF7D4FC984E05F0010220463A
:100AB0000121B047C5F3400220460221B047C5F3EB
:100AC000800220460421B047C5F3C0022046082119
:100AD000B047C5F3001220461021B047C5F34012BD
:100AE00020462021B047C5F3801220464021B04760
:100AF000EA0920468021B04704F5806420464FF47F
:100B000080610022B0478A4D0120A84720464FF45B
:100B100080610122B0470120A84720464FF4806140
:100B20000022B04701202946BDE87040084700BFB9
:100B30000008014001460120FFF7A8BF0146002040
:100B4000FFF7A4BF10B50446207818B1FFF7F6FFF1
:100B50000134F9E710BDFEE7FEE770477047FFF785
:100B600081BCB0B590B0002401A81421CDE90B449C
:100B7000CDE90944FFF728FB4FF4E0100F904FF444
:100B80008030022501210E900D950A910894CDE93F
:100B9000061006A8FFF7B4FD18B1EFF3108072B687
:100BA000FEE74FF480600594CDE903400F20CDE9C6
:100BB000010501A80221FFF7D9FC18B1EFF310805D
:100BC00072B6FEE710B0B0BD7047FEE710B5074C37
:100BD00000F00F032344044AB0F1FF3FC8BF83185D
:100BE0000801187010BD00BF00E400E014ED00E043
:100BF00084B0FFF741FCFFF7B4FF4248DFF80CA1D7
:100C00000168002241F0200101600168FF2601F027
:100C100020010091009901684FF0000841F00401A3
:100C20000160016801F0040100910099016841F040
:100C3000080101600068FF2100F0080000900098A2
:100C40003148A0F5806583462846D047584640F293
:100C50000341002240F20349D04702270124CDE995
:100C60000287CDE900646E4628463146FFF722FB35
:100C700058463146CDE90287CDE90094FFF71AFBCB
:100C800058464FF480610022D047FFF7E7FE204E20
:100C9000234FDFF89C800FF28C090FF2980A0FF2B5
:100CA000A00B2BA42FA58020B0471AA0B847C020C6
:100CB000B0474846B84740F6B830C0470120B04773
:100CC0000520C0478020B0475046B847C020B047F5
:100CD0005846B84740F6B830C0470120B047052015
:100CE000C0478020B0472046B847C020B0472846BC
:100CF000B84740F6B830C0470120B0470520C0478C
:100D0000D1E700BF18100240000C01405104000858
:100D1000350B000858696E204368616F00000000C1
:100D2000450B0008546F69206C61204E616D000016
:100D300095020008546F692031392074756F69007D
:100D4000546F69206F204861204E6F6900000000D9
:100D500052617420767569206B6869206761702024
:100D600062616E0048656E20676170206C61692069
:100D70007361750000000000000000000102030420
:100D800006070809A80D0008000000201000000058
:100D900028010008B80D00081000002068060000B7
:100DA00044010008000000000100000010000000E5
:080DB00000127A0000000000AF
:04000005080000ED02
:00000001FF
